{
  "contractName": "BondingCurveFactory",
  "abi": [
    {
      "inputs": [
        {
          "internalType": "uint8",
          "name": "_curveType",
          "type": "uint8"
        }
      ],
      "name": "createBasicBondingCurve",
      "outputs": [],
      "stateMutability": "nonpayable",
      "type": "function"
    },
    {
      "inputs": [
        {
          "internalType": "string",
          "name": "_curveName",
          "type": "string"
        },
        {
          "internalType": "uint256[]",
          "name": "_curvParameters",
          "type": "uint256[]"
        },
        {
          "internalType": "address",
          "name": "_curveAddress",
          "type": "address"
        }
      ],
      "name": "addCurveType",
      "outputs": [
        {
          "internalType": "uint8",
          "name": "",
          "type": "uint8"
        }
      ],
      "stateMutability": "nonpayable",
      "type": "function"
    }
  ],
  "bytecode": "0x608060405234801561001057600080fd5b50610237806100206000396000f3fe608060405234801561001057600080fd5b50600436106100365760003560e01c8063041450f81461003b578063442732301461006c575b600080fd5b61006a6004803603602081101561005157600080fd5b81019080803560ff1690602001909291905050506101f5565b005b6101d96004803603606081101561008257600080fd5b810190808035906020019064010000000081111561009f57600080fd5b8201836020820111156100b157600080fd5b803590602001918460018302840111640100000000831117156100d357600080fd5b91908080601f016020809104026020016040519081016040528093929190818152602001838380828437600081840152601f19601f8201169050808301925050505050505091929192908035906020019064010000000081111561013657600080fd5b82018360208201111561014857600080fd5b8035906020019184602083028401116401000000008311171561016a57600080fd5b919080806020026020016040519081016040528093929190818152602001838360200280828437600081840152601f19601f820116905080830192505050505050509192919290803573ffffffffffffffffffffffffffffffffffffffff1690602001909291905050506101f8565b604051808260ff1660ff16815260200191505060405180910390f35b50565b6000939250505056fea264697066735822122002ddb4c4abeefb293ae8c8d399e71904f8757316e70d509ba16c030cc36b359d64736f6c63430006060033",
  "source": "pragma solidity 0.6.6;\n\ncontract BondingCurveFactory {\n    \n    function createBasicBondingCurve(\n        uint8 _curveType\n    )\n        public\n    {\n        \n    }\n\n    function addCurveType(\n        string memory _curveName,\n        uint256[] memory _curvParameters,\n        address _curveAddress\n    )\n        public\n        returns(uint8)\n    {\n\n    }\n\n    function _AddEnsName(string memory _ensName) internal {\n\n    }\n\n    function _CreateLinearCurve(uint256 _a) internal {\n\n    }\n\n\n}",
  "sourcePath": "/Users/veronicac/Desktop/projects/linumlabs/BondingCurveFactory/contracts/BondingCurveFactory.sol",
  "compiler": {
    "name": "solc",
    "version": "0.6.6+commit.6c089d02.Emscripten.clang",
    "optimizer": false,
    "runs": 200
  },
  "schemaVersion": "2.3.3",
  "updatedAt": "2020-05-22T10:27:15.394Z"
}