{
  "contractName": "BondingCurveFactory",
  "abi": [
    {
      "inputs": [
        {
          "internalType": "address",
          "name": "_uniswapRouter",
          "type": "address"
        }
      ],
      "stateMutability": "nonpayable",
      "type": "constructor"
    },
    {
      "anonymous": false,
      "inputs": [
        {
          "indexed": false,
          "internalType": "address",
          "name": "curve",
          "type": "address"
        },
        {
          "indexed": false,
          "internalType": "address",
          "name": "market",
          "type": "address"
        }
      ],
      "name": "factorySetUp",
      "type": "event"
    },
    {
      "anonymous": false,
      "inputs": [
        {
          "indexed": false,
          "internalType": "address",
          "name": "owner",
          "type": "address"
        },
        {
          "indexed": false,
          "internalType": "address",
          "name": "token",
          "type": "address"
        },
        {
          "indexed": false,
          "internalType": "string",
          "name": "name",
          "type": "string"
        }
      ],
      "name": "marketCreated",
      "type": "event"
    },
    {
      "inputs": [],
      "name": "activeCurve",
      "outputs": [
        {
          "internalType": "contract Curve",
          "name": "",
          "type": "address"
        }
      ],
      "stateMutability": "view",
      "type": "function"
    },
    {
      "inputs": [],
      "name": "activeMarketTransition",
      "outputs": [
        {
          "internalType": "contract MarketTransition",
          "name": "",
          "type": "address"
        }
      ],
      "stateMutability": "view",
      "type": "function"
    },
    {
      "inputs": [
        {
          "internalType": "address",
          "name": "",
          "type": "address"
        },
        {
          "internalType": "uint256",
          "name": "",
          "type": "uint256"
        }
      ],
      "name": "deployedMarkets",
      "outputs": [
        {
          "internalType": "address",
          "name": "",
          "type": "address"
        }
      ],
      "stateMutability": "view",
      "type": "function"
    },
    {
      "inputs": [],
      "name": "owner",
      "outputs": [
        {
          "internalType": "address",
          "name": "",
          "type": "address"
        }
      ],
      "stateMutability": "view",
      "type": "function"
    },
    {
      "inputs": [],
      "name": "setUp",
      "outputs": [
        {
          "internalType": "bool",
          "name": "",
          "type": "bool"
        }
      ],
      "stateMutability": "view",
      "type": "function"
    },
    {
      "inputs": [],
      "name": "uniswapRouter",
      "outputs": [
        {
          "internalType": "contract IUniswapV2Router01",
          "name": "",
          "type": "address"
        }
      ],
      "stateMutability": "view",
      "type": "function"
    },
    {
      "inputs": [],
      "name": "setUpFactory",
      "outputs": [],
      "stateMutability": "nonpayable",
      "type": "function"
    },
    {
      "inputs": [],
      "name": "getFactorySetUp",
      "outputs": [
        {
          "internalType": "address",
          "name": "",
          "type": "address"
        },
        {
          "internalType": "address",
          "name": "",
          "type": "address"
        }
      ],
      "stateMutability": "view",
      "type": "function"
    },
    {
      "inputs": [
        {
          "internalType": "uint256[3]",
          "name": "_curveParameters",
          "type": "uint256[3]"
        },
        {
          "internalType": "string",
          "name": "_name",
          "type": "string"
        },
        {
          "internalType": "string",
          "name": "_symbol",
          "type": "string"
        },
        {
          "internalType": "address",
          "name": "_underlyingCollateral",
          "type": "address"
        },
        {
          "internalType": "uint256",
          "name": "_tokenThreshold",
          "type": "uint256"
        },
        {
          "internalType": "uint256",
          "name": "_minimumTokenThreshold",
          "type": "uint256"
        },
        {
          "internalType": "uint256",
          "name": "_thresholdTimeout",
          "type": "uint256"
        }
      ],
      "name": "createMarket",
      "outputs": [
        {
          "internalType": "address",
          "name": "",
          "type": "address"
        }
      ],
      "stateMutability": "nonpayable",
      "type": "function"
    },
    {
      "inputs": [
        {
          "internalType": "address",
          "name": "_user",
          "type": "address"
        }
      ],
      "name": "getDeployedMarkets",
      "outputs": [
        {
          "internalType": "address[]",
          "name": "",
          "type": "address[]"
        }
      ],
      "stateMutability": "view",
      "type": "function"
    }
  ],
  "bytecode": "0x608060405234801561001057600080fd5b506040516157103803806157108339818101604052602081101561003357600080fd5b8101908080519060200190929190505050806000806101000a81548173ffffffffffffffffffffffffffffffffffffffff021916908373ffffffffffffffffffffffffffffffffffffffff16021790555033600360006101000a81548173ffffffffffffffffffffffffffffffffffffffff021916908373ffffffffffffffffffffffffffffffffffffffff1602179055505061563b806100d56000396000f3fe60806040523480156200001157600080fd5b5060043610620000ac5760003560e01c8063738b826c116200006f578063738b826c146200027d5780637ea17cbc14620002c95780638da5cb5b1462000367578063f27476e914620003b3578063fd3f384114620003bf57620000ac565b8063086a0a5e14620000b15780630a9254e414620000fd57806326d9a7de14620001215780635c966f1114620001b2578063735de9f71462000231575b600080fd5b620000bb620005da565b604051808273ffffffffffffffffffffffffffffffffffffffff1673ffffffffffffffffffffffffffffffffffffffff16815260200191505060405180910390f35b6200010762000600565b604051808215151515815260200191505060405180910390f35b62000170600480360360408110156200013957600080fd5b81019080803573ffffffffffffffffffffffffffffffffffffffff1690602001909291908035906020019092919050505062000613565b604051808273ffffffffffffffffffffffffffffffffffffffff1673ffffffffffffffffffffffffffffffffffffffff16815260200191505060405180910390f35b620001bc6200065f565b604051808373ffffffffffffffffffffffffffffffffffffffff1673ffffffffffffffffffffffffffffffffffffffff1681526020018273ffffffffffffffffffffffffffffffffffffffff1673ffffffffffffffffffffffffffffffffffffffff1681526020019250505060405180910390f35b6200023b620006b0565b604051808273ffffffffffffffffffffffffffffffffffffffff1673ffffffffffffffffffffffffffffffffffffffff16815260200191505060405180910390f35b62000287620006d5565b604051808273ffffffffffffffffffffffffffffffffffffffff1673ffffffffffffffffffffffffffffffffffffffff16815260200191505060405180910390f35b6200030e60048036036020811015620002e157600080fd5b81019080803573ffffffffffffffffffffffffffffffffffffffff169060200190929190505050620006fb565b6040518080602001828103825283818151815260200191508051906020019060200280838360005b838110156200035357808201518184015260208101905062000336565b505050509050019250505060405180910390f35b62000371620007ca565b604051808273ffffffffffffffffffffffffffffffffffffffff1673ffffffffffffffffffffffffffffffffffffffff16815260200191505060405180910390f35b620003bd620007f0565b005b620005986004803603610120811015620003d857600080fd5b8101908080606001906003806020026040519081016040528092919082600360200280828437600081840152601f19601f8201169050808301925050505050509192919290803590602001906401000000008111156200043757600080fd5b8201836020820111156200044a57600080fd5b803590602001918460018302840111640100000000831117156200046d57600080fd5b91908080601f016020809104026020016040519081016040528093929190818152602001838380828437600081840152601f19601f82011690508083019250505050505050919291929080359060200190640100000000811115620004d157600080fd5b820183602082011115620004e457600080fd5b803590602001918460018302840111640100000000831117156200050757600080fd5b91908080601f016020809104026020016040519081016040528093929190818152602001838380828437600081840152601f19601f820116905080830192505050505050509192919290803573ffffffffffffffffffffffffffffffffffffffff16906020019092919080359060200190929190803590602001909291908035906020019092919050505062000b60565b604051808273ffffffffffffffffffffffffffffffffffffffff1673ffffffffffffffffffffffffffffffffffffffff16815260200191505060405180910390f35b600160009054906101000a900473ffffffffffffffffffffffffffffffffffffffff1681565b600360149054906101000a900460ff1681565b600460205281600052604060002081815481106200062d57fe5b906000526020600020016000915091509054906101000a900473ffffffffffffffffffffffffffffffffffffffff1681565b600080600160009054906101000a900473ffffffffffffffffffffffffffffffffffffffff16600260009054906101000a900473ffffffffffffffffffffffffffffffffffffffff16915091509091565b6000809054906101000a900473ffffffffffffffffffffffffffffffffffffffff1681565b600260009054906101000a900473ffffffffffffffffffffffffffffffffffffffff1681565b6060600460003373ffffffffffffffffffffffffffffffffffffffff1673ffffffffffffffffffffffffffffffffffffffff168152602001908152602001600020805480602002602001604051908101604052809291908181526020018280548015620007be57602002820191906000526020600020905b8160009054906101000a900473ffffffffffffffffffffffffffffffffffffffff1673ffffffffffffffffffffffffffffffffffffffff168152602001906001019080831162000773575b50505050509050919050565b600360009054906101000a900473ffffffffffffffffffffffffffffffffffffffff1681565b600360009054906101000a900473ffffffffffffffffffffffffffffffffffffffff1673ffffffffffffffffffffffffffffffffffffffff163373ffffffffffffffffffffffffffffffffffffffff1614620008b4576040517f08c379a00000000000000000000000000000000000000000000000000000000081526004018080602001828103825260158152602001807f4f6e6c79206f776e65722063616e20616363657373000000000000000000000081525060200191505060405180910390fd5b600360149054906101000a900460ff161562000938576040517f08c379a000000000000000000000000000000000000000000000000000000000815260040180806020018281038252601f8152602001807f466163746f72792068617320616c7265616479206265656e207365742075700081525060200191505060405180910390fd5b604051620009469062000f54565b604051809103906000f08015801562000963573d6000803e3d6000fd5b50600160006101000a81548173ffffffffffffffffffffffffffffffffffffffff021916908373ffffffffffffffffffffffffffffffffffffffff1602179055506000809054906101000a900473ffffffffffffffffffffffffffffffffffffffff16604051620009d49062000f62565b808273ffffffffffffffffffffffffffffffffffffffff1673ffffffffffffffffffffffffffffffffffffffff168152602001915050604051809103906000f08015801562000a27573d6000803e3d6000fd5b50600260006101000a81548173ffffffffffffffffffffffffffffffffffffffff021916908373ffffffffffffffffffffffffffffffffffffffff1602179055507ff1505a0c4fbaadef567534c9ecf3b561953ae834fe1166878c9611b5fc05292a600160009054906101000a900473ffffffffffffffffffffffffffffffffffffffff16600260009054906101000a900473ffffffffffffffffffffffffffffffffffffffff16604051808373ffffffffffffffffffffffffffffffffffffffff1673ffffffffffffffffffffffffffffffffffffffff1681526020018273ffffffffffffffffffffffffffffffffffffffff1673ffffffffffffffffffffffffffffffffffffffff1681526020019250505060405180910390a16001600360146101000a81548160ff021916908315150217905550565b600080600160009054906101000a900473ffffffffffffffffffffffffffffffffffffffff16600260009054906101000a900473ffffffffffffffffffffffffffffffffffffffff168a8a8a8a8a8a8a60405162000bbe9062000f70565b808a73ffffffffffffffffffffffffffffffffffffffff1673ffffffffffffffffffffffffffffffffffffffff1681526020018973ffffffffffffffffffffffffffffffffffffffff1673ffffffffffffffffffffffffffffffffffffffff16815260200188600360200280838360005b8381101562000c4c57808201518184015260208101905062000c2f565b5050505090500180602001806020018773ffffffffffffffffffffffffffffffffffffffff1673ffffffffffffffffffffffffffffffffffffffff168152602001868152602001858152602001848152602001838103835289818151815260200191508051906020019080838360005b8381101562000cd957808201518184015260208101905062000cbc565b50505050905090810190601f16801562000d075780820380516001836020036101000a031916815260200191505b50838103825288818151815260200191508051906020019080838360005b8381101562000d4257808201518184015260208101905062000d25565b50505050905090810190601f16801562000d705780820380516001836020036101000a031916815260200191505b509b505050505050505050505050604051809103906000f08015801562000d9b573d6000803e3d6000fd5b509050600460003373ffffffffffffffffffffffffffffffffffffffff1673ffffffffffffffffffffffffffffffffffffffff168152602001908152602001600020819080600181540180825580915050600190039060005260206000200160009091909190916101000a81548173ffffffffffffffffffffffffffffffffffffffff021916908373ffffffffffffffffffffffffffffffffffffffff1602179055507fe41c586e8ad36474ffd6deb54f6a1913e145ab5427c06275eceb049d1dcc60c133828a604051808473ffffffffffffffffffffffffffffffffffffffff1673ffffffffffffffffffffffffffffffffffffffff1681526020018373ffffffffffffffffffffffffffffffffffffffff1673ffffffffffffffffffffffffffffffffffffffff16815260200180602001828103825283818151815260200191508051906020019080838360005b8381101562000f0857808201518184015260208101905062000eeb565b50505050905090810190601f16801562000f365780820380516001836020036101000a031916815260200191505b5094505050505060405180910390a180915050979650505050505050565b6104018062000f7f83390190565b61117d806200138083390190565b61310980620024fd8339019056fe608060405234801561001057600080fd5b506103e1806100206000396000f3fe608060405234801561001057600080fd5b50600436106100365760003560e01c806308d4db141461003b578063768713f51461007d575b600080fd5b6100676004803603602081101561005157600080fd5b81019080803590602001909291905050506100bf565b6040518082815260200191505060405180910390f35b6100a96004803603602081101561009357600080fd5b8101908080359060200190929190505050610235565b6040518082815260200191505060405180910390f35b6000803373ffffffffffffffffffffffffffffffffffffffff166318160ddd6040518163ffffffff1660e01b815260040160206040518083038186803b15801561010857600080fd5b505afa15801561011c573d6000803e3d6000fd5b505050506040513d602081101561013257600080fd5b810190808051906020019092919050505090506000838201905060008060003373ffffffffffffffffffffffffffffffffffffffff1663d73e8d426040518163ffffffff1660e01b815260040160606040518083038186803b15801561019757600080fd5b505afa1580156101ab573d6000803e3d6000fd5b505050506040513d60608110156101c157600080fd5b81019080805190602001909291908051906020019092919080519060200190929190505050809350819450829550505050600085850382026002870a6002870a036002858161020c57fe5b04026003880a6003880a036003878161022157fe5b040201019050809650505050505050919050565b6000803373ffffffffffffffffffffffffffffffffffffffff166318160ddd6040518163ffffffff1660e01b815260040160206040518083038186803b15801561027e57600080fd5b505afa158015610292573d6000803e3d6000fd5b505050506040513d60208110156102a857600080fd5b810190808051906020019092919050505090506000838203905060008060003373ffffffffffffffffffffffffffffffffffffffff1663d73e8d426040518163ffffffff1660e01b815260040160606040518083038186803b15801561030d57600080fd5b505afa158015610321573d6000803e3d6000fd5b505050506040513d606081101561033757600080fd5b81019080805190602001909291908051906020019092919080519060200190929190505050809350819450829550505050600084860382026002860a6002880a036002858161038257fe5b04026003870a6003890a036003878161039757fe5b04020101905080965050505050505091905056fea26469706673582212201790b9685b282732edf977dd8e73437d0fba73d73ed75b6e56ab6a67b291f1e164736f6c63430006060033608060405234801561001057600080fd5b5060405161117d38038061117d8339818101604052602081101561003357600080fd5b8101908080519060200190929190505050806000806101000a81548173ffffffffffffffffffffffffffffffffffffffff021916908373ffffffffffffffffffffffffffffffffffffffff160217905550506110e9806100946000396000f3fe608060405234801561001057600080fd5b50600436106100885760003560e01c8063b3d69b781161005b578063b3d69b78146101c1578063bd16a50714610203578063d54f7d5e14610221578063d7efbf341461026b57610088565b8063386e064e1461008d57806359326d81146100f3578063919840ad14610155578063985e361514610177575b600080fd5b6100cf600480360360208110156100a357600080fd5b81019080803573ffffffffffffffffffffffffffffffffffffffff169060200190929190505050610275565b60405180848152602001838152602001828152602001935050505060405180910390f35b61013f6004803603604081101561010957600080fd5b81019080803573ffffffffffffffffffffffffffffffffffffffff1690602001909291908035906020019092919050505061036e565b6040518082815260200191505060405180910390f35b61015d610393565b604051808215151515815260200191505060405180910390f35b61017f6103a6565b604051808273ffffffffffffffffffffffffffffffffffffffff1673ffffffffffffffffffffffffffffffffffffffff16815260200191505060405180910390f35b6101ed600480360360208110156101d757600080fd5b81019080803590602001909291905050506103cb565b6040518082815260200191505060405180910390f35b61020b6103e7565b6040518082815260200191505060405180910390f35b6102296106cb565b604051808273ffffffffffffffffffffffffffffffffffffffff1673ffffffffffffffffffffffffffffffffffffffff16815260200191505060405180910390f35b6102736106f4565b005b6000806000600160008573ffffffffffffffffffffffffffffffffffffffff1673ffffffffffffffffffffffffffffffffffffffff1681526020019081526020016000206000600381106102c557fe5b0154600160008673ffffffffffffffffffffffffffffffffffffffff1673ffffffffffffffffffffffffffffffffffffffff16815260200190815260200160002060016003811061031257fe5b0154600160008773ffffffffffffffffffffffffffffffffffffffff1673ffffffffffffffffffffffffffffffffffffffff16815260200190815260200160002060026003811061035f57fe5b01549250925092509193909250565b6001602052816000526040600020816003811061038757fe5b01600091509150505481565b600060149054906101000a900460ff1681565b6000809054906101000a900473ffffffffffffffffffffffffffffffffffffffff1681565b60006103e08242610d5a90919063ffffffff16565b9050919050565b60008033905060008173ffffffffffffffffffffffffffffffffffffffff16630ae6682060016040518263ffffffff1660e01b81526004018082815260200191505060206040518083038186803b15801561044157600080fd5b505afa158015610455573d6000803e3d6000fd5b505050506040513d602081101561046b57600080fd5b8101908080519060200190929190505050905060008273ffffffffffffffffffffffffffffffffffffffff1663a1b2ab286040518163ffffffff1660e01b815260040160206040518083038186803b1580156104c657600080fd5b505afa1580156104da573d6000803e3d6000fd5b505050506040513d60208110156104f057600080fd5b8101908080519060200190929190505050905060008173ffffffffffffffffffffffffffffffffffffffff166370a08231336040518263ffffffff1660e01b8152600401808273ffffffffffffffffffffffffffffffffffffffff1673ffffffffffffffffffffffffffffffffffffffff16815260200191505060206040518083038186803b15801561058257600080fd5b505afa158015610596573d6000803e3d6000fd5b505050506040513d60208110156105ac57600080fd5b8101908080519060200190929190505050905060008382816105ca57fe5b04905083600160003373ffffffffffffffffffffffffffffffffffffffff1673ffffffffffffffffffffffffffffffffffffffff16815260200190815260200160002060006003811061061957fe5b018190555080600160003373ffffffffffffffffffffffffffffffffffffffff1673ffffffffffffffffffffffffffffffffffffffff16815260200190815260200160002060016003811061066a57fe5b018190555081600160003373ffffffffffffffffffffffffffffffffffffffff1673ffffffffffffffffffffffffffffffffffffffff1681526020019081526020016000206002600381106106bb57fe5b0181905550809550505050505090565b60008060009054906101000a900473ffffffffffffffffffffffffffffffffffffffff16905090565b600033905060008173ffffffffffffffffffffffffffffffffffffffff1663a1b2ab286040518163ffffffff1660e01b815260040160206040518083038186803b15801561074157600080fd5b505afa158015610755573d6000803e3d6000fd5b505050506040513d602081101561076b57600080fd5b810190808051906020019092919050505090506000600160003373ffffffffffffffffffffffffffffffffffffffff1673ffffffffffffffffffffffffffffffffffffffff1681526020019081526020016000206000600381106107cb57fe5b015490506000600160003373ffffffffffffffffffffffffffffffffffffffff1673ffffffffffffffffffffffffffffffffffffffff16815260200190815260200160002060016003811061081c57fe5b015490506000600160003373ffffffffffffffffffffffffffffffffffffffff1673ffffffffffffffffffffffffffffffffffffffff16815260200190815260200160002060026003811061086d57fe5b015490508373ffffffffffffffffffffffffffffffffffffffff1663095ea7b36000809054906101000a900473ffffffffffffffffffffffffffffffffffffffff16836040518363ffffffff1660e01b8152600401808373ffffffffffffffffffffffffffffffffffffffff1673ffffffffffffffffffffffffffffffffffffffff16815260200182815260200192505050602060405180830381600087803b15801561091957600080fd5b505af115801561092d573d6000803e3d6000fd5b505050506040513d602081101561094357600080fd5b81019080805190602001909291905050506109c6576040517f08c379a000000000000000000000000000000000000000000000000000000000815260040180806020018281038252601d8152602001807f5472616e73666572206f6620636f6c6c61746572616c206661696c656400000081525060200191505060405180910390fd5b8473ffffffffffffffffffffffffffffffffffffffff1663095ea7b36000809054906101000a900473ffffffffffffffffffffffffffffffffffffffff16846040518363ffffffff1660e01b8152600401808373ffffffffffffffffffffffffffffffffffffffff1673ffffffffffffffffffffffffffffffffffffffff16815260200182815260200192505050602060405180830381600087803b158015610a6e57600080fd5b505af1158015610a82573d6000803e3d6000fd5b505050506040513d6020811015610a9857600080fd5b8101908080519060200190929190505050610b1b576040517f08c379a00000000000000000000000000000000000000000000000000000000081526004018080602001828103825260208152602001807f5472616e73666572206f66206d696e74656420746f6b656e73206661696c656481525060200191505060405180910390fd5b60008060008060009054906101000a900473ffffffffffffffffffffffffffffffffffffffff1673ffffffffffffffffffffffffffffffffffffffff1663e8e33700898988888a8a8f6103e842016040518963ffffffff1660e01b8152600401808973ffffffffffffffffffffffffffffffffffffffff1673ffffffffffffffffffffffffffffffffffffffff1681526020018873ffffffffffffffffffffffffffffffffffffffff1673ffffffffffffffffffffffffffffffffffffffff1681526020018781526020018681526020018581526020018481526020018373ffffffffffffffffffffffffffffffffffffffff1673ffffffffffffffffffffffffffffffffffffffff16815260200182815260200198505050505050505050606060405180830381600087803b158015610c5457600080fd5b505af1158015610c68573d6000803e3d6000fd5b505050506040513d6060811015610c7e57600080fd5b810190808051906020019092919080519060200190929190805190602001909291905050509250925092507f9aeb3aa662548c9122c5aba1e74f3863d6298b374a176bec6ad878f726db4d8083838360405180848152602001838152602001828152602001935050505060405180910390a15050503373ffffffffffffffffffffffffffffffffffffffff16634f921cf16040518163ffffffff1660e01b8152600401600060405180830381600087803b158015610d3b57600080fd5b505af1158015610d4f573d6000803e3d6000fd5b505050505050505050565b600080600080610d75620151808781610d6f57fe5b04610df9565b8093508194508295505050508482019150600c6001830381610d9357fe5b04830192506001600c6001840381610da757fe5b060191506000610db78484610ecd565b905080821115610dc5578091505b620151808781610dd157fe5b0662015180610de1868686610f58565b0201945086851015610def57fe5b5050505092915050565b600080600080849050600062253d8c62010bd98301019050600062023ab18260040281610e2257fe5b059050600460038262023ab1020181610e3757fe5b0582039150600062164b0960018401610fa00281610e5157fe5b059050601f6004826105b50281610e6457fe5b058403019250600061098f8460500281610e7a57fe5b059050600060508261098f0281610e8d57fe5b0585039050600b8281610e9c57fe5b05945084600c0260028301039150848360318603606402010192508298508197508096505050505050509193909250565b60006001821480610ede5750600382145b80610ee95750600582145b80610ef45750600782145b80610eff5750600882145b80610f0a5750600a82145b80610f155750600c82145b15610f2357601f9050610f52565b60028214610f3457601e9050610f51565b610f3d83611070565b610f4857601c610f4b565b601d5b60ff1690505b5b92915050565b60006107b2841015610fd2576040517f08c379a000000000000000000000000000000000000000000000000000000000815260040180806020018281038252600b8152602001807f45706f6368206572726f7200000000000000000000000000000000000000000081525060200191505060405180910390fd5b600084905060008490506000849050600062253d8c60046064600c600e870381610ff857fe5b056113248801018161100657fe5b056003028161101157fe5b05600c80600c600e88038161102257fe5b0502600287030361016f028161103457fe5b056004600c600e88038161104457fe5b056112c08901016105b5028161105657fe5b05617d4b8603010103039050809450505050509392505050565b6000806004838161107d57fe5b06148015611096575060006064838161109257fe5b0614155b806110ac5750600061019083816110a957fe5b06145b905091905056fea2646970667358221220f6c0100a5054c30f039a829616dd271440f8676ecc59dfa620330f27bfc70dff64736f6c6343000606003360806040523480156200001157600080fd5b50604051620031093803806200310983398181016040526101608110156200003857600080fd5b810190808051906020019092919080519060200190929190919082606001805160405193929190846401000000008211156200007357600080fd5b838201915060208201858111156200008a57600080fd5b8251866001820283011164010000000082111715620000a857600080fd5b8083526020830192505050908051906020019080838360005b83811015620000de578082015181840152602081019050620000c1565b50505050905090810190601f1680156200010c5780820380516001836020036101000a031916815260200191505b50604052602001805160405193929190846401000000008211156200013057600080fd5b838201915060208201858111156200014757600080fd5b82518660018202830111640100000000821117156200016557600080fd5b8083526020830192505050908051906020019080838360005b838110156200019b5780820151818401526020810190506200017e565b50505050905090810190601f168015620001c95780820380516001836020036101000a031916815260200191505b5060405260200180519060200190929190805190602001909291908051906020019092919080519060200190929190505050858581600390805190602001906200021592919062000381565b5080600490805190602001906200022e92919062000381565b506012600560006101000a81548160ff021916908360ff160217905550505088600960006101000a81548173ffffffffffffffffffffffffffffffffffffffff021916908373ffffffffffffffffffffffffffffffffffffffff16021790555087600b60006101000a81548173ffffffffffffffffffffffffffffffffffffffff021916908373ffffffffffffffffffffffffffffffffffffffff16021790555086600060038110620002dd57fe5b602002015160068190555086600160038110620002f657fe5b6020020151600781905550866002600381106200030f57fe5b602002015160088190555083600a60006101000a81548173ffffffffffffffffffffffffffffffffffffffff021916908373ffffffffffffffffffffffffffffffffffffffff16021790555082600c8190555081600d81905550804201600e8190555050505050505050505062000430565b828054600181600116156101000203166002900490600052602060002090601f016020900481019282601f10620003c457805160ff1916838001178555620003f5565b82800160010185558215620003f5579182015b82811115620003f4578251825591602001919060010190620003d7565b5b50905062000404919062000408565b5090565b6200042d91905b80821115620004295760008160009055506001016200040f565b5090565b90565b612cc980620004406000396000f3fe608060405234801561001057600080fd5b50600436106101e55760003560e01c806366692ff01161010f578063a2b63aa8116100a2578063d73e8d4211610071578063d73e8d42146108af578063d96a094a146108db578063dd62ed3e14610909578063e4849b3214610981576101e5565b8063a2b63aa81461077b578063a457c2d7146107c5578063a9059cbb1461082b578063c3da42b814610891576101e5565b80637edc9d4b116100de5780637edc9d4b1461065557806395d89b41146106825780639c74e7b814610705578063a1b2ab2814610731576101e5565b806366692ff01461057f57806370a082311461059d578063768713f5146105f5578063792ec7a414610637576101e5565b806339509351116101875780634c3ef6dc116101565780634c3ef6dc146105175780634df7e3d0146105355780634f921cf114610553578063647aa9961461055d576101e5565b806339509351146103fb5780633f1013761461046157806340fce0f914610483578063495ebdc6146104cd576101e5565b80630dbe671f116101c35780630dbe671f1461031557806318160ddd1461033357806323b872dd14610351578063313ce567146103d7576101e5565b806306fdde03146101ea578063095ea7b31461026d5780630ae66820146102d3575b600080fd5b6101f26109af565b6040518080602001828103825283818151815260200191508051906020019080838360005b83811015610232578082015181840152602081019050610217565b50505050905090810190601f16801561025f5780820380516001836020036101000a031916815260200191505b509250505060405180910390f35b6102b96004803603604081101561028357600080fd5b81019080803573ffffffffffffffffffffffffffffffffffffffff16906020019092919080359060200190929190505050610a51565b604051808215151515815260200191505060405180910390f35b6102ff600480360360208110156102e957600080fd5b8101908080359060200190929190505050610a6f565b6040518082815260200191505060405180910390f35b61031d610b26565b6040518082815260200191505060405180910390f35b61033b610b2c565b6040518082815260200191505060405180910390f35b6103bd6004803603606081101561036757600080fd5b81019080803573ffffffffffffffffffffffffffffffffffffffff169060200190929190803573ffffffffffffffffffffffffffffffffffffffff16906020019092919080359060200190929190505050610b36565b604051808215151515815260200191505060405180910390f35b6103df610c0f565b604051808260ff1660ff16815260200191505060405180910390f35b6104476004803603604081101561041157600080fd5b81019080803573ffffffffffffffffffffffffffffffffffffffff16906020019092919080359060200190929190505050610c26565b604051808215151515815260200191505060405180910390f35b610469610cd9565b604051808215151515815260200191505060405180910390f35b61048b610cec565b604051808273ffffffffffffffffffffffffffffffffffffffff1673ffffffffffffffffffffffffffffffffffffffff16815260200191505060405180910390f35b6104d5610d12565b604051808273ffffffffffffffffffffffffffffffffffffffff1673ffffffffffffffffffffffffffffffffffffffff16815260200191505060405180910390f35b61051f610d38565b6040518082815260200191505060405180910390f35b61053d610d3e565b6040518082815260200191505060405180910390f35b61055b610d44565b005b610565610e07565b604051808215151515815260200191505060405180910390f35b610587610e1a565b6040518082815260200191505060405180910390f35b6105df600480360360208110156105b357600080fd5b81019080803573ffffffffffffffffffffffffffffffffffffffff169060200190929190505050610e20565b6040518082815260200191505060405180910390f35b6106216004803603602081101561060b57600080fd5b8101908080359060200190929190505050610e68565b6040518082815260200191505060405180910390f35b61063f610fb1565b6040518082815260200191505060405180910390f35b61065d610fb7565b6040518083151515158152602001821515151581526020019250505060405180910390f35b61068a610fe2565b6040518080602001828103825283818151815260200191508051906020019080838360005b838110156106ca5780820151818401526020810190506106af565b50505050905090810190601f1680156106f75780820380516001836020036101000a031916815260200191505b509250505060405180910390f35b61070d611084565b60405180848152602001838152602001828152602001935050505060405180910390f35b61073961109d565b604051808273ffffffffffffffffffffffffffffffffffffffff1673ffffffffffffffffffffffffffffffffffffffff16815260200191505060405180910390f35b6107836110c7565b604051808273ffffffffffffffffffffffffffffffffffffffff1673ffffffffffffffffffffffffffffffffffffffff16815260200191505060405180910390f35b610811600480360360408110156107db57600080fd5b81019080803573ffffffffffffffffffffffffffffffffffffffff169060200190929190803590602001909291905050506110ed565b604051808215151515815260200191505060405180910390f35b6108776004803603604081101561084157600080fd5b81019080803573ffffffffffffffffffffffffffffffffffffffff169060200190929190803590602001909291905050506111ba565b604051808215151515815260200191505060405180910390f35b6108996111d8565b6040518082815260200191505060405180910390f35b6108b76111de565b60405180848152602001838152602001828152602001935050505060405180910390f35b610907600480360360208110156108f157600080fd5b81019080803590602001909291905050506111f7565b005b61096b6004803603604081101561091f57600080fd5b81019080803573ffffffffffffffffffffffffffffffffffffffff169060200190929190803573ffffffffffffffffffffffffffffffffffffffff1690602001909291905050506113b3565b6040518082815260200191505060405180910390f35b6109ad6004803603602081101561099757600080fd5b810190808035906020019092919050505061143a565b005b606060038054600181600116156101000203166002900480601f016020809104026020016040519081016040528092919081815260200182805460018160011615610100020316600290048015610a475780601f10610a1c57610100808354040283529160200191610a47565b820191906000526020600020905b815481529060010190602001808311610a2a57829003601f168201915b5050505050905090565b6000610a65610a5e61174f565b8484611757565b6001905092915050565b6000600960009054906101000a900473ffffffffffffffffffffffffffffffffffffffff1673ffffffffffffffffffffffffffffffffffffffff166308d4db14836040518263ffffffff1660e01b81526004018082815260200191505060206040518083038186803b158015610ae457600080fd5b505afa158015610af8573d6000803e3d6000fd5b505050506040513d6020811015610b0e57600080fd5b81019080805190602001909291905050509050919050565b60065481565b6000600254905090565b6000610b4384848461194e565b610c0484610b4f61174f565b610bff85604051806060016040528060288152602001612b6060289139600160008b73ffffffffffffffffffffffffffffffffffffffff1673ffffffffffffffffffffffffffffffffffffffff1681526020019081526020016000206000610bb561174f565b73ffffffffffffffffffffffffffffffffffffffff1673ffffffffffffffffffffffffffffffffffffffff16815260200190815260200160002054611c0f9092919063ffffffff16565b611757565b600190509392505050565b6000600560009054906101000a900460ff16905090565b6000610ccf610c3361174f565b84610cca8560016000610c4461174f565b73ffffffffffffffffffffffffffffffffffffffff1673ffffffffffffffffffffffffffffffffffffffff16815260200190815260200160002060008973ffffffffffffffffffffffffffffffffffffffff1673ffffffffffffffffffffffffffffffffffffffff16815260200190815260200160002054611ccf90919063ffffffff16565b611757565b6001905092915050565b600b60159054906101000a900460ff1681565b600960009054906101000a900473ffffffffffffffffffffffffffffffffffffffff1681565b600a60009054906101000a900473ffffffffffffffffffffffffffffffffffffffff1681565b600d5481565b60075481565b600b60009054906101000a900473ffffffffffffffffffffffffffffffffffffffff1673ffffffffffffffffffffffffffffffffffffffff163373ffffffffffffffffffffffffffffffffffffffff1614610dea576040517f08c379a0000000000000000000000000000000000000000000000000000000008152600401808060200182810382526039815260200180612c146039913960400191505060405180910390fd5b6001600b60156101000a81548160ff021916908315150217905550565b600b60149054906101000a900460ff1681565b600c5481565b60008060008373ffffffffffffffffffffffffffffffffffffffff1673ffffffffffffffffffffffffffffffffffffffff168152602001908152602001600020549050919050565b6000803073ffffffffffffffffffffffffffffffffffffffff166318160ddd6040518163ffffffff1660e01b815260040160206040518083038186803b158015610eb157600080fd5b505afa158015610ec5573d6000803e3d6000fd5b505050506040513d6020811015610edb57600080fd5b81019080805190602001909291905050501415610efb5760009050610fac565b600960009054906101000a900473ffffffffffffffffffffffffffffffffffffffff1673ffffffffffffffffffffffffffffffffffffffff1663768713f5836040518263ffffffff1660e01b81526004018082815260200191505060206040518083038186803b158015610f6e57600080fd5b505afa158015610f82573d6000803e3d6000fd5b505050506040513d6020811015610f9857600080fd5b810190808051906020019092919050505090505b919050565b600e5481565b600080600b60149054906101000a900460ff16600b60159054906101000a900460ff16915091509091565b606060048054600181600116156101000203166002900480601f01602080910402602001604051908101604052809291908181526020018280546001816001161561010002031660029004801561107a5780601f1061104f5761010080835404028352916020019161107a565b820191906000526020600020905b81548152906001019060200180831161105d57829003601f168201915b5050505050905090565b6000806000600c54600d54600e54925092509250909192565b6000600a60009054906101000a900473ffffffffffffffffffffffffffffffffffffffff16905090565b600b60009054906101000a900473ffffffffffffffffffffffffffffffffffffffff1681565b60006111b06110fa61174f565b846111ab85604051806060016040528060258152602001612c6f602591396001600061112461174f565b73ffffffffffffffffffffffffffffffffffffffff1673ffffffffffffffffffffffffffffffffffffffff16815260200190815260200160002060008a73ffffffffffffffffffffffffffffffffffffffff1673ffffffffffffffffffffffffffffffffffffffff16815260200190815260200160002054611c0f9092919063ffffffff16565b611757565b6001905092915050565b60006111ce6111c761174f565b848461194e565b6001905092915050565b60085481565b6000806000600654600754600854925092509250909192565b600b60159054906101000a900460ff161561125d576040517f08c379a0000000000000000000000000000000000000000000000000000000008152600401808060200182810382526022815260200180612c4d6022913960400191505060405180910390fd5b611268600182611d57565b600b60149054906101000a900460ff16156113a657600c54813073ffffffffffffffffffffffffffffffffffffffff166318160ddd6040518163ffffffff1660e01b815260040160206040518083038186803b1580156112c757600080fd5b505afa1580156112db573d6000803e3d6000fd5b505050506040513d60208110156112f157600080fd5b81019080805190602001909291905050500110611399573073ffffffffffffffffffffffffffffffffffffffff166318160ddd6040518163ffffffff1660e01b815260040160206040518083038186803b15801561134e57600080fd5b505afa158015611362573d6000803e3d6000fd5b505050506040513d602081101561137857600080fd5b8101908080519060200190929190505050600c5403905061139881611ec8565b5b6113a16121d3565b6113b0565b6113af81611ec8565b5b50565b6000600160008473ffffffffffffffffffffffffffffffffffffffff1673ffffffffffffffffffffffffffffffffffffffff16815260200190815260200160002060008373ffffffffffffffffffffffffffffffffffffffff1673ffffffffffffffffffffffffffffffffffffffff16815260200190815260200160002054905092915050565b600b60159054906101000a900460ff16156114a0576040517f08c379a0000000000000000000000000000000000000000000000000000000008152600401808060200182810382526022815260200180612c4d6022913960400191505060405180910390fd5b6114ab600082611d57565b600b60149054906101000a900460ff16156114cd576114c86121d3565b61174c565b60006114d882610e68565b9050813073ffffffffffffffffffffffffffffffffffffffff166370a08231336040518263ffffffff1660e01b8152600401808273ffffffffffffffffffffffffffffffffffffffff1673ffffffffffffffffffffffffffffffffffffffff16815260200191505060206040518083038186803b15801561155857600080fd5b505afa15801561156c573d6000803e3d6000fd5b505050506040513d602081101561158257600080fd5b810190808051906020019092919050505010156115ea576040517f08c379a0000000000000000000000000000000000000000000000000000000008152600401808060200182810382526022815260200180612bf26022913960400191505060405180910390fd5b600a60009054906101000a900473ffffffffffffffffffffffffffffffffffffffff1673ffffffffffffffffffffffffffffffffffffffff1663a9059cbb33836040518363ffffffff1660e01b8152600401808373ffffffffffffffffffffffffffffffffffffffff1673ffffffffffffffffffffffffffffffffffffffff16815260200182815260200192505050602060405180830381600087803b15801561169357600080fd5b505af11580156116a7573d6000803e3d6000fd5b505050506040513d60208110156116bd57600080fd5b8101908080519060200190929190505050611740576040517f08c379a00000000000000000000000000000000000000000000000000000000081526004018080602001828103825260208152602001807f5472616e73666572696e67206f6620636f6c6c61746572616c206661696c656481525060200191505060405180910390fd5b61174a338361268b565b505b50565b600033905090565b600073ffffffffffffffffffffffffffffffffffffffff168373ffffffffffffffffffffffffffffffffffffffff1614156117dd576040517f08c379a0000000000000000000000000000000000000000000000000000000008152600401808060200182810382526024815260200180612bce6024913960400191505060405180910390fd5b600073ffffffffffffffffffffffffffffffffffffffff168273ffffffffffffffffffffffffffffffffffffffff161415611863576040517f08c379a0000000000000000000000000000000000000000000000000000000008152600401808060200182810382526022815260200180612aab6022913960400191505060405180910390fd5b80600160008573ffffffffffffffffffffffffffffffffffffffff1673ffffffffffffffffffffffffffffffffffffffff16815260200190815260200160002060008473ffffffffffffffffffffffffffffffffffffffff1673ffffffffffffffffffffffffffffffffffffffff168152602001908152602001600020819055508173ffffffffffffffffffffffffffffffffffffffff168373ffffffffffffffffffffffffffffffffffffffff167f8c5be1e5ebec7d5bd14f71427d1e84f3dd0314c0f7b2291e5b200ac8c7c3b925836040518082815260200191505060405180910390a3505050565b600073ffffffffffffffffffffffffffffffffffffffff168373ffffffffffffffffffffffffffffffffffffffff1614156119d4576040517f08c379a0000000000000000000000000000000000000000000000000000000008152600401808060200182810382526025815260200180612ba96025913960400191505060405180910390fd5b600073ffffffffffffffffffffffffffffffffffffffff168273ffffffffffffffffffffffffffffffffffffffff161415611a5a576040517f08c379a0000000000000000000000000000000000000000000000000000000008152600401808060200182810382526023815260200180612a666023913960400191505060405180910390fd5b611a6583838361284f565b611ad081604051806060016040528060268152602001612b3a602691396000808773ffffffffffffffffffffffffffffffffffffffff1673ffffffffffffffffffffffffffffffffffffffff16815260200190815260200160002054611c0f9092919063ffffffff16565b6000808573ffffffffffffffffffffffffffffffffffffffff1673ffffffffffffffffffffffffffffffffffffffff16815260200190815260200160002081905550611b63816000808573ffffffffffffffffffffffffffffffffffffffff1673ffffffffffffffffffffffffffffffffffffffff16815260200190815260200160002054611ccf90919063ffffffff16565b6000808473ffffffffffffffffffffffffffffffffffffffff1673ffffffffffffffffffffffffffffffffffffffff168152602001908152602001600020819055508173ffffffffffffffffffffffffffffffffffffffff168373ffffffffffffffffffffffffffffffffffffffff167fddf252ad1be2c89b69c2b068fc378daa952ba7f163c4a11628f55a4df523b3ef836040518082815260200191505060405180910390a3505050565b6000838311158290611cbc576040517f08c379a00000000000000000000000000000000000000000000000000000000081526004018080602001828103825283818151815260200191508051906020019080838360005b83811015611c81578082015181840152602081019050611c66565b50505050905090810190601f168015611cae5780820380516001836020036101000a031916815260200191505b509250505060405180910390fd5b5060008385039050809150509392505050565b600080828401905083811015611d4d576040517f08c379a000000000000000000000000000000000000000000000000000000000815260040180806020018281038252601b8152602001807f536166654d6174683a206164646974696f6e206f766572666c6f77000000000081525060200191505060405180910390fd5b8091505092915050565b60008215611e0e57813073ffffffffffffffffffffffffffffffffffffffff166318160ddd6040518163ffffffff1660e01b815260040160206040518083038186803b158015611da657600080fd5b505afa158015611dba573d6000803e3d6000fd5b505050506040513d6020811015611dd057600080fd5b8101908080519060200190929190505050019050600c548110611e09576001600b60146101000a81548160ff0219169083151502179055505b611e94565b813073ffffffffffffffffffffffffffffffffffffffff166318160ddd6040518163ffffffff1660e01b815260040160206040518083038186803b158015611e5557600080fd5b505afa158015611e69573d6000803e3d6000fd5b505050506040513d6020811015611e7f57600080fd5b81019080805190602001909291905050500390505b600e544210611ec357600d548110611ec2576001600b60146101000a81548160ff0219169083151502179055505b5b505050565b6000611ed382610a6f565b905080600a60009054906101000a900473ffffffffffffffffffffffffffffffffffffffff1673ffffffffffffffffffffffffffffffffffffffff1663dd62ed3e33306040518363ffffffff1660e01b8152600401808373ffffffffffffffffffffffffffffffffffffffff1673ffffffffffffffffffffffffffffffffffffffff1681526020018273ffffffffffffffffffffffffffffffffffffffff1673ffffffffffffffffffffffffffffffffffffffff1681526020019250505060206040518083038186803b158015611fa957600080fd5b505afa158015611fbd573d6000803e3d6000fd5b505050506040513d6020811015611fd357600080fd5b8101908080519060200190929190505050101561203b576040517f08c379a0000000000000000000000000000000000000000000000000000000008152600401808060200182810382526034815260200180612acd6034913960400191505060405180910390fd5b600a60009054906101000a900473ffffffffffffffffffffffffffffffffffffffff1673ffffffffffffffffffffffffffffffffffffffff166323b872dd3330846040518463ffffffff1660e01b8152600401808473ffffffffffffffffffffffffffffffffffffffff1673ffffffffffffffffffffffffffffffffffffffff1681526020018373ffffffffffffffffffffffffffffffffffffffff1673ffffffffffffffffffffffffffffffffffffffff1681526020018281526020019350505050602060405180830381600087803b15801561211857600080fd5b505af115801561212c573d6000803e3d6000fd5b505050506040513d602081101561214257600080fd5b81019080805190602001909291905050506121c5576040517f08c379a00000000000000000000000000000000000000000000000000000000081526004018080602001828103825260208152602001807f5472616e73666572696e67206f6620636f6c6c61746572616c206661696c656481525060200191505060405180910390fd5b6121cf3383612854565b5050565b600b60149054906101000a900460ff16612238576040517f08c379a0000000000000000000000000000000000000000000000000000000008152600401808060200182810382526039815260200180612b016039913960400191505060405180910390fd5b6000600b60009054906101000a900473ffffffffffffffffffffffffffffffffffffffff1673ffffffffffffffffffffffffffffffffffffffff1663d54f7d5e6040518163ffffffff1660e01b815260040160206040518083038186803b1580156122a257600080fd5b505afa1580156122b6573d6000803e3d6000fd5b505050506040513d60208110156122cc57600080fd5b810190808051906020019092919050505090506000600b60009054906101000a900473ffffffffffffffffffffffffffffffffffffffff1673ffffffffffffffffffffffffffffffffffffffff1663bd16a5076040518163ffffffff1660e01b8152600401602060405180830381600087803b15801561234b57600080fd5b505af115801561235f573d6000803e3d6000fd5b505050506040513d602081101561237557600080fd5b810190808051906020019092919050505090506123b4600b60009054906101000a900473ffffffffffffffffffffffffffffffffffffffff1682612854565b600a60009054906101000a900473ffffffffffffffffffffffffffffffffffffffff1673ffffffffffffffffffffffffffffffffffffffff1663a9059cbb600b60009054906101000a900473ffffffffffffffffffffffffffffffffffffffff16600a60009054906101000a900473ffffffffffffffffffffffffffffffffffffffff1673ffffffffffffffffffffffffffffffffffffffff166370a08231306040518263ffffffff1660e01b8152600401808273ffffffffffffffffffffffffffffffffffffffff1673ffffffffffffffffffffffffffffffffffffffff16815260200191505060206040518083038186803b1580156124b457600080fd5b505afa1580156124c8573d6000803e3d6000fd5b505050506040513d60208110156124de57600080fd5b81019080805190602001909291905050506040518363ffffffff1660e01b8152600401808373ffffffffffffffffffffffffffffffffffffffff1673ffffffffffffffffffffffffffffffffffffffff16815260200182815260200192505050602060405180830381600087803b15801561255857600080fd5b505af115801561256c573d6000803e3d6000fd5b505050506040513d602081101561258257600080fd5b8101908080519060200190929190505050612605576040517f08c379a000000000000000000000000000000000000000000000000000000000815260040180806020018281038252601d8152602001807f5472616e73666572206f6620636f6c6c61746572616c206661696c656400000081525060200191505060405180910390fd5b600b60009054906101000a900473ffffffffffffffffffffffffffffffffffffffff1673ffffffffffffffffffffffffffffffffffffffff1663d7efbf346040518163ffffffff1660e01b8152600401600060405180830381600087803b15801561266f57600080fd5b505af1158015612683573d6000803e3d6000fd5b505050505050565b600073ffffffffffffffffffffffffffffffffffffffff168273ffffffffffffffffffffffffffffffffffffffff161415612711576040517f08c379a0000000000000000000000000000000000000000000000000000000008152600401808060200182810382526021815260200180612b886021913960400191505060405180910390fd5b61271d8260008361284f565b61278881604051806060016040528060228152602001612a89602291396000808673ffffffffffffffffffffffffffffffffffffffff1673ffffffffffffffffffffffffffffffffffffffff16815260200190815260200160002054611c0f9092919063ffffffff16565b6000808473ffffffffffffffffffffffffffffffffffffffff1673ffffffffffffffffffffffffffffffffffffffff168152602001908152602001600020819055506127df81600254612a1b90919063ffffffff16565b600281905550600073ffffffffffffffffffffffffffffffffffffffff168273ffffffffffffffffffffffffffffffffffffffff167fddf252ad1be2c89b69c2b068fc378daa952ba7f163c4a11628f55a4df523b3ef836040518082815260200191505060405180910390a35050565b505050565b600073ffffffffffffffffffffffffffffffffffffffff168273ffffffffffffffffffffffffffffffffffffffff1614156128f7576040517f08c379a000000000000000000000000000000000000000000000000000000000815260040180806020018281038252601f8152602001807f45524332303a206d696e7420746f20746865207a65726f20616464726573730081525060200191505060405180910390fd5b6129036000838361284f565b61291881600254611ccf90919063ffffffff16565b60028190555061296f816000808573ffffffffffffffffffffffffffffffffffffffff1673ffffffffffffffffffffffffffffffffffffffff16815260200190815260200160002054611ccf90919063ffffffff16565b6000808473ffffffffffffffffffffffffffffffffffffffff1673ffffffffffffffffffffffffffffffffffffffff168152602001908152602001600020819055508173ffffffffffffffffffffffffffffffffffffffff16600073ffffffffffffffffffffffffffffffffffffffff167fddf252ad1be2c89b69c2b068fc378daa952ba7f163c4a11628f55a4df523b3ef836040518082815260200191505060405180910390a35050565b6000612a5d83836040518060400160405280601e81526020017f536166654d6174683a207375627472616374696f6e206f766572666c6f770000815250611c0f565b90509291505056fe45524332303a207472616e7366657220746f20746865207a65726f206164647265737345524332303a206275726e20616d6f756e7420657863656564732062616c616e636545524332303a20617070726f766520746f20746865207a65726f20616464726573735573657220686173206e6f7420617070726f76656420636f6e747261637420666f7220746f6b656e20636f737420616d6f756e74546f6b656e20686173206e6f74206d657420726571756972656d656e747320666f722066726565206d61726b6574207472616e736974696f6e45524332303a207472616e7366657220616d6f756e7420657863656564732062616c616e636545524332303a207472616e7366657220616d6f756e74206578636565647320616c6c6f77616e636545524332303a206275726e2066726f6d20746865207a65726f206164647265737345524332303a207472616e736665722066726f6d20746865207a65726f206164647265737345524332303a20617070726f76652066726f6d20746865207a65726f206164647265737343616e6e6f742073656c6c206d6f726520746f6b656e73207468616e206f776e65644f6e6c79207472616e736974696f6e696e6720636f6e7472616374206d6179206d61726b207472616e736974696f6e20636f6d706c656174654d61726b657420686173207472616e736974696f6e656420746f20756e697377617045524332303a2064656372656173656420616c6c6f77616e63652062656c6f77207a65726fa264697066735822122090cfe16e4ba2cdd8665c4ffd620a374f632c69213939af97fd74e2f5114374ef64736f6c63430006060033a2646970667358221220bc4f5c8f8db9cbcd1aa1e434424ec5be19a64042b7d6407e9dae52d8eba89f6964736f6c63430006060033",
  "source": "pragma solidity 0.6.6;\n\nimport \"./Token.sol\";\nimport \"./Curve.sol\";\nimport \"./MarketTransition.sol\";\nimport \"./IUniswapV2Router01.sol\";\n\n/**\n  * @author Veronica Coutts @vonnie610 (twitter) @VeronicaLC (GitLab) \n  * @title  Bonding Curve Factory\n  * @notice This curve contract enables an IBCO (Initial Bonding Curve Offering)\n  *         as a mechanism to launch a token into the open market without having\n  *         to raise the funds in a traditional manner.\n  *         This product is a beta. Use at your own risk.\n  */\ncontract BondingCurveFactory {\n    IUniswapV2Router01 public uniswapRouter;\n    Curve public activeCurve;\n    MarketTransition public activeMarketTransition;\n\n    address public owner;\n    bool public setUp;\n    mapping(address => address[]) public deployedMarkets;\n\n    event factorySetUp(address curve, address market);\n    event marketCreated(address owner, address token, string name);\n\n    modifier onlyOnwer() {\n        require(msg.sender == owner, \"Only owner can access\");\n        _;\n    }\n\n    /**\n      * @param  _uniswapRouter: The address of the uniswap contract on the\n      *         network this contract is deployed on. \n      */\n    constructor(address _uniswapRouter) public {\n        uniswapRouter = IUniswapV2Router01(_uniswapRouter);\n        owner = msg.sender;\n    }\n\n    /**\n      * @notice Sets up the needed contracts for the factory. \n      */\n    function setUpFactory() public onlyOnwer() {\n        require(\n            !setUp,\n            \"Factory has already been set up\"\n        );\n\n        activeCurve = new Curve();\n        activeMarketTransition = new MarketTransition(address(uniswapRouter));\n\n        emit factorySetUp(\n            address(activeCurve),\n            address(activeMarketTransition)\n        );\n\n        setUp = true;\n    }\n\n    /**\n      * @return address: The address of the curve being used in this factory\n      *         and all deployed tokens from this factory. \n      * @return address: The address of the market transition contract being\n      *         used by this factory and all tokens deployed from this factory.\n      */\n    function getFactorySetUp() public view returns(address, address) {\n        return (\n            address(activeCurve),\n            address(activeMarketTransition)\n        );\n    }\n    \n    /**\n      * @param  _curveParameters: The curve \"settings\" that will be used in the \n      *         curve instance in order to determine the prices of the token. \n      *         For more information please see the curve contract docs. \n      * @param  _name: The name of the token.\n      * @param  _symbol: The symbol for the token.\n      * @param  _underlyingCollateral: The addresss of the underlying collateral\n      *         for the tokens. I.e the currency for the price of the token. \n      *         Recomended to use a stable coin such as DAI to ensure a stable\n      *         price for your token. \n      * @param  _tokenThreshold: The transition threshold for the token in \n      *         tokens. As the value of the tokens is determanistic (with the \n      *         bonding curve enforcing a price) the threshold for when the \n      *         token can move to the free market can be expressed in tokens.\n      * @param  _minimumTokenThreshold: This minimum token threshold is a safty\n      *         catch for it the threshold is not met before expiry, this min\n      *         threshold can still force the market into uniswap. If you only\n      *         want to move acress at your threshold, simply set this vaule \n      *         to be the same as the threshold. \n      * @param  _thresholdTimeout: Once this timeout is reached the curve will \n      *         check against the min threshold for transition. When this \n      *         timeout is reached, the curve will operate as normal.\n      * @return address: The address of the new token.\n      */\n    function createMarket(\n        uint256[3] memory _curveParameters,\n        string memory _name,\n        string memory _symbol,\n        address _underlyingCollateral,\n        uint256 _tokenThreshold,\n        uint256 _minimumTokenThreshold,\n        uint256 _thresholdTimeout\n    ) \n        public\n        returns(address)\n    {\n        Token newToken = new Token(\n            address(activeCurve),\n            address(activeMarketTransition),\n            _curveParameters,\n            _name,\n            _symbol,\n            _underlyingCollateral,\n            _tokenThreshold,\n            _minimumTokenThreshold,\n            _thresholdTimeout\n        );\n\n        deployedMarkets[msg.sender].push(address(newToken));\n\n        emit marketCreated(msg.sender, address(newToken), _name);\n\n        return address(newToken);\n    }\n\n    /**\n      * @param  _user: The address of the user\n      * @return address[]: The addresses of any markets the user has deployed\n      *         through this factory.\n      */\n    function getDeployedMarkets(\n        address _user\n    ) \n        public \n        view \n        returns(address[] memory) \n    {\n        return deployedMarkets[msg.sender];\n    }\n}",
  "sourcePath": "/Users/veronicac/Desktop/projects/linumlabs/BondingCurveFactory/contracts/BondingCurveFactory.sol",
  "compiler": {
    "name": "solc",
    "version": "0.6.6+commit.6c089d02.Emscripten.clang",
    "optimizer": false,
    "runs": 200
  },
  "schemaVersion": "2.3.3",
  "updatedAt": "2020-05-22T14:34:44.208Z"
}