{
  "contractName": "Curve",
  "abi": [
    {
      "inputs": [
        {
          "internalType": "uint256",
          "name": "_tokens",
          "type": "uint256"
        }
      ],
      "name": "getBuyPrice",
      "outputs": [
        {
          "internalType": "uint256",
          "name": "",
          "type": "uint256"
        }
      ],
      "stateMutability": "view",
      "type": "function"
    },
    {
      "inputs": [
        {
          "internalType": "uint256",
          "name": "_tokens",
          "type": "uint256"
        }
      ],
      "name": "getSellAmount",
      "outputs": [
        {
          "internalType": "uint256",
          "name": "",
          "type": "uint256"
        }
      ],
      "stateMutability": "view",
      "type": "function"
    }
  ],
  "bytecode": "0x608060405234801561001057600080fd5b50610803806100206000396000f3fe608060405234801561001057600080fd5b50600436106100365760003560e01c806308d4db141461003b578063768713f51461007d575b600080fd5b6100676004803603602081101561005157600080fd5b81019080803590602001909291905050506100bf565b6040518082815260200191505060405180910390f35b6100a96004803603602081101561009357600080fd5b81019080803590602001909291905050506102fd565b6040518082815260200191505060405180910390f35b6000803373ffffffffffffffffffffffffffffffffffffffff166318160ddd6040518163ffffffff1660e01b815260040160206040518083038186803b15801561010857600080fd5b505afa15801561011c573d6000803e3d6000fd5b505050506040513d602081101561013257600080fd5b81019080805190602001909291905050509050600061015a848361048490919063ffffffff16565b905060008060003373ffffffffffffffffffffffffffffffffffffffff1663d73e8d426040518163ffffffff1660e01b815260040160606040518083038186803b1580156101a757600080fd5b505afa1580156101bb573d6000803e3d6000fd5b505050506040513d60608110156101d157600080fd5b8101908080519060200190929190805190602001909291908051906020019092919050505080935081945082955050505060008090506000841461026a57610267670de0b6b3a764000061025961023760038a0a60038a0a61050c90919063ffffffff16565b61024b60038961055690919063ffffffff16565b6105a090919063ffffffff16565b61055690919063ffffffff16565b90505b6000610291610282888861050c90919063ffffffff16565b846105a090919063ffffffff16565b6102cf6102ad60028a0a60028a0a61050c90919063ffffffff16565b6102c160028861055690919063ffffffff16565b6105a090919063ffffffff16565b83010190506102ef670de0b6b3a76400008261055690919063ffffffff16565b975050505050505050919050565b6000803373ffffffffffffffffffffffffffffffffffffffff166318160ddd6040518163ffffffff1660e01b815260040160206040518083038186803b15801561034657600080fd5b505afa15801561035a573d6000803e3d6000fd5b505050506040513d602081101561037057600080fd5b810190808051906020019092919050505090506000838203905060008060003373ffffffffffffffffffffffffffffffffffffffff1663d73e8d426040518163ffffffff1660e01b815260040160606040518083038186803b1580156103d557600080fd5b505afa1580156103e9573d6000803e3d6000fd5b505050506040513d60608110156103ff57600080fd5b81019080805190602001909291908051906020019092919080519060200190929190505050809350819450829550505050600084860382026002860a6002880a036002858161044a57fe5b04026003870a6003890a036003878161045f57fe5b040201019050670de0b6b3a7640000818161047657fe5b049650505050505050919050565b600080828401905083811015610502576040517f08c379a000000000000000000000000000000000000000000000000000000000815260040180806020018281038252601b8152602001807f536166654d6174683a206164646974696f6e206f766572666c6f77000000000081525060200191505060405180910390fd5b8091505092915050565b600061054e83836040518060400160405280601e81526020017f536166654d6174683a207375627472616374696f6e206f766572666c6f770000815250610626565b905092915050565b600061059883836040518060400160405280601a81526020017f536166654d6174683a206469766973696f6e206279207a65726f0000000000008152506106e6565b905092915050565b6000808314156105b35760009050610620565b60008284029050828482816105c457fe5b041461061b576040517f08c379a00000000000000000000000000000000000000000000000000000000081526004018080602001828103825260218152602001806107ad6021913960400191505060405180910390fd5b809150505b92915050565b60008383111582906106d3576040517f08c379a00000000000000000000000000000000000000000000000000000000081526004018080602001828103825283818151815260200191508051906020019080838360005b8381101561069857808201518184015260208101905061067d565b50505050905090810190601f1680156106c55780820380516001836020036101000a031916815260200191505b509250505060405180910390fd5b5060008385039050809150509392505050565b60008083118290610792576040517f08c379a00000000000000000000000000000000000000000000000000000000081526004018080602001828103825283818151815260200191508051906020019080838360005b8381101561075757808201518184015260208101905061073c565b50505050905090810190601f1680156107845780820380516001836020036101000a031916815260200191505b509250505060405180910390fd5b50600083858161079e57fe5b04905080915050939250505056fe536166654d6174683a206d756c7469706c69636174696f6e206f766572666c6f77a26469706673582212209d1dde7e2ed94ff3c7901e39c8c2884ef08dfae95b56b54d29b6c499fec34d8164736f6c63430006060033",
  "source": "pragma solidity 0.6.6;\n\nimport \"./I_Curve.sol\";\nimport \"./I_Token.sol\";\nimport \"../node_modules/openzeppelin-solidity/contracts/math/SafeMath.sol\";\n\n//TODO update to use safe maths\n\n/**\n  * @author Veronica Coutts @vonnie610 (twitter) @VeronicaLC (GitLab) \n  * @title  Curve\n  * @notice This curve contract enables an IBCO (Initial Bonding Curve Offering)\n  *         as a mechanism to launch a token into the open market without having\n  *         to raise the funds in a traditional manner.\n  *         This product is a beta. Use at your own risk.\n  */\ncontract Curve is I_Curve {\n  \tusing SafeMath for uint256;\n    /**\n      * This curve uses the following formula:\n      * a/3(x_1^3 - x_0^3) + b/2(x_1^2 - x_0^2) + c(x_1 - x_0)\n      * The vaiables (a, b & c) are pulled from the token (msg.sender).\n      * x_1 and x_0 are the supply and the supply +/- the amount of tokens being\n      * bought and sold. \n      */\n\n    /**\n      * @param  _tokens: The number of tokens being bought.\n      * @return uint256: The cost price of the number of tokens in collateral.\n      */\n    function getBuyPrice(\n        uint256 _tokens\n    )\n        override(I_Curve)\n        public\n        view\n        returns(uint256)\n    {\n        uint256 supply = I_Token(msg.sender).totalSupply();\n        uint256 newSupply = supply.add(_tokens);\n\n        uint256 a;\n        uint256 b;\n        uint256 c;\n        (a, b, c) = I_Token(msg.sender).getCurve();\n\n\t\tuint aPrice = 0;\n\n\t\tif(a != 0) {\n\t\t\taPrice = ((a.div(3)).mul((newSupply**3).sub(supply**3))).div(1e18);\n\t\t}\n        \n        uint256 price = aPrice + (b.div(2)).mul(\n\t\t\t(newSupply**2).sub(supply**2)\n\t\t) + c.mul(\n\t\t\tnewSupply.sub(supply)\n\t\t);\n\n        return price.div(1e18);\n    }\n\n    /**\n      * @param  _tokens: The number of tokens being sold.\n      * @return uint256: The sell price of the number of tokens in collateral.\n      */\n    function getSellAmount(\n        uint256 _tokens\n    )\n        override(I_Curve)\n        public\n        view\n        returns(uint256) \n    {\n        uint256 supply = I_Token(msg.sender).totalSupply();\n        uint256 newSupply = supply - _tokens;\n\n        uint256 a;\n        uint256 b;\n        uint256 c;\n        (a, b, c) = I_Token(msg.sender).getCurve();\n        \n        uint256 price = (a/3)*(supply**3 - newSupply**3) \n                        + (b/2)*(supply**2 - newSupply**2) \n                        + c*(supply - newSupply);\n\n        return price/1e18;\n    }\n}",
  "sourcePath": "/Users/veronicac/Desktop/projects/linumlabs/BondingCurveFactory/contracts/Curve.sol",
  "compiler": {
    "name": "solc",
    "version": "0.6.6+commit.6c089d02.Emscripten.clang",
    "optimizer": false,
    "runs": 200
  },
  "schemaVersion": "2.3.3",
  "updatedAt": "2020-05-24T11:18:56.005Z"
}