{
  "contractName": "CurveLibraryRegistry",
  "abi": [
    {
      "inputs": [
        {
          "internalType": "address",
          "name": "_factory",
          "type": "address"
        }
      ],
      "stateMutability": "nonpayable",
      "type": "constructor"
    },
    {
      "inputs": [
        {
          "internalType": "uint8",
          "name": "_curveType",
          "type": "uint8"
        }
      ],
      "name": "createCurve",
      "outputs": [
        {
          "internalType": "bool",
          "name": "",
          "type": "bool"
        }
      ],
      "stateMutability": "nonpayable",
      "type": "function"
    }
  ],
  "bytecode": "0x608060405234801561001057600080fd5b5060405161020c38038061020c8339818101604052602081101561003357600080fd5b8101908080519060200190929190505050806000806101000a81548173ffffffffffffffffffffffffffffffffffffffff021916908373ffffffffffffffffffffffffffffffffffffffff16021790555050610178806100946000396000f3fe608060405234801561001057600080fd5b506004361061002b5760003560e01c8063d19c94fd14610030575b600080fd5b61005f6004803603602081101561004657600080fd5b81019080803560ff169060200190929190505050610079565b604051808215151515815260200191505060405180910390f35b60008060009054906101000a900473ffffffffffffffffffffffffffffffffffffffff1673ffffffffffffffffffffffffffffffffffffffff163373ffffffffffffffffffffffffffffffffffffffff161461013d576040517f08c379a000000000000000000000000000000000000000000000000000000000815260040180806020018281038252601d8152602001807f4f6e6c792074686520666163746f7279206d617920757365207468697300000081525060200191505060405180910390fd5b91905056fea2646970667358221220237137ebf9e1343805c20875322da2de2caf52d0562939b6076e91aab73cd7f264736f6c63430006060033",
  "source": "pragma solidity 0.6.6;\n\ncontract CurveLibraryRegistry {\n    address private factory_;\n\n    constructor(address _factory) public {\n        factory_ = _factory;\n    }\n\n    modifier onlyFactory() {\n        require(\n            msg.sender == factory_,\n            \"Only the factory may use this\"\n        );\n        _;\n    }\n    \n    function createCurve(\n        uint8 _curveType\n    )\n        public\n        onlyFactory()\n        returns(bool)\n    {\n        \n    }\n}",
  "sourcePath": "/Users/veronicac/Desktop/projects/linumlabs/BondingCurveFactory/contracts/CurveLibraryRegistry.sol",
  "compiler": {
    "name": "solc",
    "version": "0.6.6+commit.6c089d02.Emscripten.clang",
    "optimizer": false,
    "runs": 200
  },
  "schemaVersion": "2.3.3",
  "updatedAt": "2020-05-11T14:06:56.058Z"
}