{
  "contractName": "Curve",
  "abi": [
    {
      "inputs": [
        {
          "internalType": "uint256",
          "name": "_tokens",
          "type": "uint256"
        }
      ],
      "name": "getBuyPrice",
      "outputs": [
        {
          "internalType": "uint256",
          "name": "",
          "type": "uint256"
        }
      ],
      "stateMutability": "view",
      "type": "function"
    },
    {
      "inputs": [
        {
          "internalType": "uint256",
          "name": "_tokens",
          "type": "uint256"
        }
      ],
      "name": "getSellAmount",
      "outputs": [
        {
          "internalType": "uint256",
          "name": "",
          "type": "uint256"
        }
      ],
      "stateMutability": "view",
      "type": "function"
    },
    {
      "inputs": [
        {
          "internalType": "uint256",
          "name": "_a",
          "type": "uint256"
        },
        {
          "internalType": "uint256",
          "name": "_b",
          "type": "uint256"
        },
        {
          "internalType": "uint256",
          "name": "_c",
          "type": "uint256"
        },
        {
          "internalType": "uint256",
          "name": "_threshold",
          "type": "uint256"
        }
      ],
      "name": "getEndPrice",
      "outputs": [
        {
          "internalType": "uint256",
          "name": "",
          "type": "uint256"
        }
      ],
      "stateMutability": "pure",
      "type": "function"
    }
  ],
  "bytecode": "0x608060405234801561001057600080fd5b50610975806100206000396000f3fe608060405234801561001057600080fd5b50600436106100415760003560e01c806308d4db1414610046578063768713f514610088578063efd15d00146100ca575b600080fd5b6100726004803603602081101561005c57600080fd5b810190808035906020019092919050505061012a565b6040518082815260200191505060405180910390f35b6100b46004803603602081101561009e57600080fd5b8101908080359060200190929190505050610368565b6040518082815260200191505060405180910390f35b610114600480360360808110156100e057600080fd5b81019080803590602001909291908035906020019092919080359060200190929190803590602001909291905050506104ef565b6040518082815260200191505060405180910390f35b6000803373ffffffffffffffffffffffffffffffffffffffff166318160ddd6040518163ffffffff1660e01b815260040160206040518083038186803b15801561017357600080fd5b505afa158015610187573d6000803e3d6000fd5b505050506040513d602081101561019d57600080fd5b8101908080519060200190929190505050905060006101c584836105f690919063ffffffff16565b905060008060003373ffffffffffffffffffffffffffffffffffffffff1663d73e8d426040518163ffffffff1660e01b815260040160606040518083038186803b15801561021257600080fd5b505afa158015610226573d6000803e3d6000fd5b505050506040513d606081101561023c57600080fd5b810190808051906020019092919080519060200190929190805190602001909291905050508093508194508295505050506000809050600084146102d5576102d2670de0b6b3a76400006102c46102a260038a0a60038a0a61067e90919063ffffffff16565b6102b66003896106c890919063ffffffff16565b61071290919063ffffffff16565b6106c890919063ffffffff16565b90505b60006102fc6102ed888861067e90919063ffffffff16565b8461071290919063ffffffff16565b61033a61031860028a0a60028a0a61067e90919063ffffffff16565b61032c6002886106c890919063ffffffff16565b61071290919063ffffffff16565b830101905061035a670de0b6b3a7640000826106c890919063ffffffff16565b975050505050505050919050565b6000803373ffffffffffffffffffffffffffffffffffffffff166318160ddd6040518163ffffffff1660e01b815260040160206040518083038186803b1580156103b157600080fd5b505afa1580156103c5573d6000803e3d6000fd5b505050506040513d60208110156103db57600080fd5b810190808051906020019092919050505090506000838203905060008060003373ffffffffffffffffffffffffffffffffffffffff1663d73e8d426040518163ffffffff1660e01b815260040160606040518083038186803b15801561044057600080fd5b505afa158015610454573d6000803e3d6000fd5b505050506040513d606081101561046a57600080fd5b81019080805190602001909291908051906020019092919080519060200190929190505050809350819450829550505050600084860382026002860a6002880a03600285816104b557fe5b04026003870a6003890a03600387816104ca57fe5b040201019050670de0b6b3a764000081816104e157fe5b049650505050505050919050565b60008060009050600083905060008090506000881461056357610560670de0b6b3a76400006105526105306003870a6003870a61067e90919063ffffffff16565b61054460038d6106c890919063ffffffff16565b61071290919063ffffffff16565b6106c890919063ffffffff16565b90505b600061058a61057b858561067e90919063ffffffff16565b8861071290919063ffffffff16565b6105c86105a66002870a6002870a61067e90919063ffffffff16565b6105ba60028c6106c890919063ffffffff16565b61071290919063ffffffff16565b83010190506105e8670de0b6b3a7640000826106c890919063ffffffff16565b945050505050949350505050565b600080828401905083811015610674576040517f08c379a000000000000000000000000000000000000000000000000000000000815260040180806020018281038252601b8152602001807f536166654d6174683a206164646974696f6e206f766572666c6f77000000000081525060200191505060405180910390fd5b8091505092915050565b60006106c083836040518060400160405280601e81526020017f536166654d6174683a207375627472616374696f6e206f766572666c6f770000815250610798565b905092915050565b600061070a83836040518060400160405280601a81526020017f536166654d6174683a206469766973696f6e206279207a65726f000000000000815250610858565b905092915050565b6000808314156107255760009050610792565b600082840290508284828161073657fe5b041461078d576040517f08c379a000000000000000000000000000000000000000000000000000000000815260040180806020018281038252602181526020018061091f6021913960400191505060405180910390fd5b809150505b92915050565b6000838311158290610845576040517f08c379a00000000000000000000000000000000000000000000000000000000081526004018080602001828103825283818151815260200191508051906020019080838360005b8381101561080a5780820151818401526020810190506107ef565b50505050905090810190601f1680156108375780820380516001836020036101000a031916815260200191505b509250505060405180910390fd5b5060008385039050809150509392505050565b60008083118290610904576040517f08c379a00000000000000000000000000000000000000000000000000000000081526004018080602001828103825283818151815260200191508051906020019080838360005b838110156108c95780820151818401526020810190506108ae565b50505050905090810190601f1680156108f65780820380516001836020036101000a031916815260200191505b509250505060405180910390fd5b50600083858161091057fe5b04905080915050939250505056fe536166654d6174683a206d756c7469706c69636174696f6e206f766572666c6f77a26469706673582212209af3d99a3ef553ede6f30178be53b8f3d4b8f5268fd6e936ac353af73527bcd364736f6c63430006060033",
  "source": "pragma solidity 0.6.6;\n\nimport \"./I_Curve.sol\";\nimport \"./I_Token.sol\";\nimport \"../node_modules/openzeppelin-solidity/contracts/math/SafeMath.sol\";\n\n//TODO update to use safe maths\n\n/**\n  * @author Veronica Coutts @vonnie610 (twitter) @VeronicaLC (GitLab) \n  * @title  Curve\n  * @notice This curve contract enables an IBCO (Initial Bonding Curve Offering)\n  *         as a mechanism to launch a token into the open market without having\n  *         to raise the funds in a traditional manner.\n  *         This product is a beta. Use at your own risk.\n  */\ncontract Curve is I_Curve {\n  \tusing SafeMath for uint256;\n    /**\n      * This curve uses the following formula:\n      * a/3(x_1^3 - x_0^3) + b/2(x_1^2 - x_0^2) + c(x_1 - x_0)\n      * The vaiables (a, b & c) are pulled from the token (msg.sender).\n      * x_1 and x_0 are the supply and the supply +/- the amount of tokens being\n      * bought and sold. \n      */\n\n    /**\n      * @param  _tokens: The number of tokens being bought.\n      * @return uint256: The cost price of the number of tokens in collateral.\n      */\n    function getBuyPrice(\n        uint256 _tokens\n    )\n        override(I_Curve)\n        public\n        view\n        returns(uint256)\n    {\n        uint256 supply = I_Token(msg.sender).totalSupply();\n        uint256 newSupply = supply.add(_tokens);\n\n        uint256 a;\n        uint256 b;\n        uint256 c;\n        (a, b, c) = I_Token(msg.sender).getCurve();\n\n\t\tuint aPrice = 0;\n\n\t\tif(a != 0) {\n\t\t\taPrice = ((a.div(3)).mul((newSupply**3).sub(supply**3))).div(1e18);\n\t\t}\n        \n        uint256 price = aPrice + (b.div(2)).mul(\n\t\t\t(newSupply**2).sub(supply**2)\n\t\t) + c.mul(\n\t\t\tnewSupply.sub(supply)\n\t\t);\n\n        return price.div(1e18);\n    }\n\n    /**\n      * @param  _tokens: The number of tokens being sold.\n      * @return uint256: The sell price of the number of tokens in collateral.\n      */\n    function getSellAmount(\n        uint256 _tokens\n    )\n        override(I_Curve)\n        public\n        view\n        returns(uint256) \n    {\n        uint256 supply = I_Token(msg.sender).totalSupply();\n        uint256 newSupply = supply - _tokens;\n\n        uint256 a;\n        uint256 b;\n        uint256 c;\n        (a, b, c) = I_Token(msg.sender).getCurve();\n        \n        uint256 price = (a/3)*(supply**3 - newSupply**3) \n                        + (b/2)*(supply**2 - newSupply**2) \n                        + c*(supply - newSupply);\n\n        return price/1e18;\n    }\n\n\tfunction getEndPrice(\n\t\tuint256 _a,\n\t\tuint256 _b,\n\t\tuint256 _c,\n\t\tuint256 _threshold\n\t) \n\t\tpublic\n\t\tpure\t\n\t\treturns(uint256)\n\t{\n\t\tuint256 supply = 0;\n        uint256 newSupply = _threshold;\n\n\t\tuint aPrice = 0;\n\n\t\tif(_a != 0) {\n\t\t\taPrice = ((_a.div(3)).mul((newSupply**3).sub(supply**3))).div(1e18);\n\t\t}\n        \n        uint256 price = aPrice + (_b.div(2)).mul(\n\t\t\t(newSupply**2).sub(supply**2)\n\t\t) + _c.mul(\n\t\t\tnewSupply.sub(supply)\n\t\t);\n\n        return price.div(1e18);\n\t}\n}",
  "sourcePath": "/Users/veronicac/Desktop/projects/linumlabs/BondingCurveFactory/contracts/Curve.sol",
  "compiler": {
    "name": "solc",
    "version": "0.6.6+commit.6c089d02.Emscripten.clang",
    "optimizer": false,
    "runs": 200
  },
  "schemaVersion": "2.3.3",
  "updatedAt": "2020-05-24T15:27:41.104Z"
}