{
  "contractName": "Curve",
  "abi": [
    {
      "inputs": [
        {
          "internalType": "uint256",
          "name": "_tokens",
          "type": "uint256"
        }
      ],
      "name": "getBuyPrice",
      "outputs": [
        {
          "internalType": "uint256",
          "name": "",
          "type": "uint256"
        }
      ],
      "stateMutability": "view",
      "type": "function"
    },
    {
      "inputs": [
        {
          "internalType": "uint256",
          "name": "_tokens",
          "type": "uint256"
        }
      ],
      "name": "getSellAmount",
      "outputs": [
        {
          "internalType": "uint256",
          "name": "",
          "type": "uint256"
        }
      ],
      "stateMutability": "view",
      "type": "function"
    }
  ],
  "bytecode": "0x608060405234801561001057600080fd5b506103e1806100206000396000f3fe608060405234801561001057600080fd5b50600436106100365760003560e01c806308d4db141461003b578063768713f51461007d575b600080fd5b6100676004803603602081101561005157600080fd5b81019080803590602001909291905050506100bf565b6040518082815260200191505060405180910390f35b6100a96004803603602081101561009357600080fd5b8101908080359060200190929190505050610235565b6040518082815260200191505060405180910390f35b6000803373ffffffffffffffffffffffffffffffffffffffff166318160ddd6040518163ffffffff1660e01b815260040160206040518083038186803b15801561010857600080fd5b505afa15801561011c573d6000803e3d6000fd5b505050506040513d602081101561013257600080fd5b810190808051906020019092919050505090506000838201905060008060003373ffffffffffffffffffffffffffffffffffffffff1663d73e8d426040518163ffffffff1660e01b815260040160606040518083038186803b15801561019757600080fd5b505afa1580156101ab573d6000803e3d6000fd5b505050506040513d60608110156101c157600080fd5b81019080805190602001909291908051906020019092919080519060200190929190505050809350819450829550505050600085850382026002870a6002870a036002858161020c57fe5b04026003880a6003880a036003878161022157fe5b040201019050809650505050505050919050565b6000803373ffffffffffffffffffffffffffffffffffffffff166318160ddd6040518163ffffffff1660e01b815260040160206040518083038186803b15801561027e57600080fd5b505afa158015610292573d6000803e3d6000fd5b505050506040513d60208110156102a857600080fd5b810190808051906020019092919050505090506000838203905060008060003373ffffffffffffffffffffffffffffffffffffffff1663d73e8d426040518163ffffffff1660e01b815260040160606040518083038186803b15801561030d57600080fd5b505afa158015610321573d6000803e3d6000fd5b505050506040513d606081101561033757600080fd5b81019080805190602001909291908051906020019092919080519060200190929190505050809350819450829550505050600084860382026002860a6002880a036002858161038257fe5b04026003870a6003890a036003878161039757fe5b04020101905080965050505050505091905056fea26469706673582212201790b9685b282732edf977dd8e73437d0fba73d73ed75b6e56ab6a67b291f1e164736f6c63430006060033",
  "source": "pragma solidity 0.6.6;\n\nimport \"./I_Curve.sol\";\nimport \"./I_Token.sol\";\n\n/**\n  * @author Veronica Coutts @vonnie610 (twitter) @VeronicaLC (GitLab) \n  * @title  Curve\n  * @notice This curve contract enables an IBCO (Initial Bonding Curve Offering)\n  *         as a mechanism to launch a token into the open market without having\n  *         to raise the funds in a traditional manner.\n  *         This product is a beta. Use at your own risk.\n  */\ncontract Curve is I_Curve {\n    /**\n      * This curve uses the following formula:\n      * a/3(x_1^3 - x_0^3) + b/2(x_1^2 - x_0^2) + c(x_1 - x_0)\n      * The vaiables (a, b & c) are pulled from the token (msg.sender).\n      * x_1 and x_0 are the supply and the supply +/- the amount of tokens being\n      * bought and sold. \n      */\n\n    /**\n      * @param  _tokens: The number of tokens being bought.\n      * @return uint256: The cost price of the number of tokens in collateral.\n      */\n    function getBuyPrice(\n        uint256 _tokens\n    )\n        override(I_Curve)\n        public\n        view\n        returns(uint256)\n    {\n        uint256 supply = I_Token(msg.sender).totalSupply();\n        uint256 newSupply = supply + _tokens;\n\n        uint256 a;\n        uint256 b;\n        uint256 c;\n        (a, b, c) = I_Token(msg.sender).getCurve();\n        \n        uint256 price = (a/3)*(newSupply**3 - supply**3) \n                        + (b/2)*(newSupply**2 - supply**2) \n                        + c*(newSupply - supply);\n\n        return price;\n    }\n\n    /**\n      * @param  _tokens: The number of tokens being sold.\n      * @return uint256: The sell price of the number of tokens in collateral.\n      */\n    function getSellAmount(\n        uint256 _tokens\n    )\n        override(I_Curve)\n        public\n        view\n        returns(uint256) \n    {\n        uint256 supply = I_Token(msg.sender).totalSupply();\n        uint256 newSupply = supply - _tokens;\n\n        uint256 a;\n        uint256 b;\n        uint256 c;\n        (a, b, c) = I_Token(msg.sender).getCurve();\n        \n        uint256 price = (a/3)*(supply**3 - newSupply**3) \n                        + (b/2)*(supply**2 - newSupply**2) \n                        + c*(supply - newSupply);\n\n        return price;\n    }\n}",
  "sourcePath": "/Users/veronicac/Desktop/projects/linumlabs/BondingCurveFactory/contracts/Curve.sol",
  "compiler": {
    "name": "solc",
    "version": "0.6.6+commit.6c089d02.Emscripten.clang",
    "optimizer": false,
    "runs": 200
  },
  "schemaVersion": "2.3.3",
  "updatedAt": "2020-05-22T13:09:28.394Z"
}