{
  "contractName": "Curve",
  "abi": [
    {
      "inputs": [
        {
          "internalType": "uint256",
          "name": "_tokens",
          "type": "uint256"
        }
      ],
      "name": "getBuyPrice",
      "outputs": [
        {
          "internalType": "uint256",
          "name": "",
          "type": "uint256"
        }
      ],
      "stateMutability": "view",
      "type": "function"
    },
    {
      "inputs": [
        {
          "internalType": "uint256",
          "name": "_tokens",
          "type": "uint256"
        }
      ],
      "name": "getSellAmount",
      "outputs": [
        {
          "internalType": "uint256",
          "name": "",
          "type": "uint256"
        }
      ],
      "stateMutability": "view",
      "type": "function"
    },
    {
      "inputs": [
        {
          "internalType": "uint256",
          "name": "_a",
          "type": "uint256"
        },
        {
          "internalType": "uint256",
          "name": "_b",
          "type": "uint256"
        },
        {
          "internalType": "uint256",
          "name": "_c",
          "type": "uint256"
        },
        {
          "internalType": "uint256",
          "name": "_threshold",
          "type": "uint256"
        }
      ],
      "name": "getEndPrice",
      "outputs": [
        {
          "internalType": "uint256",
          "name": "",
          "type": "uint256"
        }
      ],
      "stateMutability": "pure",
      "type": "function"
    },
    {
      "inputs": [
        {
          "internalType": "uint256",
          "name": "_a",
          "type": "uint256"
        },
        {
          "internalType": "uint256",
          "name": "_b",
          "type": "uint256"
        },
        {
          "internalType": "uint256",
          "name": "_c",
          "type": "uint256"
        },
        {
          "internalType": "uint256",
          "name": "_threshold",
          "type": "uint256"
        }
      ],
      "name": "getEndCollateral",
      "outputs": [
        {
          "internalType": "uint256",
          "name": "",
          "type": "uint256"
        }
      ],
      "stateMutability": "pure",
      "type": "function"
    }
  ],
  "bytecode": "0x608060405234801561001057600080fd5b50610918806100206000396000f3fe608060405234801561001057600080fd5b506004361061004c5760003560e01c806308d4db141461005157806360438fa814610093578063768713f5146100f3578063efd15d0014610135575b600080fd5b61007d6004803603602081101561006757600080fd5b8101908080359060200190929190505050610195565b6040518082815260200191505060405180910390f35b6100dd600480360360808110156100a957600080fd5b81019080803590602001909291908035906020019092919080359060200190929190803590602001909291905050506102f1565b6040518082815260200191505060405180910390f35b61011f6004803603602081101561010957600080fd5b8101908080359060200190929190505050610310565b6040518082815260200191505060405180910390f35b61017f6004803603608081101561014b57600080fd5b810190808035906020019092919080359060200190929190803590602001909291908035906020019092919050505061046c565b6040518082815260200191505060405180910390f35b6000803373ffffffffffffffffffffffffffffffffffffffff166318160ddd6040518163ffffffff1660e01b815260040160206040518083038186803b1580156101de57600080fd5b505afa1580156101f2573d6000803e3d6000fd5b505050506040513d602081101561020857600080fd5b810190808051906020019092919050505090506000610230848361049d90919063ffffffff16565b905060008060003373ffffffffffffffffffffffffffffffffffffffff1663d73e8d426040518163ffffffff1660e01b815260040160606040518083038186803b15801561027d57600080fd5b505afa158015610291573d6000803e3d6000fd5b505050506040513d60608110156102a757600080fd5b810190808051906020019092919080519060200190929190805190602001909291905050508093508194508295505050506102e58383838888610525565b95505050505050919050565b600080610302868686600087610525565b905080915050949350505050565b6000803373ffffffffffffffffffffffffffffffffffffffff166318160ddd6040518163ffffffff1660e01b815260040160206040518083038186803b15801561035957600080fd5b505afa15801561036d573d6000803e3d6000fd5b505050506040513d602081101561038357600080fd5b8101908080519060200190929190505050905060006103ab848361062190919063ffffffff16565b905060008060003373ffffffffffffffffffffffffffffffffffffffff1663d73e8d426040518163ffffffff1660e01b815260040160606040518083038186803b1580156103f857600080fd5b505afa15801561040c573d6000803e3d6000fd5b505050506040513d606081101561042257600080fd5b810190808051906020019092919080519060200190929190805190602001909291905050508093508194508295505050506104608383838789610525565b95505050505050919050565b60008061048f8686868661048a60018961049d90919063ffffffff16565b610525565b905080915050949350505050565b60008082840190508381101561051b576040517f08c379a000000000000000000000000000000000000000000000000000000000815260040180806020018281038252601b8152602001807f536166654d6174683a206164646974696f6e206f766572666c6f77000000000081525060200191505060405180910390fd5b8091505092915050565b600080600090506000871461058f5761058c670de0b6b3a764000061057e61055c6003880a6003880a61062190919063ffffffff16565b61057060038c61066b90919063ffffffff16565b6106b590919063ffffffff16565b61066b90919063ffffffff16565b90505b60006105b66105a7868661062190919063ffffffff16565b876106b590919063ffffffff16565b6105f46105d26002880a6002880a61062190919063ffffffff16565b6105e660028b61066b90919063ffffffff16565b6106b590919063ffffffff16565b8301019050610614670de0b6b3a76400008261066b90919063ffffffff16565b9250505095945050505050565b600061066383836040518060400160405280601e81526020017f536166654d6174683a207375627472616374696f6e206f766572666c6f77000081525061073b565b905092915050565b60006106ad83836040518060400160405280601a81526020017f536166654d6174683a206469766973696f6e206279207a65726f0000000000008152506107fb565b905092915050565b6000808314156106c85760009050610735565b60008284029050828482816106d957fe5b0414610730576040517f08c379a00000000000000000000000000000000000000000000000000000000081526004018080602001828103825260218152602001806108c26021913960400191505060405180910390fd5b809150505b92915050565b60008383111582906107e8576040517f08c379a00000000000000000000000000000000000000000000000000000000081526004018080602001828103825283818151815260200191508051906020019080838360005b838110156107ad578082015181840152602081019050610792565b50505050905090810190601f1680156107da5780820380516001836020036101000a031916815260200191505b509250505060405180910390fd5b5060008385039050809150509392505050565b600080831182906108a7576040517f08c379a00000000000000000000000000000000000000000000000000000000081526004018080602001828103825283818151815260200191508051906020019080838360005b8381101561086c578082015181840152602081019050610851565b50505050905090810190601f1680156108995780820380516001836020036101000a031916815260200191505b509250505060405180910390fd5b5060008385816108b357fe5b04905080915050939250505056fe536166654d6174683a206d756c7469706c69636174696f6e206f766572666c6f77a264697066735822122001253d2be984558dc03ba212dd90dc4672c0eceb43246e1bd9aacc7557d3a22864736f6c63430006060033",
  "source": "pragma solidity 0.6.6;\n\nimport \"./I_Curve.sol\";\nimport \"./I_Token.sol\";\nimport \"../node_modules/openzeppelin-solidity/contracts/math/SafeMath.sol\";\n\n//TODO update to use safe maths\n\n/**\n  * @author Veronica Coutts @vonnie610 (twitter) @VeronicaLC (GitLab) \n  * @title  Curve\n  * @notice This curve contract enables an IBCO (Initial Bonding Curve Offering)\n  *         as a mechanism to launch a token into the open market without having\n  *         to raise the funds in a traditional manner.\n  *         This product is a beta. Use at your own risk.\n  */\ncontract Curve is I_Curve {\n  \tusing SafeMath for uint256;\n    /**\n      * This curve uses the following formula:\n      * a/3(x_1^3 - x_0^3) + b/2(x_1^2 - x_0^2) + c(x_1 - x_0)\n      * The vaiables (a, b & c) are pulled from the token (msg.sender).\n      * x_1 and x_0 are the supply and the supply +/- the amount of tokens being\n      * bought and sold. \n      */\n\n    /**\n      * @param  _tokens: The number of tokens being bought.\n      * @return uint256: The cost price of the number of tokens in collateral.\n      */\n    function getBuyPrice(\n        uint256 _tokens\n    )\n        override(I_Curve)\n        public\n        view\n        returns(uint256)\n    {\n        uint256 supply = I_Token(msg.sender).totalSupply();\n        uint256 newSupply = supply.add(_tokens);\n\n        uint256 a;\n        uint256 b;\n        uint256 c;\n        (a, b, c) = I_Token(msg.sender).getCurve();\n\n        return _getPrice(a, b, c, supply, newSupply);\n    }\n\n    /**\n      * @param  _tokens: The number of tokens being sold.\n      * @return uint256: The sell price of the number of tokens in collateral.\n      */\n    function getSellAmount(\n        uint256 _tokens\n    )\n        override(I_Curve)\n        public\n        view\n        returns(uint256) \n    {\n        uint256 supply = I_Token(msg.sender).totalSupply();\n        uint256 newSupply = supply.sub(_tokens);\n\n        uint256 a;\n        uint256 b;\n        uint256 c;\n        (a, b, c) = I_Token(msg.sender).getCurve();\n \n        return _getPrice(a, b, c, newSupply, supply);\n    }\n\n\t function getEndPrice(\n\t\tuint256 _a,\n\t\tuint256 _b,\n\t\tuint256 _c,\n\t\tuint256 _threshold\n\t) \n\t\tpublic\n\t\tpure\t\n\t\treturns(uint256)\n\t{\n\t\tuint256 priceAtEnd = _getPrice(_a, _b, _c, _threshold, _threshold.add(1));\n\n        return priceAtEnd;\n\t}\n\n\tfunction getEndCollateral(\n\t\tuint256 _a,\n\t\tuint256 _b,\n\t\tuint256 _c,\n\t\tuint256 _threshold\n\t) \n\t\tpublic\n\t\tpure\t\n\t\treturns(uint256)\n\t{\n\t\tuint256 collateralAtEnd = _getPrice(_a, _b, _c, 0, _threshold);\n\n        return collateralAtEnd;\n\t}\n\n\tfunction _getPrice(\n\t\tuint256 _a,\n        uint256 _b,\n        uint256 _c,\n\t\tuint256 _from,\n\t\tuint256 _to\n\t) \n\t\tinternal \n\t\tpure \n\t\treturns(uint256)\n\t{\n\t\tuint aPrice = 0;\n\n\t\tif(_a != 0) {\n\t\t\taPrice = ((_a.div(3)).mul((_to**3).sub(_from**3))).div(1e18);\n\t\t}\n        \n        uint256 price = aPrice + (_b.div(2)).mul(\n\t\t\t(_to**2).sub(_from**2)\n\t\t) + _c.mul(\n\t\t\t_to.sub(_from)\n\t\t);\n\n        return price.div(1e18);\n\t}\n}",
  "sourcePath": "/Users/veronicac/Desktop/projects/linumlabs/BondingCurveFactory/contracts/Curve.sol",
  "compiler": {
    "name": "solc",
    "version": "0.6.6+commit.6c089d02.Emscripten.clang",
    "optimizer": false,
    "runs": 200
  },
  "schemaVersion": "2.3.3",
  "updatedAt": "2020-05-24T22:28:20.644Z"
}