{
  "contractName": "MarketTransition",
  "abi": [
    {
      "inputs": [
        {
          "internalType": "address",
          "name": "_uniswapRouter",
          "type": "address"
        }
      ],
      "stateMutability": "nonpayable",
      "type": "constructor"
    },
    {
      "anonymous": false,
      "inputs": [
        {
          "indexed": true,
          "internalType": "address",
          "name": "owner",
          "type": "address"
        },
        {
          "indexed": true,
          "internalType": "address",
          "name": "spender",
          "type": "address"
        },
        {
          "indexed": false,
          "internalType": "uint256",
          "name": "value",
          "type": "uint256"
        }
      ],
      "name": "Approval",
      "type": "event"
    },
    {
      "anonymous": false,
      "inputs": [
        {
          "indexed": true,
          "internalType": "address",
          "name": "from",
          "type": "address"
        },
        {
          "indexed": true,
          "internalType": "address",
          "name": "to",
          "type": "address"
        },
        {
          "indexed": false,
          "internalType": "uint256",
          "name": "value",
          "type": "uint256"
        }
      ],
      "name": "Transfer",
      "type": "event"
    },
    {
      "anonymous": false,
      "inputs": [
        {
          "indexed": false,
          "internalType": "uint256",
          "name": "amountA",
          "type": "uint256"
        },
        {
          "indexed": false,
          "internalType": "uint256",
          "name": "amountB",
          "type": "uint256"
        },
        {
          "indexed": false,
          "internalType": "uint256",
          "name": "liquidity",
          "type": "uint256"
        }
      ],
      "name": "transitionToFreeMarket",
      "type": "event"
    },
    {
      "anonymous": false,
      "inputs": [
        {
          "indexed": false,
          "internalType": "uint256",
          "name": "tokens",
          "type": "uint256"
        },
        {
          "indexed": false,
          "internalType": "uint256",
          "name": "collateral",
          "type": "uint256"
        }
      ],
      "name": "wtf",
      "type": "event"
    },
    {
      "inputs": [
        {
          "internalType": "address",
          "name": "owner",
          "type": "address"
        },
        {
          "internalType": "address",
          "name": "spender",
          "type": "address"
        }
      ],
      "name": "allowance",
      "outputs": [
        {
          "internalType": "uint256",
          "name": "",
          "type": "uint256"
        }
      ],
      "stateMutability": "view",
      "type": "function"
    },
    {
      "inputs": [
        {
          "internalType": "address",
          "name": "spender",
          "type": "address"
        },
        {
          "internalType": "uint256",
          "name": "amount",
          "type": "uint256"
        }
      ],
      "name": "approve",
      "outputs": [
        {
          "internalType": "bool",
          "name": "",
          "type": "bool"
        }
      ],
      "stateMutability": "nonpayable",
      "type": "function"
    },
    {
      "inputs": [
        {
          "internalType": "address",
          "name": "account",
          "type": "address"
        }
      ],
      "name": "balanceOf",
      "outputs": [
        {
          "internalType": "uint256",
          "name": "",
          "type": "uint256"
        }
      ],
      "stateMutability": "view",
      "type": "function"
    },
    {
      "inputs": [],
      "name": "check",
      "outputs": [
        {
          "internalType": "bool",
          "name": "",
          "type": "bool"
        }
      ],
      "stateMutability": "view",
      "type": "function"
    },
    {
      "inputs": [],
      "name": "decimals",
      "outputs": [
        {
          "internalType": "uint8",
          "name": "",
          "type": "uint8"
        }
      ],
      "stateMutability": "view",
      "type": "function"
    },
    {
      "inputs": [
        {
          "internalType": "address",
          "name": "spender",
          "type": "address"
        },
        {
          "internalType": "uint256",
          "name": "subtractedValue",
          "type": "uint256"
        }
      ],
      "name": "decreaseAllowance",
      "outputs": [
        {
          "internalType": "bool",
          "name": "",
          "type": "bool"
        }
      ],
      "stateMutability": "nonpayable",
      "type": "function"
    },
    {
      "inputs": [
        {
          "internalType": "address",
          "name": "spender",
          "type": "address"
        },
        {
          "internalType": "uint256",
          "name": "addedValue",
          "type": "uint256"
        }
      ],
      "name": "increaseAllowance",
      "outputs": [
        {
          "internalType": "bool",
          "name": "",
          "type": "bool"
        }
      ],
      "stateMutability": "nonpayable",
      "type": "function"
    },
    {
      "inputs": [],
      "name": "name",
      "outputs": [
        {
          "internalType": "string",
          "name": "",
          "type": "string"
        }
      ],
      "stateMutability": "view",
      "type": "function"
    },
    {
      "inputs": [],
      "name": "routerInstance",
      "outputs": [
        {
          "internalType": "contract IUniswapV2Router01",
          "name": "",
          "type": "address"
        }
      ],
      "stateMutability": "view",
      "type": "function"
    },
    {
      "inputs": [],
      "name": "symbol",
      "outputs": [
        {
          "internalType": "string",
          "name": "",
          "type": "string"
        }
      ],
      "stateMutability": "view",
      "type": "function"
    },
    {
      "inputs": [],
      "name": "totalSupply",
      "outputs": [
        {
          "internalType": "uint256",
          "name": "",
          "type": "uint256"
        }
      ],
      "stateMutability": "view",
      "type": "function"
    },
    {
      "inputs": [
        {
          "internalType": "address",
          "name": "recipient",
          "type": "address"
        },
        {
          "internalType": "uint256",
          "name": "amount",
          "type": "uint256"
        }
      ],
      "name": "transfer",
      "outputs": [
        {
          "internalType": "bool",
          "name": "",
          "type": "bool"
        }
      ],
      "stateMutability": "nonpayable",
      "type": "function"
    },
    {
      "inputs": [
        {
          "internalType": "address",
          "name": "sender",
          "type": "address"
        },
        {
          "internalType": "address",
          "name": "recipient",
          "type": "address"
        },
        {
          "internalType": "uint256",
          "name": "amount",
          "type": "uint256"
        }
      ],
      "name": "transferFrom",
      "outputs": [
        {
          "internalType": "bool",
          "name": "",
          "type": "bool"
        }
      ],
      "stateMutability": "nonpayable",
      "type": "function"
    },
    {
      "inputs": [
        {
          "internalType": "address",
          "name": "_token",
          "type": "address"
        }
      ],
      "name": "transition",
      "outputs": [],
      "stateMutability": "nonpayable",
      "type": "function"
    },
    {
      "inputs": [],
      "name": "getTokensToMint",
      "outputs": [
        {
          "internalType": "uint256",
          "name": "tokensToMint",
          "type": "uint256"
        }
      ],
      "stateMutability": "view",
      "type": "function"
    },
    {
      "inputs": [],
      "name": "getRouterAddress",
      "outputs": [
        {
          "internalType": "address",
          "name": "",
          "type": "address"
        }
      ],
      "stateMutability": "view",
      "type": "function"
    }
  ],
  "bytecode": "0x60806040523480156200001157600080fd5b50604051620018e5380380620018e5833981810160405260208110156200003757600080fd5b81019080805190602001909291905050506040518060400160405280600481526020017f74657374000000000000000000000000000000000000000000000000000000008152506040518060400160405280600381526020017f54535400000000000000000000000000000000000000000000000000000000008152508160039080519060200190620000cc9291906200014c565b508060049080519060200190620000e59291906200014c565b506012600560006101000a81548160ff021916908360ff160217905550505080600560016101000a81548173ffffffffffffffffffffffffffffffffffffffff021916908373ffffffffffffffffffffffffffffffffffffffff16021790555050620001fb565b828054600181600116156101000203166002900490600052602060002090601f016020900481019282601f106200018f57805160ff1916838001178555620001c0565b82800160010185558215620001c0579182015b82811115620001bf578251825591602001919060010190620001a2565b5b509050620001cf9190620001d3565b5090565b620001f891905b80821115620001f4576000816000905550600101620001da565b5090565b90565b6116da806200020b6000396000f3fe608060405234801561001057600080fd5b50600436106101005760003560e01c806395d89b4111610097578063a9059cbb11610066578063a9059cbb1461050d578063bd16a50714610573578063d54f7d5e14610591578063dd62ed3e146105db57610100565b806395d89b4114610396578063985e361514610419578063a4356b9c14610463578063a457c2d7146104a757610100565b8063313ce567116100d3578063313ce5671461029257806339509351146102b657806370a082311461031c578063919840ad1461037457610100565b806306fdde0314610105578063095ea7b31461018857806318160ddd146101ee57806323b872dd1461020c575b600080fd5b61010d610653565b6040518080602001828103825283818151815260200191508051906020019080838360005b8381101561014d578082015181840152602081019050610132565b50505050905090810190601f16801561017a5780820380516001836020036101000a031916815260200191505b509250505060405180910390f35b6101d46004803603604081101561019e57600080fd5b81019080803573ffffffffffffffffffffffffffffffffffffffff169060200190929190803590602001909291905050506106f5565b604051808215151515815260200191505060405180910390f35b6101f6610713565b6040518082815260200191505060405180910390f35b6102786004803603606081101561022257600080fd5b81019080803573ffffffffffffffffffffffffffffffffffffffff169060200190929190803573ffffffffffffffffffffffffffffffffffffffff1690602001909291908035906020019092919050505061071d565b604051808215151515815260200191505060405180910390f35b61029a6107f6565b604051808260ff1660ff16815260200191505060405180910390f35b610302600480360360408110156102cc57600080fd5b81019080803573ffffffffffffffffffffffffffffffffffffffff1690602001909291908035906020019092919050505061080d565b604051808215151515815260200191505060405180910390f35b61035e6004803603602081101561033257600080fd5b81019080803573ffffffffffffffffffffffffffffffffffffffff1690602001909291905050506108c0565b6040518082815260200191505060405180910390f35b61037c610908565b604051808215151515815260200191505060405180910390f35b61039e61091b565b6040518080602001828103825283818151815260200191508051906020019080838360005b838110156103de5780820151818401526020810190506103c3565b50505050905090810190601f16801561040b5780820380516001836020036101000a031916815260200191505b509250505060405180910390f35b6104216109bd565b604051808273ffffffffffffffffffffffffffffffffffffffff1673ffffffffffffffffffffffffffffffffffffffff16815260200191505060405180910390f35b6104a56004803603602081101561047957600080fd5b81019080803573ffffffffffffffffffffffffffffffffffffffff1690602001909291905050506109e3565b005b6104f3600480360360408110156104bd57600080fd5b81019080803573ffffffffffffffffffffffffffffffffffffffff16906020019092919080359060200190929190505050610c0f565b604051808215151515815260200191505060405180910390f35b6105596004803603604081101561052357600080fd5b81019080803573ffffffffffffffffffffffffffffffffffffffff16906020019092919080359060200190929190505050610cdc565b604051808215151515815260200191505060405180910390f35b61057b610cfa565b6040518082815260200191505060405180910390f35b610599610ee5565b604051808273ffffffffffffffffffffffffffffffffffffffff1673ffffffffffffffffffffffffffffffffffffffff16815260200191505060405180910390f35b61063d600480360360408110156105f157600080fd5b81019080803573ffffffffffffffffffffffffffffffffffffffff169060200190929190803573ffffffffffffffffffffffffffffffffffffffff169060200190929190505050610f0f565b6040518082815260200191505060405180910390f35b606060038054600181600116156101000203166002900480601f0160208091040260200160405190810160405280929190818152602001828054600181600116156101000203166002900480156106eb5780601f106106c0576101008083540402835291602001916106eb565b820191906000526020600020905b8154815290600101906020018083116106ce57829003601f168201915b5050505050905090565b6000610709610702610f96565b8484610f9e565b6001905092915050565b6000600254905090565b600061072a848484611195565b6107eb84610736610f96565b6107e68560405180606001604052806028815260200161160f60289139600160008b73ffffffffffffffffffffffffffffffffffffffff1673ffffffffffffffffffffffffffffffffffffffff168152602001908152602001600020600061079c610f96565b73ffffffffffffffffffffffffffffffffffffffff1673ffffffffffffffffffffffffffffffffffffffff168152602001908152602001600020546114569092919063ffffffff16565b610f9e565b600190509392505050565b6000600560009054906101000a900460ff16905090565b60006108b661081a610f96565b846108b1856001600061082b610f96565b73ffffffffffffffffffffffffffffffffffffffff1673ffffffffffffffffffffffffffffffffffffffff16815260200190815260200160002060008973ffffffffffffffffffffffffffffffffffffffff1673ffffffffffffffffffffffffffffffffffffffff1681526020019081526020016000205461151690919063ffffffff16565b610f9e565b6001905092915050565b60008060008373ffffffffffffffffffffffffffffffffffffffff1673ffffffffffffffffffffffffffffffffffffffff168152602001908152602001600020549050919050565b600560159054906101000a900460ff1681565b606060048054600181600116156101000203166002900480601f0160208091040260200160405190810160405280929190818152602001828054600181600116156101000203166002900480156109b35780601f10610988576101008083540402835291602001916109b3565b820191906000526020600020905b81548152906001019060200180831161099657829003601f168201915b5050505050905090565b600560019054906101000a900473ffffffffffffffffffffffffffffffffffffffff1681565b600081905060008173ffffffffffffffffffffffffffffffffffffffff16630ae6682060016040518263ffffffff1660e01b81526004018082815260200191505060206040518083038186803b158015610a3c57600080fd5b505afa158015610a50573d6000803e3d6000fd5b505050506040513d6020811015610a6657600080fd5b8101908080519060200190929190505050905060008273ffffffffffffffffffffffffffffffffffffffff1663a1b2ab286040518163ffffffff1660e01b815260040160206040518083038186803b158015610ac157600080fd5b505afa158015610ad5573d6000803e3d6000fd5b505050506040513d6020811015610aeb57600080fd5b8101908080519060200190929190505050905060008173ffffffffffffffffffffffffffffffffffffffff166370a08231866040518263ffffffff1660e01b8152600401808273ffffffffffffffffffffffffffffffffffffffff1673ffffffffffffffffffffffffffffffffffffffff16815260200191505060206040518083038186803b158015610b7d57600080fd5b505afa158015610b91573d6000803e3d6000fd5b505050506040513d6020811015610ba757600080fd5b810190808051906020019092919050505090506000838281610bc557fe5b0490507fc666fc4e6ea31b5843f755f5e6ad9c6251d2717b5dc41960145385b8d14989db8183604051808381526020018281526020019250505060405180910390a1505050505050565b6000610cd2610c1c610f96565b84610ccd856040518060600160405280602581526020016116806025913960016000610c46610f96565b73ffffffffffffffffffffffffffffffffffffffff1673ffffffffffffffffffffffffffffffffffffffff16815260200190815260200160002060008a73ffffffffffffffffffffffffffffffffffffffff1673ffffffffffffffffffffffffffffffffffffffff168152602001908152602001600020546114569092919063ffffffff16565b610f9e565b6001905092915050565b6000610cf0610ce9610f96565b8484611195565b6001905092915050565b60008033905060008173ffffffffffffffffffffffffffffffffffffffff16630ae6682060016040518263ffffffff1660e01b81526004018082815260200191505060206040518083038186803b158015610d5457600080fd5b505afa158015610d68573d6000803e3d6000fd5b505050506040513d6020811015610d7e57600080fd5b8101908080519060200190929190505050905060008273ffffffffffffffffffffffffffffffffffffffff1663a1b2ab286040518163ffffffff1660e01b815260040160206040518083038186803b158015610dd957600080fd5b505afa158015610ded573d6000803e3d6000fd5b505050506040513d6020811015610e0357600080fd5b8101908080519060200190929190505050905060008173ffffffffffffffffffffffffffffffffffffffff166370a08231336040518263ffffffff1660e01b8152600401808273ffffffffffffffffffffffffffffffffffffffff1673ffffffffffffffffffffffffffffffffffffffff16815260200191505060206040518083038186803b158015610e9557600080fd5b505afa158015610ea9573d6000803e3d6000fd5b505050506040513d6020811015610ebf57600080fd5b81019080805190602001909291905050509050828181610edb57fe5b0494505050505090565b6000600560019054906101000a900473ffffffffffffffffffffffffffffffffffffffff16905090565b6000600160008473ffffffffffffffffffffffffffffffffffffffff1673ffffffffffffffffffffffffffffffffffffffff16815260200190815260200160002060008373ffffffffffffffffffffffffffffffffffffffff1673ffffffffffffffffffffffffffffffffffffffff16815260200190815260200160002054905092915050565b600033905090565b600073ffffffffffffffffffffffffffffffffffffffff168373ffffffffffffffffffffffffffffffffffffffff161415611024576040517f08c379a000000000000000000000000000000000000000000000000000000000815260040180806020018281038252602481526020018061165c6024913960400191505060405180910390fd5b600073ffffffffffffffffffffffffffffffffffffffff168273ffffffffffffffffffffffffffffffffffffffff1614156110aa576040517f08c379a00000000000000000000000000000000000000000000000000000000081526004018080602001828103825260228152602001806115c76022913960400191505060405180910390fd5b80600160008573ffffffffffffffffffffffffffffffffffffffff1673ffffffffffffffffffffffffffffffffffffffff16815260200190815260200160002060008473ffffffffffffffffffffffffffffffffffffffff1673ffffffffffffffffffffffffffffffffffffffff168152602001908152602001600020819055508173ffffffffffffffffffffffffffffffffffffffff168373ffffffffffffffffffffffffffffffffffffffff167f8c5be1e5ebec7d5bd14f71427d1e84f3dd0314c0f7b2291e5b200ac8c7c3b925836040518082815260200191505060405180910390a3505050565b600073ffffffffffffffffffffffffffffffffffffffff168373ffffffffffffffffffffffffffffffffffffffff16141561121b576040517f08c379a00000000000000000000000000000000000000000000000000000000081526004018080602001828103825260258152602001806116376025913960400191505060405180910390fd5b600073ffffffffffffffffffffffffffffffffffffffff168273ffffffffffffffffffffffffffffffffffffffff1614156112a1576040517f08c379a00000000000000000000000000000000000000000000000000000000081526004018080602001828103825260238152602001806115a46023913960400191505060405180910390fd5b6112ac83838361159e565b611317816040518060600160405280602681526020016115e9602691396000808773ffffffffffffffffffffffffffffffffffffffff1673ffffffffffffffffffffffffffffffffffffffff168152602001908152602001600020546114569092919063ffffffff16565b6000808573ffffffffffffffffffffffffffffffffffffffff1673ffffffffffffffffffffffffffffffffffffffff168152602001908152602001600020819055506113aa816000808573ffffffffffffffffffffffffffffffffffffffff1673ffffffffffffffffffffffffffffffffffffffff1681526020019081526020016000205461151690919063ffffffff16565b6000808473ffffffffffffffffffffffffffffffffffffffff1673ffffffffffffffffffffffffffffffffffffffff168152602001908152602001600020819055508173ffffffffffffffffffffffffffffffffffffffff168373ffffffffffffffffffffffffffffffffffffffff167fddf252ad1be2c89b69c2b068fc378daa952ba7f163c4a11628f55a4df523b3ef836040518082815260200191505060405180910390a3505050565b6000838311158290611503576040517f08c379a00000000000000000000000000000000000000000000000000000000081526004018080602001828103825283818151815260200191508051906020019080838360005b838110156114c85780820151818401526020810190506114ad565b50505050905090810190601f1680156114f55780820380516001836020036101000a031916815260200191505b509250505060405180910390fd5b5060008385039050809150509392505050565b600080828401905083811015611594576040517f08c379a000000000000000000000000000000000000000000000000000000000815260040180806020018281038252601b8152602001807f536166654d6174683a206164646974696f6e206f766572666c6f77000000000081525060200191505060405180910390fd5b8091505092915050565b50505056fe45524332303a207472616e7366657220746f20746865207a65726f206164647265737345524332303a20617070726f766520746f20746865207a65726f206164647265737345524332303a207472616e7366657220616d6f756e7420657863656564732062616c616e636545524332303a207472616e7366657220616d6f756e74206578636565647320616c6c6f77616e636545524332303a207472616e736665722066726f6d20746865207a65726f206164647265737345524332303a20617070726f76652066726f6d20746865207a65726f206164647265737345524332303a2064656372656173656420616c6c6f77616e63652062656c6f77207a65726fa26469706673582212208d2c46793854c64fbdbfaeb3ef7f2a69475fcc34f702270b3b6098c7d59f859764736f6c63430006060033",
  "source": "pragma solidity 0.6.6;\n\nimport \"./IUniswapV2Router01.sol\";\nimport \"./I_Token.sol\";\nimport \"../node_modules/openzeppelin-solidity/contracts/token/ERC20/IERC20.sol\";\nimport \"../node_modules/openzeppelin-solidity/contracts/token/ERC20/ERC20.sol\";\n\n\ncontract MarketTransition is ERC20 {\n    IUniswapV2Router01 public routerInstance;\n    bool public check;\n\n    event transitionToFreeMarket(uint amountA, uint amountB, uint liquidity);\n    event wtf(uint tokens, uint collateral);\n\n    constructor(address _uniswapRouter)\n    ERC20(\"test\", \"TST\")\n    public {\n        routerInstance = IUniswapV2Router01(_uniswapRouter);\n    }\n\n    function transition(address _token) public {\n        I_Token tokenInstance = I_Token(_token);\n        // // This gets the price of the next token in collateral\n        uint256 currentPrice = tokenInstance.getBuyCost(1);\n\n        IERC20 collateral = IERC20(tokenInstance.getCollateralInstance());\n        uint256 collateralInToken = collateral.balanceOf(_token);\n\n        uint256 tokensToMint = collateralInToken/currentPrice;\n\n        emit wtf(tokensToMint, collateralInToken);\n\n        //TODO Checks if a pair is already created \n        // TODO if there is then the min A & B need to be sliders not set\n        {\n            // (uint amountA, uint amountB, uint liquidity) = routerInstance.addLiquidity(\n            //     address(tokenInstance),\n            //     address(collateral),\n            //     tokensToMint,\n            //     collateralInToken,\n            //     tokensToMint,\n            //     collateralInToken,\n            //     address(tokenInstance),\n            //     (now + 1000)\n            // );\n\n            // emit transitionToFreeMarket(amountA, amountB, liquidity);\n        }\n    }\n\n    function getTokensToMint() public view returns(uint256 tokensToMint) {\n        I_Token tokenInstance = I_Token(msg.sender);\n        uint256 currentPrice = tokenInstance.getBuyCost(1);\n\n        IERC20 collateral = IERC20(tokenInstance.getCollateralInstance());\n        uint256 collateralInToken = collateral.balanceOf(msg.sender);\n\n        tokensToMint = collateralInToken/currentPrice;\n    }\n\n    function getRouterAddress() public view returns(address) {\n        return address(routerInstance);\n    }\n}",
  "sourcePath": "/Users/veronicac/Desktop/projects/linumlabs/BondingCurveFactory/contracts/MarketTransition.sol",
  "compiler": {
    "name": "solc",
    "version": "0.6.6+commit.6c089d02.Emscripten.clang",
    "optimizer": false,
    "runs": 200
  },
  "schemaVersion": "2.3.3",
  "updatedAt": "2020-05-20T21:31:50.724Z"
}