{
  "contractName": "MarketTransition",
  "abi": [
    {
      "inputs": [
        {
          "internalType": "address",
          "name": "_uniswapRouter",
          "type": "address"
        }
      ],
      "stateMutability": "nonpayable",
      "type": "constructor"
    },
    {
      "anonymous": false,
      "inputs": [
        {
          "indexed": false,
          "internalType": "uint256",
          "name": "amountA",
          "type": "uint256"
        },
        {
          "indexed": false,
          "internalType": "uint256",
          "name": "amountB",
          "type": "uint256"
        },
        {
          "indexed": false,
          "internalType": "uint256",
          "name": "liquidity",
          "type": "uint256"
        }
      ],
      "name": "transitionToFreeMarket",
      "type": "event"
    },
    {
      "inputs": [],
      "name": "check",
      "outputs": [
        {
          "internalType": "bool",
          "name": "",
          "type": "bool"
        }
      ],
      "stateMutability": "view",
      "type": "function"
    },
    {
      "inputs": [],
      "name": "routerInstance",
      "outputs": [
        {
          "internalType": "contract IUniswapV2Router01",
          "name": "",
          "type": "address"
        }
      ],
      "stateMutability": "view",
      "type": "function"
    },
    {
      "inputs": [
        {
          "internalType": "address",
          "name": "",
          "type": "address"
        },
        {
          "internalType": "uint256",
          "name": "",
          "type": "uint256"
        }
      ],
      "name": "transitionInfo",
      "outputs": [
        {
          "internalType": "uint256",
          "name": "",
          "type": "uint256"
        }
      ],
      "stateMutability": "view",
      "type": "function"
    },
    {
      "inputs": [],
      "name": "transition",
      "outputs": [],
      "stateMutability": "nonpayable",
      "type": "function"
    },
    {
      "inputs": [],
      "name": "getTokensToMint",
      "outputs": [
        {
          "internalType": "uint256",
          "name": "",
          "type": "uint256"
        }
      ],
      "stateMutability": "nonpayable",
      "type": "function"
    },
    {
      "inputs": [],
      "name": "getRouterAddress",
      "outputs": [
        {
          "internalType": "address",
          "name": "",
          "type": "address"
        }
      ],
      "stateMutability": "view",
      "type": "function"
    },
    {
      "inputs": [
        {
          "internalType": "address",
          "name": "_token",
          "type": "address"
        }
      ],
      "name": "getTransitionInfo",
      "outputs": [
        {
          "internalType": "uint256",
          "name": "",
          "type": "uint256"
        },
        {
          "internalType": "uint256",
          "name": "",
          "type": "uint256"
        },
        {
          "internalType": "uint256",
          "name": "",
          "type": "uint256"
        }
      ],
      "stateMutability": "view",
      "type": "function"
    },
    {
      "inputs": [
        {
          "internalType": "uint256",
          "name": "_months",
          "type": "uint256"
        }
      ],
      "name": "getMonthsFutureTimestamp",
      "outputs": [
        {
          "internalType": "uint256",
          "name": "",
          "type": "uint256"
        }
      ],
      "stateMutability": "view",
      "type": "function"
    }
  ],
  "bytecode": "0x608060405234801561001057600080fd5b5060405161117d38038061117d8339818101604052602081101561003357600080fd5b8101908080519060200190929190505050806000806101000a81548173ffffffffffffffffffffffffffffffffffffffff021916908373ffffffffffffffffffffffffffffffffffffffff160217905550506110e9806100946000396000f3fe608060405234801561001057600080fd5b50600436106100885760003560e01c8063b3d69b781161005b578063b3d69b78146101c1578063bd16a50714610203578063d54f7d5e14610221578063d7efbf341461026b57610088565b8063386e064e1461008d57806359326d81146100f3578063919840ad14610155578063985e361514610177575b600080fd5b6100cf600480360360208110156100a357600080fd5b81019080803573ffffffffffffffffffffffffffffffffffffffff169060200190929190505050610275565b60405180848152602001838152602001828152602001935050505060405180910390f35b61013f6004803603604081101561010957600080fd5b81019080803573ffffffffffffffffffffffffffffffffffffffff1690602001909291908035906020019092919050505061036e565b6040518082815260200191505060405180910390f35b61015d610393565b604051808215151515815260200191505060405180910390f35b61017f6103a6565b604051808273ffffffffffffffffffffffffffffffffffffffff1673ffffffffffffffffffffffffffffffffffffffff16815260200191505060405180910390f35b6101ed600480360360208110156101d757600080fd5b81019080803590602001909291905050506103cb565b6040518082815260200191505060405180910390f35b61020b6103e7565b6040518082815260200191505060405180910390f35b6102296106cb565b604051808273ffffffffffffffffffffffffffffffffffffffff1673ffffffffffffffffffffffffffffffffffffffff16815260200191505060405180910390f35b6102736106f4565b005b6000806000600160008573ffffffffffffffffffffffffffffffffffffffff1673ffffffffffffffffffffffffffffffffffffffff1681526020019081526020016000206000600381106102c557fe5b0154600160008673ffffffffffffffffffffffffffffffffffffffff1673ffffffffffffffffffffffffffffffffffffffff16815260200190815260200160002060016003811061031257fe5b0154600160008773ffffffffffffffffffffffffffffffffffffffff1673ffffffffffffffffffffffffffffffffffffffff16815260200190815260200160002060026003811061035f57fe5b01549250925092509193909250565b6001602052816000526040600020816003811061038757fe5b01600091509150505481565b600060149054906101000a900460ff1681565b6000809054906101000a900473ffffffffffffffffffffffffffffffffffffffff1681565b60006103e08242610d5a90919063ffffffff16565b9050919050565b60008033905060008173ffffffffffffffffffffffffffffffffffffffff16630ae6682060016040518263ffffffff1660e01b81526004018082815260200191505060206040518083038186803b15801561044157600080fd5b505afa158015610455573d6000803e3d6000fd5b505050506040513d602081101561046b57600080fd5b8101908080519060200190929190505050905060008273ffffffffffffffffffffffffffffffffffffffff1663a1b2ab286040518163ffffffff1660e01b815260040160206040518083038186803b1580156104c657600080fd5b505afa1580156104da573d6000803e3d6000fd5b505050506040513d60208110156104f057600080fd5b8101908080519060200190929190505050905060008173ffffffffffffffffffffffffffffffffffffffff166370a08231336040518263ffffffff1660e01b8152600401808273ffffffffffffffffffffffffffffffffffffffff1673ffffffffffffffffffffffffffffffffffffffff16815260200191505060206040518083038186803b15801561058257600080fd5b505afa158015610596573d6000803e3d6000fd5b505050506040513d60208110156105ac57600080fd5b8101908080519060200190929190505050905060008382816105ca57fe5b04905083600160003373ffffffffffffffffffffffffffffffffffffffff1673ffffffffffffffffffffffffffffffffffffffff16815260200190815260200160002060006003811061061957fe5b018190555080600160003373ffffffffffffffffffffffffffffffffffffffff1673ffffffffffffffffffffffffffffffffffffffff16815260200190815260200160002060016003811061066a57fe5b018190555081600160003373ffffffffffffffffffffffffffffffffffffffff1673ffffffffffffffffffffffffffffffffffffffff1681526020019081526020016000206002600381106106bb57fe5b0181905550809550505050505090565b60008060009054906101000a900473ffffffffffffffffffffffffffffffffffffffff16905090565b600033905060008173ffffffffffffffffffffffffffffffffffffffff1663a1b2ab286040518163ffffffff1660e01b815260040160206040518083038186803b15801561074157600080fd5b505afa158015610755573d6000803e3d6000fd5b505050506040513d602081101561076b57600080fd5b810190808051906020019092919050505090506000600160003373ffffffffffffffffffffffffffffffffffffffff1673ffffffffffffffffffffffffffffffffffffffff1681526020019081526020016000206000600381106107cb57fe5b015490506000600160003373ffffffffffffffffffffffffffffffffffffffff1673ffffffffffffffffffffffffffffffffffffffff16815260200190815260200160002060016003811061081c57fe5b015490506000600160003373ffffffffffffffffffffffffffffffffffffffff1673ffffffffffffffffffffffffffffffffffffffff16815260200190815260200160002060026003811061086d57fe5b015490508373ffffffffffffffffffffffffffffffffffffffff1663095ea7b36000809054906101000a900473ffffffffffffffffffffffffffffffffffffffff16836040518363ffffffff1660e01b8152600401808373ffffffffffffffffffffffffffffffffffffffff1673ffffffffffffffffffffffffffffffffffffffff16815260200182815260200192505050602060405180830381600087803b15801561091957600080fd5b505af115801561092d573d6000803e3d6000fd5b505050506040513d602081101561094357600080fd5b81019080805190602001909291905050506109c6576040517f08c379a000000000000000000000000000000000000000000000000000000000815260040180806020018281038252601d8152602001807f5472616e73666572206f6620636f6c6c61746572616c206661696c656400000081525060200191505060405180910390fd5b8473ffffffffffffffffffffffffffffffffffffffff1663095ea7b36000809054906101000a900473ffffffffffffffffffffffffffffffffffffffff16846040518363ffffffff1660e01b8152600401808373ffffffffffffffffffffffffffffffffffffffff1673ffffffffffffffffffffffffffffffffffffffff16815260200182815260200192505050602060405180830381600087803b158015610a6e57600080fd5b505af1158015610a82573d6000803e3d6000fd5b505050506040513d6020811015610a9857600080fd5b8101908080519060200190929190505050610b1b576040517f08c379a00000000000000000000000000000000000000000000000000000000081526004018080602001828103825260208152602001807f5472616e73666572206f66206d696e74656420746f6b656e73206661696c656481525060200191505060405180910390fd5b60008060008060009054906101000a900473ffffffffffffffffffffffffffffffffffffffff1673ffffffffffffffffffffffffffffffffffffffff1663e8e33700898988888a8a8f6103e842016040518963ffffffff1660e01b8152600401808973ffffffffffffffffffffffffffffffffffffffff1673ffffffffffffffffffffffffffffffffffffffff1681526020018873ffffffffffffffffffffffffffffffffffffffff1673ffffffffffffffffffffffffffffffffffffffff1681526020018781526020018681526020018581526020018481526020018373ffffffffffffffffffffffffffffffffffffffff1673ffffffffffffffffffffffffffffffffffffffff16815260200182815260200198505050505050505050606060405180830381600087803b158015610c5457600080fd5b505af1158015610c68573d6000803e3d6000fd5b505050506040513d6060811015610c7e57600080fd5b810190808051906020019092919080519060200190929190805190602001909291905050509250925092507f9aeb3aa662548c9122c5aba1e74f3863d6298b374a176bec6ad878f726db4d8083838360405180848152602001838152602001828152602001935050505060405180910390a15050503373ffffffffffffffffffffffffffffffffffffffff16634f921cf16040518163ffffffff1660e01b8152600401600060405180830381600087803b158015610d3b57600080fd5b505af1158015610d4f573d6000803e3d6000fd5b505050505050505050565b600080600080610d75620151808781610d6f57fe5b04610df9565b8093508194508295505050508482019150600c6001830381610d9357fe5b04830192506001600c6001840381610da757fe5b060191506000610db78484610ecd565b905080821115610dc5578091505b620151808781610dd157fe5b0662015180610de1868686610f58565b0201945086851015610def57fe5b5050505092915050565b600080600080849050600062253d8c62010bd98301019050600062023ab18260040281610e2257fe5b059050600460038262023ab1020181610e3757fe5b0582039150600062164b0960018401610fa00281610e5157fe5b059050601f6004826105b50281610e6457fe5b058403019250600061098f8460500281610e7a57fe5b059050600060508261098f0281610e8d57fe5b0585039050600b8281610e9c57fe5b05945084600c0260028301039150848360318603606402010192508298508197508096505050505050509193909250565b60006001821480610ede5750600382145b80610ee95750600582145b80610ef45750600782145b80610eff5750600882145b80610f0a5750600a82145b80610f155750600c82145b15610f2357601f9050610f52565b60028214610f3457601e9050610f51565b610f3d83611070565b610f4857601c610f4b565b601d5b60ff1690505b5b92915050565b60006107b2841015610fd2576040517f08c379a000000000000000000000000000000000000000000000000000000000815260040180806020018281038252600b8152602001807f45706f6368206572726f7200000000000000000000000000000000000000000081525060200191505060405180910390fd5b600084905060008490506000849050600062253d8c60046064600c600e870381610ff857fe5b056113248801018161100657fe5b056003028161101157fe5b05600c80600c600e88038161102257fe5b0502600287030361016f028161103457fe5b056004600c600e88038161104457fe5b056112c08901016105b5028161105657fe5b05617d4b8603010103039050809450505050509392505050565b6000806004838161107d57fe5b06148015611096575060006064838161109257fe5b0614155b806110ac5750600061019083816110a957fe5b06145b905091905056fea2646970667358221220f6c0100a5054c30f039a829616dd271440f8676ecc59dfa620330f27bfc70dff64736f6c63430006060033",
  "source": "pragma solidity 0.6.6;\n\nimport \"./IUniswapV2Router01.sol\";\nimport \"./I_Token.sol\";\nimport \"../node_modules/openzeppelin-solidity/contracts/token/ERC20/IERC20.sol\";\nimport \"./BokkyPooBahsDateTimeLibrary.sol\";\n\n/**\n  * @author Veronica Coutts @vonnie610 (twitter) @VeronicaLC (GitLab) \n  * @title  Market Transition\n  * @notice This curve contract enables an IBCO (Initial Bonding Curve Offering)\n  *         as a mechanism to launch a token into the open market without having\n  *         to raise the funds in a traditional manner.\n  *         This product is a beta. Use at your own risk.\n  */\ncontract MarketTransition {\n    using BokkyPooBahsDateTimeLibrary for uint256;\n    // Creates an instance of the uniswap router\n    IUniswapV2Router01 public routerInstance;\n\n    bool public check;\n    mapping(address => uint[3]) public transitionInfo;\n\n    event transitionToFreeMarket(uint amountA, uint amountB, uint liquidity);\n\n    constructor(address _uniswapRouter) public {\n        routerInstance = IUniswapV2Router01(_uniswapRouter);\n    }\n\n    function transition() public {\n        // Creates an instance of the token sender.\n        I_Token tokenInstance = I_Token(msg.sender);\n        // Creates an instance of the collateral token of the token.\n        IERC20 collateralInstance = IERC20(\n            tokenInstance.getCollateralInstance()\n        );\n        // // This gets the price of the next token in collateral\n        uint256 currentPrice = transitionInfo[msg.sender][0];\n        uint256 tokensToMint = transitionInfo[msg.sender][1];\n        uint256 collateralInToken = transitionInfo[msg.sender][2];\n\n        // TODO Checks if a pair is already created \n        // TODO if there is then the min A & B need to be sliders not set\n        {\n            // Approves the uniswap router as a spender for the collateral and\n            // tokens.\n            require(\n                collateralInstance.approve(\n                    address(routerInstance),\n                    collateralInToken\n                ),\n                \"Transfer of collateral failed\"\n            );\n            require(\n                tokenInstance.approve(\n                    address(routerInstance),\n                    tokensToMint\n                ),\n                \"Transfer of minted tokens failed\"\n            );\n            // Creates and adds liquidity for the pair on uniswap. \n            (\n                uint amountA, \n                uint amountB, \n                uint liquidity\n            ) = routerInstance.addLiquidity(\n                address(tokenInstance),\n                address(collateralInstance),\n                tokensToMint,\n                collateralInToken,\n                tokensToMint,\n                collateralInToken,\n                address(tokenInstance),\n                (now + 1000)\n            );\n\n            emit transitionToFreeMarket(amountA, amountB, liquidity);\n        }\n        // Sets the token to transitioned.\n        I_Token(msg.sender).setTransition();\n    }\n\n    /**\n      * @notice This functions stores the information around the prices for the\n      *         token as when this information was not stored the calculations\n      *         would inherintly be different as there would be new tokens \n      *         minted between this function and the transition function \n      *         iteself.\n      * @return uint256: The number of tokens the token will need to mint\n      *         for the start price of the uniswap market to be the same as the\n      *         end price of the bonding curve.\n      */\n    function getTokensToMint() public returns(uint256) {\n        I_Token tokenInstance = I_Token(msg.sender);\n        uint256 currentPrice = tokenInstance.getBuyCost(1);\n        // Makes an instance of the collateral token of the token\n        IERC20 collateralInstance = IERC20(\n            tokenInstance.getCollateralInstance()\n        );\n        \n        uint256 collateralInToken = collateralInstance.balanceOf(msg.sender);\n        uint256 tokensToMint = collateralInToken/currentPrice;\n\n        transitionInfo[msg.sender][0] = currentPrice;\n        transitionInfo[msg.sender][1] = tokensToMint;\n        transitionInfo[msg.sender][2] = collateralInToken;\n\n        return tokensToMint;\n    }\n\n    /**\n      * @return address: The address of the uniswap router. \n      */\n    function getRouterAddress() public view returns(address) {\n        return address(routerInstance);\n    }\n\n    /**\n      * @param  _token: The address of the token.\n      * @return uint: The current price. The price of the token at transition.\n      *         This should be the start price of the uniswap market. \n      * @return uint: The tokens minted to the transition contract.\n      * @return uint: The collateral moved out of the bonding curve and into the\n      *         uniswap market.\n      */\n    function getTransitionInfo(\n        address _token\n    ) \n        public \n        view \n        returns(\n            uint, \n            uint, \n            uint\n        ) \n    {\n        return (\n            transitionInfo[_token][0],\n            transitionInfo[_token][1],\n            transitionInfo[_token][2]\n        );\n    }\n\n    /**\n      * @notice I needed a time calaculator somewhere, so I added it in here.\n      * @param  _months: The number of months to be converted into unix time.\n      * @return uint256: The time stamp of the months in unix time.\n      */\n    function getMonthsFutureTimestamp(\n        uint256 _months\n    ) \n        public \n        view \n        returns(uint256) \n    {\n        return now.addMonths(_months);\n    }\n}",
  "sourcePath": "/Users/veronicac/Desktop/projects/linumlabs/BondingCurveFactory/contracts/MarketTransition.sol",
  "compiler": {
    "name": "solc",
    "version": "0.6.6+commit.6c089d02.Emscripten.clang",
    "optimizer": false,
    "runs": 200
  },
  "schemaVersion": "2.3.3",
  "updatedAt": "2020-05-23T10:03:09.738Z"
}