{
  "contractName": "Token",
  "abi": [
    {
      "inputs": [
        {
          "internalType": "address",
          "name": "_curveInstance",
          "type": "address"
        },
        {
          "internalType": "address",
          "name": "_transiton",
          "type": "address"
        },
        {
          "internalType": "uint256",
          "name": "_maxSupply",
          "type": "uint256"
        },
        {
          "internalType": "uint256[3]",
          "name": "_curveParameters",
          "type": "uint256[3]"
        },
        {
          "internalType": "string",
          "name": "_name",
          "type": "string"
        },
        {
          "internalType": "string",
          "name": "_sybol",
          "type": "string"
        },
        {
          "internalType": "address",
          "name": "_underlyingCollateral",
          "type": "address"
        },
        {
          "internalType": "uint256",
          "name": "_collateralThreshold",
          "type": "uint256"
        }
      ],
      "stateMutability": "nonpayable",
      "type": "constructor"
    },
    {
      "anonymous": false,
      "inputs": [
        {
          "indexed": true,
          "internalType": "address",
          "name": "owner",
          "type": "address"
        },
        {
          "indexed": true,
          "internalType": "address",
          "name": "spender",
          "type": "address"
        },
        {
          "indexed": false,
          "internalType": "uint256",
          "name": "value",
          "type": "uint256"
        }
      ],
      "name": "Approval",
      "type": "event"
    },
    {
      "anonymous": false,
      "inputs": [
        {
          "indexed": true,
          "internalType": "address",
          "name": "from",
          "type": "address"
        },
        {
          "indexed": true,
          "internalType": "address",
          "name": "to",
          "type": "address"
        },
        {
          "indexed": false,
          "internalType": "uint256",
          "name": "value",
          "type": "uint256"
        }
      ],
      "name": "Transfer",
      "type": "event"
    },
    {
      "anonymous": false,
      "inputs": [
        {
          "indexed": false,
          "internalType": "uint256",
          "name": "collateral",
          "type": "uint256"
        },
        {
          "indexed": false,
          "internalType": "uint256",
          "name": "tokensToMint",
          "type": "uint256"
        }
      ],
      "name": "transfering",
      "type": "event"
    },
    {
      "anonymous": false,
      "inputs": [
        {
          "indexed": false,
          "internalType": "uint256",
          "name": "amountA",
          "type": "uint256"
        },
        {
          "indexed": false,
          "internalType": "uint256",
          "name": "amountB",
          "type": "uint256"
        },
        {
          "indexed": false,
          "internalType": "uint256",
          "name": "liquidity",
          "type": "uint256"
        }
      ],
      "name": "transitionToFreeMarket",
      "type": "event"
    },
    {
      "anonymous": false,
      "inputs": [
        {
          "indexed": false,
          "internalType": "uint256",
          "name": "tokens",
          "type": "uint256"
        },
        {
          "indexed": false,
          "internalType": "uint256",
          "name": "collateral",
          "type": "uint256"
        },
        {
          "indexed": false,
          "internalType": "address",
          "name": "sender",
          "type": "address"
        }
      ],
      "name": "wtf",
      "type": "event"
    },
    {
      "inputs": [],
      "name": "a",
      "outputs": [
        {
          "internalType": "uint256",
          "name": "",
          "type": "uint256"
        }
      ],
      "stateMutability": "view",
      "type": "function"
    },
    {
      "inputs": [
        {
          "internalType": "address",
          "name": "owner",
          "type": "address"
        },
        {
          "internalType": "address",
          "name": "spender",
          "type": "address"
        }
      ],
      "name": "allowance",
      "outputs": [
        {
          "internalType": "uint256",
          "name": "",
          "type": "uint256"
        }
      ],
      "stateMutability": "view",
      "type": "function"
    },
    {
      "inputs": [
        {
          "internalType": "address",
          "name": "spender",
          "type": "address"
        },
        {
          "internalType": "uint256",
          "name": "amount",
          "type": "uint256"
        }
      ],
      "name": "approve",
      "outputs": [
        {
          "internalType": "bool",
          "name": "",
          "type": "bool"
        }
      ],
      "stateMutability": "nonpayable",
      "type": "function"
    },
    {
      "inputs": [],
      "name": "b",
      "outputs": [
        {
          "internalType": "uint256",
          "name": "",
          "type": "uint256"
        }
      ],
      "stateMutability": "view",
      "type": "function"
    },
    {
      "inputs": [
        {
          "internalType": "address",
          "name": "account",
          "type": "address"
        }
      ],
      "name": "balanceOf",
      "outputs": [
        {
          "internalType": "uint256",
          "name": "",
          "type": "uint256"
        }
      ],
      "stateMutability": "view",
      "type": "function"
    },
    {
      "inputs": [],
      "name": "c",
      "outputs": [
        {
          "internalType": "uint256",
          "name": "",
          "type": "uint256"
        }
      ],
      "stateMutability": "view",
      "type": "function"
    },
    {
      "inputs": [],
      "name": "collateralInstance",
      "outputs": [
        {
          "internalType": "contract IERC20",
          "name": "",
          "type": "address"
        }
      ],
      "stateMutability": "view",
      "type": "function"
    },
    {
      "inputs": [],
      "name": "collateralThreshold",
      "outputs": [
        {
          "internalType": "uint256",
          "name": "",
          "type": "uint256"
        }
      ],
      "stateMutability": "view",
      "type": "function"
    },
    {
      "inputs": [],
      "name": "curveInstance",
      "outputs": [
        {
          "internalType": "contract I_Curve",
          "name": "",
          "type": "address"
        }
      ],
      "stateMutability": "view",
      "type": "function"
    },
    {
      "inputs": [],
      "name": "decimals",
      "outputs": [
        {
          "internalType": "uint8",
          "name": "",
          "type": "uint8"
        }
      ],
      "stateMutability": "view",
      "type": "function"
    },
    {
      "inputs": [
        {
          "internalType": "address",
          "name": "spender",
          "type": "address"
        },
        {
          "internalType": "uint256",
          "name": "subtractedValue",
          "type": "uint256"
        }
      ],
      "name": "decreaseAllowance",
      "outputs": [
        {
          "internalType": "bool",
          "name": "",
          "type": "bool"
        }
      ],
      "stateMutability": "nonpayable",
      "type": "function"
    },
    {
      "inputs": [
        {
          "internalType": "address",
          "name": "spender",
          "type": "address"
        },
        {
          "internalType": "uint256",
          "name": "addedValue",
          "type": "uint256"
        }
      ],
      "name": "increaseAllowance",
      "outputs": [
        {
          "internalType": "bool",
          "name": "",
          "type": "bool"
        }
      ],
      "stateMutability": "nonpayable",
      "type": "function"
    },
    {
      "inputs": [],
      "name": "maxSupply",
      "outputs": [
        {
          "internalType": "uint256",
          "name": "",
          "type": "uint256"
        }
      ],
      "stateMutability": "view",
      "type": "function"
    },
    {
      "inputs": [],
      "name": "name",
      "outputs": [
        {
          "internalType": "string",
          "name": "",
          "type": "string"
        }
      ],
      "stateMutability": "view",
      "type": "function"
    },
    {
      "inputs": [],
      "name": "symbol",
      "outputs": [
        {
          "internalType": "string",
          "name": "",
          "type": "string"
        }
      ],
      "stateMutability": "view",
      "type": "function"
    },
    {
      "inputs": [],
      "name": "totalSupply",
      "outputs": [
        {
          "internalType": "uint256",
          "name": "",
          "type": "uint256"
        }
      ],
      "stateMutability": "view",
      "type": "function"
    },
    {
      "inputs": [
        {
          "internalType": "address",
          "name": "recipient",
          "type": "address"
        },
        {
          "internalType": "uint256",
          "name": "amount",
          "type": "uint256"
        }
      ],
      "name": "transfer",
      "outputs": [
        {
          "internalType": "bool",
          "name": "",
          "type": "bool"
        }
      ],
      "stateMutability": "nonpayable",
      "type": "function"
    },
    {
      "inputs": [
        {
          "internalType": "address",
          "name": "sender",
          "type": "address"
        },
        {
          "internalType": "address",
          "name": "recipient",
          "type": "address"
        },
        {
          "internalType": "uint256",
          "name": "amount",
          "type": "uint256"
        }
      ],
      "name": "transferFrom",
      "outputs": [
        {
          "internalType": "bool",
          "name": "",
          "type": "bool"
        }
      ],
      "stateMutability": "nonpayable",
      "type": "function"
    },
    {
      "inputs": [],
      "name": "transfterInstance",
      "outputs": [
        {
          "internalType": "contract I_MarketTransition",
          "name": "",
          "type": "address"
        }
      ],
      "stateMutability": "view",
      "type": "function"
    },
    {
      "inputs": [],
      "name": "transitionCompleated",
      "outputs": [
        {
          "internalType": "bool",
          "name": "",
          "type": "bool"
        }
      ],
      "stateMutability": "view",
      "type": "function"
    },
    {
      "inputs": [],
      "name": "transitionConditionsMet",
      "outputs": [
        {
          "internalType": "bool",
          "name": "",
          "type": "bool"
        }
      ],
      "stateMutability": "view",
      "type": "function"
    },
    {
      "inputs": [
        {
          "internalType": "uint256",
          "name": "_tokens",
          "type": "uint256"
        }
      ],
      "name": "buy",
      "outputs": [],
      "stateMutability": "nonpayable",
      "type": "function"
    },
    {
      "inputs": [
        {
          "internalType": "uint256",
          "name": "_tokens",
          "type": "uint256"
        }
      ],
      "name": "sell",
      "outputs": [],
      "stateMutability": "nonpayable",
      "type": "function"
    },
    {
      "inputs": [],
      "name": "setTransition",
      "outputs": [],
      "stateMutability": "nonpayable",
      "type": "function"
    },
    {
      "inputs": [
        {
          "internalType": "uint256",
          "name": "_tokens",
          "type": "uint256"
        }
      ],
      "name": "getBuyCost",
      "outputs": [
        {
          "internalType": "uint256",
          "name": "",
          "type": "uint256"
        }
      ],
      "stateMutability": "view",
      "type": "function"
    },
    {
      "inputs": [
        {
          "internalType": "uint256",
          "name": "_tokens",
          "type": "uint256"
        }
      ],
      "name": "getSellAmount",
      "outputs": [
        {
          "internalType": "uint256",
          "name": "",
          "type": "uint256"
        }
      ],
      "stateMutability": "view",
      "type": "function"
    },
    {
      "inputs": [],
      "name": "getCurve",
      "outputs": [
        {
          "internalType": "uint256",
          "name": "",
          "type": "uint256"
        },
        {
          "internalType": "uint256",
          "name": "",
          "type": "uint256"
        },
        {
          "internalType": "uint256",
          "name": "",
          "type": "uint256"
        }
      ],
      "stateMutability": "view",
      "type": "function"
    },
    {
      "inputs": [],
      "name": "getCollateralInstance",
      "outputs": [
        {
          "internalType": "address",
          "name": "",
          "type": "address"
        }
      ],
      "stateMutability": "view",
      "type": "function"
    },
    {
      "inputs": [],
      "name": "getTokenStatus",
      "outputs": [
        {
          "internalType": "bool",
          "name": "",
          "type": "bool"
        },
        {
          "internalType": "bool",
          "name": "",
          "type": "bool"
        }
      ],
      "stateMutability": "view",
      "type": "function"
    }
  ],
  "bytecode": "0x60806040523480156200001157600080fd5b50604051620032a3380380620032a383398181016040526101408110156200003857600080fd5b81019080805190602001909291908051906020019092919080519060200190929190919082606001805160405193929190846401000000008211156200007d57600080fd5b838201915060208201858111156200009457600080fd5b8251866001820283011164010000000082111715620000b257600080fd5b8083526020830192505050908051906020019080838360005b83811015620000e8578082015181840152602081019050620000cb565b50505050905090810190601f168015620001165780820380516001836020036101000a031916815260200191505b50604052602001805160405193929190846401000000008211156200013a57600080fd5b838201915060208201858111156200015157600080fd5b82518660018202830111640100000000821117156200016f57600080fd5b8083526020830192505050908051906020019080838360005b83811015620001a557808201518184015260208101905062000188565b50505050905090810190601f168015620001d35780820380516001836020036101000a031916815260200191505b506040526020018051906020019092919080519060200190929190505050838381600390805190602001906200020b9291906200036d565b508060049080519060200190620002249291906200036d565b506012600560006101000a81548160ff021916908360ff160217905550505087600a60006101000a81548173ffffffffffffffffffffffffffffffffffffffff021916908373ffffffffffffffffffffffffffffffffffffffff16021790555086600c60006101000a81548173ffffffffffffffffffffffffffffffffffffffff021916908373ffffffffffffffffffffffffffffffffffffffff1602179055508560068190555084600060038110620002da57fe5b602002015160078190555084600160038110620002f357fe5b6020020151600881905550846002600381106200030c57fe5b602002015160098190555081600b60006101000a81548173ffffffffffffffffffffffffffffffffffffffff021916908373ffffffffffffffffffffffffffffffffffffffff16021790555080600d8190555050505050505050506200041c565b828054600181600116156101000203166002900490600052602060002090601f016020900481019282601f10620003b057805160ff1916838001178555620003e1565b82800160010185558215620003e1579182015b82811115620003e0578251825591602001919060010190620003c3565b5b509050620003f09190620003f4565b5090565b6200041991905b8082111562000415576000816000905550600101620003fb565b5090565b90565b612e77806200042c6000396000f3fe608060405234801561001057600080fd5b50600436106101cf5760003560e01c8063647aa99611610104578063a457c2d7116100a2578063d73e8d4211610071578063d73e8d421461084f578063d96a094a1461087b578063dd62ed3e146108a9578063e4849b3214610921576101cf565b8063a457c2d714610747578063a9059cbb146107ad578063c3da42b814610813578063d5abeb0114610831576101cf565b80637edc9d4b116100de5780637edc9d4b1461062f5780638e8cfbde1461065c57806395d89b411461067a578063a1b2ab28146106fd576101cf565b8063647aa9961461057357806370a0823114610595578063768713f5146105ed576101cf565b8063313ce5671161017157806340fce0f91161014b57806340fce0f9146104b7578063495ebdc6146105015780634df7e3d01461054b5780634f921cf114610569576101cf565b8063313ce5671461040b578063395093511461042f5780633f10137614610495576101cf565b80630dbe671f116101ad5780630dbe671f146102ff57806318160ddd1461031d57806319e6f29a1461033b57806323b872dd14610385576101cf565b806306fdde03146101d4578063095ea7b3146102575780630ae66820146102bd575b600080fd5b6101dc61094f565b6040518080602001828103825283818151815260200191508051906020019080838360005b8381101561021c578082015181840152602081019050610201565b50505050905090810190601f1680156102495780820380516001836020036101000a031916815260200191505b509250505060405180910390f35b6102a36004803603604081101561026d57600080fd5b81019080803573ffffffffffffffffffffffffffffffffffffffff169060200190929190803590602001909291905050506109f1565b604051808215151515815260200191505060405180910390f35b6102e9600480360360208110156102d357600080fd5b8101908080359060200190929190505050610a0f565b6040518082815260200191505060405180910390f35b610307610ac6565b6040518082815260200191505060405180910390f35b610325610acc565b6040518082815260200191505060405180910390f35b610343610ad6565b604051808273ffffffffffffffffffffffffffffffffffffffff1673ffffffffffffffffffffffffffffffffffffffff16815260200191505060405180910390f35b6103f16004803603606081101561039b57600080fd5b81019080803573ffffffffffffffffffffffffffffffffffffffff169060200190929190803573ffffffffffffffffffffffffffffffffffffffff16906020019092919080359060200190929190505050610afc565b604051808215151515815260200191505060405180910390f35b610413610bd5565b604051808260ff1660ff16815260200191505060405180910390f35b61047b6004803603604081101561044557600080fd5b81019080803573ffffffffffffffffffffffffffffffffffffffff16906020019092919080359060200190929190505050610bec565b604051808215151515815260200191505060405180910390f35b61049d610c9f565b604051808215151515815260200191505060405180910390f35b6104bf610cb2565b604051808273ffffffffffffffffffffffffffffffffffffffff1673ffffffffffffffffffffffffffffffffffffffff16815260200191505060405180910390f35b610509610cd8565b604051808273ffffffffffffffffffffffffffffffffffffffff1673ffffffffffffffffffffffffffffffffffffffff16815260200191505060405180910390f35b610553610cfe565b6040518082815260200191505060405180910390f35b610571610d04565b005b61057b610dc7565b604051808215151515815260200191505060405180910390f35b6105d7600480360360208110156105ab57600080fd5b81019080803573ffffffffffffffffffffffffffffffffffffffff169060200190929190505050610dda565b6040518082815260200191505060405180910390f35b6106196004803603602081101561060357600080fd5b8101908080359060200190929190505050610e22565b6040518082815260200191505060405180910390f35b610637610f6b565b6040518083151515158152602001821515151581526020019250505060405180910390f35b610664610f96565b6040518082815260200191505060405180910390f35b610682610f9c565b6040518080602001828103825283818151815260200191508051906020019080838360005b838110156106c25780820151818401526020810190506106a7565b50505050905090810190601f1680156106ef5780820380516001836020036101000a031916815260200191505b509250505060405180910390f35b61070561103e565b604051808273ffffffffffffffffffffffffffffffffffffffff1673ffffffffffffffffffffffffffffffffffffffff16815260200191505060405180910390f35b6107936004803603604081101561075d57600080fd5b81019080803573ffffffffffffffffffffffffffffffffffffffff16906020019092919080359060200190929190505050611068565b604051808215151515815260200191505060405180910390f35b6107f9600480360360408110156107c357600080fd5b81019080803573ffffffffffffffffffffffffffffffffffffffff16906020019092919080359060200190929190505050611135565b604051808215151515815260200191505060405180910390f35b61081b611153565b6040518082815260200191505060405180910390f35b610839611159565b6040518082815260200191505060405180910390f35b61085761115f565b60405180848152602001838152602001828152602001935050505060405180910390f35b6108a76004803603602081101561089157600080fd5b8101908080359060200190929190505050611178565b005b61090b600480360360408110156108bf57600080fd5b81019080803573ffffffffffffffffffffffffffffffffffffffff169060200190929190803573ffffffffffffffffffffffffffffffffffffffff169060200190929190505050611932565b6040518082815260200191505060405180910390f35b61094d6004803603602081101561093757600080fd5b81019080803590602001909291905050506119b9565b005b606060038054600181600116156101000203166002900480601f0160208091040260200160405190810160405280929190818152602001828054600181600116156101000203166002900480156109e75780601f106109bc576101008083540402835291602001916109e7565b820191906000526020600020905b8154815290600101906020018083116109ca57829003601f168201915b5050505050905090565b6000610a056109fe611cce565b8484611cd6565b6001905092915050565b6000600a60009054906101000a900473ffffffffffffffffffffffffffffffffffffffff1673ffffffffffffffffffffffffffffffffffffffff166308d4db14836040518263ffffffff1660e01b81526004018082815260200191505060206040518083038186803b158015610a8457600080fd5b505afa158015610a98573d6000803e3d6000fd5b505050506040513d6020811015610aae57600080fd5b81019080805190602001909291905050509050919050565b60075481565b6000600254905090565b600c60009054906101000a900473ffffffffffffffffffffffffffffffffffffffff1681565b6000610b09848484611ecd565b610bca84610b15611cce565b610bc585604051806060016040528060288152602001612d0e60289139600160008b73ffffffffffffffffffffffffffffffffffffffff1673ffffffffffffffffffffffffffffffffffffffff1681526020019081526020016000206000610b7b611cce565b73ffffffffffffffffffffffffffffffffffffffff1673ffffffffffffffffffffffffffffffffffffffff1681526020019081526020016000205461218e9092919063ffffffff16565b611cd6565b600190509392505050565b6000600560009054906101000a900460ff16905090565b6000610c95610bf9611cce565b84610c908560016000610c0a611cce565b73ffffffffffffffffffffffffffffffffffffffff1673ffffffffffffffffffffffffffffffffffffffff16815260200190815260200160002060008973ffffffffffffffffffffffffffffffffffffffff1673ffffffffffffffffffffffffffffffffffffffff1681526020019081526020016000205461224e90919063ffffffff16565b611cd6565b6001905092915050565b600c60159054906101000a900460ff1681565b600a60009054906101000a900473ffffffffffffffffffffffffffffffffffffffff1681565b600b60009054906101000a900473ffffffffffffffffffffffffffffffffffffffff1681565b60085481565b600c60009054906101000a900473ffffffffffffffffffffffffffffffffffffffff1673ffffffffffffffffffffffffffffffffffffffff163373ffffffffffffffffffffffffffffffffffffffff1614610daa576040517f08c379a0000000000000000000000000000000000000000000000000000000008152600401808060200182810382526039815260200180612dc26039913960400191505060405180910390fd5b6001600c60156101000a81548160ff021916908315150217905550565b600c60149054906101000a900460ff1681565b60008060008373ffffffffffffffffffffffffffffffffffffffff1673ffffffffffffffffffffffffffffffffffffffff168152602001908152602001600020549050919050565b6000803073ffffffffffffffffffffffffffffffffffffffff166318160ddd6040518163ffffffff1660e01b815260040160206040518083038186803b158015610e6b57600080fd5b505afa158015610e7f573d6000803e3d6000fd5b505050506040513d6020811015610e9557600080fd5b81019080805190602001909291905050501415610eb55760009050610f66565b600a60009054906101000a900473ffffffffffffffffffffffffffffffffffffffff1673ffffffffffffffffffffffffffffffffffffffff1663768713f5836040518263ffffffff1660e01b81526004018082815260200191505060206040518083038186803b158015610f2857600080fd5b505afa158015610f3c573d6000803e3d6000fd5b505050506040513d6020811015610f5257600080fd5b810190808051906020019092919050505090505b919050565b600080600c60149054906101000a900460ff16600c60159054906101000a900460ff16915091509091565b600d5481565b606060048054600181600116156101000203166002900480601f0160208091040260200160405190810160405280929190818152602001828054600181600116156101000203166002900480156110345780601f1061100957610100808354040283529160200191611034565b820191906000526020600020905b81548152906001019060200180831161101757829003601f168201915b5050505050905090565b6000600b60009054906101000a900473ffffffffffffffffffffffffffffffffffffffff16905090565b600061112b611075611cce565b8461112685604051806060016040528060258152602001612e1d602591396001600061109f611cce565b73ffffffffffffffffffffffffffffffffffffffff1673ffffffffffffffffffffffffffffffffffffffff16815260200190815260200160002060008a73ffffffffffffffffffffffffffffffffffffffff1673ffffffffffffffffffffffffffffffffffffffff1681526020019081526020016000205461218e9092919063ffffffff16565b611cd6565b6001905092915050565b6000611149611142611cce565b8484611ecd565b6001905092915050565b60095481565b60065481565b6000806000600754600854600954925092509250909192565b600c60159054906101000a900460ff16156111de576040517f08c379a0000000000000000000000000000000000000000000000000000000008152600401808060200182810382526022815260200180612dfb6022913960400191505060405180910390fd5b6111e96001826122d6565b600c60149054906101000a900460ff161561162657803073ffffffffffffffffffffffffffffffffffffffff166318160ddd6040518163ffffffff1660e01b815260040160206040518083038186803b15801561124557600080fd5b505afa158015611259573d6000803e3d6000fd5b505050506040513d602081101561126f57600080fd5b810190808051906020019092919050505001600d5411611619573073ffffffffffffffffffffffffffffffffffffffff166318160ddd6040518163ffffffff1660e01b815260040160206040518083038186803b1580156112cf57600080fd5b505afa1580156112e3573d6000803e3d6000fd5b505050506040513d60208110156112f957600080fd5b8101908080519060200190929190505050600d54039050600061131b82610a0f565b905080600b60009054906101000a900473ffffffffffffffffffffffffffffffffffffffff1673ffffffffffffffffffffffffffffffffffffffff1663dd62ed3e33306040518363ffffffff1660e01b8152600401808373ffffffffffffffffffffffffffffffffffffffff1673ffffffffffffffffffffffffffffffffffffffff1681526020018273ffffffffffffffffffffffffffffffffffffffff1673ffffffffffffffffffffffffffffffffffffffff1681526020019250505060206040518083038186803b1580156113f157600080fd5b505afa158015611405573d6000803e3d6000fd5b505050506040513d602081101561141b57600080fd5b81019080805190602001909291905050501015611483576040517f08c379a0000000000000000000000000000000000000000000000000000000008152600401808060200182810382526034815260200180612c7b6034913960400191505060405180910390fd5b600b60009054906101000a900473ffffffffffffffffffffffffffffffffffffffff1673ffffffffffffffffffffffffffffffffffffffff166323b872dd3330846040518463ffffffff1660e01b8152600401808473ffffffffffffffffffffffffffffffffffffffff1673ffffffffffffffffffffffffffffffffffffffff1681526020018373ffffffffffffffffffffffffffffffffffffffff1673ffffffffffffffffffffffffffffffffffffffff1681526020018281526020019350505050602060405180830381600087803b15801561156057600080fd5b505af1158015611574573d6000803e3d6000fd5b505050506040513d602081101561158a57600080fd5b810190808051906020019092919050505061160d576040517f08c379a00000000000000000000000000000000000000000000000000000000081526004018080602001828103825260208152602001807f5472616e73666572696e67206f6620636f6c6c61746572616c206661696c656481525060200191505060405180910390fd5b6116173383612381565b505b611621612548565b61192f565b600061163182610a0f565b905080600b60009054906101000a900473ffffffffffffffffffffffffffffffffffffffff1673ffffffffffffffffffffffffffffffffffffffff1663dd62ed3e33306040518363ffffffff1660e01b8152600401808373ffffffffffffffffffffffffffffffffffffffff1673ffffffffffffffffffffffffffffffffffffffff1681526020018273ffffffffffffffffffffffffffffffffffffffff1673ffffffffffffffffffffffffffffffffffffffff1681526020019250505060206040518083038186803b15801561170757600080fd5b505afa15801561171b573d6000803e3d6000fd5b505050506040513d602081101561173157600080fd5b81019080805190602001909291905050501015611799576040517f08c379a0000000000000000000000000000000000000000000000000000000008152600401808060200182810382526034815260200180612c7b6034913960400191505060405180910390fd5b600b60009054906101000a900473ffffffffffffffffffffffffffffffffffffffff1673ffffffffffffffffffffffffffffffffffffffff166323b872dd3330846040518463ffffffff1660e01b8152600401808473ffffffffffffffffffffffffffffffffffffffff1673ffffffffffffffffffffffffffffffffffffffff1681526020018373ffffffffffffffffffffffffffffffffffffffff1673ffffffffffffffffffffffffffffffffffffffff1681526020018281526020019350505050602060405180830381600087803b15801561187657600080fd5b505af115801561188a573d6000803e3d6000fd5b505050506040513d60208110156118a057600080fd5b8101908080519060200190929190505050611923576040517f08c379a00000000000000000000000000000000000000000000000000000000081526004018080602001828103825260208152602001807f5472616e73666572696e67206f6620636f6c6c61746572616c206661696c656481525060200191505060405180910390fd5b61192d3383612381565b505b50565b6000600160008473ffffffffffffffffffffffffffffffffffffffff1673ffffffffffffffffffffffffffffffffffffffff16815260200190815260200160002060008373ffffffffffffffffffffffffffffffffffffffff1673ffffffffffffffffffffffffffffffffffffffff16815260200190815260200160002054905092915050565b600c60159054906101000a900460ff1615611a1f576040517f08c379a0000000000000000000000000000000000000000000000000000000008152600401808060200182810382526022815260200180612dfb6022913960400191505060405180910390fd5b611a2a6000826122d6565b600c60149054906101000a900460ff1615611a4c57611a47612548565b611ccb565b6000611a5782610e22565b9050813073ffffffffffffffffffffffffffffffffffffffff166370a08231336040518263ffffffff1660e01b8152600401808273ffffffffffffffffffffffffffffffffffffffff1673ffffffffffffffffffffffffffffffffffffffff16815260200191505060206040518083038186803b158015611ad757600080fd5b505afa158015611aeb573d6000803e3d6000fd5b505050506040513d6020811015611b0157600080fd5b81019080805190602001909291905050501015611b69576040517f08c379a0000000000000000000000000000000000000000000000000000000008152600401808060200182810382526022815260200180612da06022913960400191505060405180910390fd5b600b60009054906101000a900473ffffffffffffffffffffffffffffffffffffffff1673ffffffffffffffffffffffffffffffffffffffff1663a9059cbb33836040518363ffffffff1660e01b8152600401808373ffffffffffffffffffffffffffffffffffffffff1673ffffffffffffffffffffffffffffffffffffffff16815260200182815260200192505050602060405180830381600087803b158015611c1257600080fd5b505af1158015611c26573d6000803e3d6000fd5b505050506040513d6020811015611c3c57600080fd5b8101908080519060200190929190505050611cbf576040517f08c379a00000000000000000000000000000000000000000000000000000000081526004018080602001828103825260208152602001807f5472616e73666572696e67206f6620636f6c6c61746572616c206661696c656481525060200191505060405180910390fd5b611cc93383612a00565b505b50565b600033905090565b600073ffffffffffffffffffffffffffffffffffffffff168373ffffffffffffffffffffffffffffffffffffffff161415611d5c576040517f08c379a0000000000000000000000000000000000000000000000000000000008152600401808060200182810382526024815260200180612d7c6024913960400191505060405180910390fd5b600073ffffffffffffffffffffffffffffffffffffffff168273ffffffffffffffffffffffffffffffffffffffff161415611de2576040517f08c379a0000000000000000000000000000000000000000000000000000000008152600401808060200182810382526022815260200180612c596022913960400191505060405180910390fd5b80600160008573ffffffffffffffffffffffffffffffffffffffff1673ffffffffffffffffffffffffffffffffffffffff16815260200190815260200160002060008473ffffffffffffffffffffffffffffffffffffffff1673ffffffffffffffffffffffffffffffffffffffff168152602001908152602001600020819055508173ffffffffffffffffffffffffffffffffffffffff168373ffffffffffffffffffffffffffffffffffffffff167f8c5be1e5ebec7d5bd14f71427d1e84f3dd0314c0f7b2291e5b200ac8c7c3b925836040518082815260200191505060405180910390a3505050565b600073ffffffffffffffffffffffffffffffffffffffff168373ffffffffffffffffffffffffffffffffffffffff161415611f53576040517f08c379a0000000000000000000000000000000000000000000000000000000008152600401808060200182810382526025815260200180612d576025913960400191505060405180910390fd5b600073ffffffffffffffffffffffffffffffffffffffff168273ffffffffffffffffffffffffffffffffffffffff161415611fd9576040517f08c379a0000000000000000000000000000000000000000000000000000000008152600401808060200182810382526023815260200180612c146023913960400191505060405180910390fd5b611fe4838383612bc4565b61204f81604051806060016040528060268152602001612ce8602691396000808773ffffffffffffffffffffffffffffffffffffffff1673ffffffffffffffffffffffffffffffffffffffff1681526020019081526020016000205461218e9092919063ffffffff16565b6000808573ffffffffffffffffffffffffffffffffffffffff1673ffffffffffffffffffffffffffffffffffffffff168152602001908152602001600020819055506120e2816000808573ffffffffffffffffffffffffffffffffffffffff1673ffffffffffffffffffffffffffffffffffffffff1681526020019081526020016000205461224e90919063ffffffff16565b6000808473ffffffffffffffffffffffffffffffffffffffff1673ffffffffffffffffffffffffffffffffffffffff168152602001908152602001600020819055508173ffffffffffffffffffffffffffffffffffffffff168373ffffffffffffffffffffffffffffffffffffffff167fddf252ad1be2c89b69c2b068fc378daa952ba7f163c4a11628f55a4df523b3ef836040518082815260200191505060405180910390a3505050565b600083831115829061223b576040517f08c379a00000000000000000000000000000000000000000000000000000000081526004018080602001828103825283818151815260200191508051906020019080838360005b838110156122005780820151818401526020810190506121e5565b50505050905090810190601f16801561222d5780820380516001836020036101000a031916815260200191505b509250505060405180910390fd5b5060008385039050809150509392505050565b6000808284019050838110156122cc576040517f08c379a000000000000000000000000000000000000000000000000000000000815260040180806020018281038252601b8152602001807f536166654d6174683a206164646974696f6e206f766572666c6f77000000000081525060200191505060405180910390fd5b8091505092915050565b803073ffffffffffffffffffffffffffffffffffffffff166318160ddd6040518163ffffffff1660e01b815260040160206040518083038186803b15801561231d57600080fd5b505afa158015612331573d6000803e3d6000fd5b505050506040513d602081101561234757600080fd5b810190808051906020019092919050505001600d541161237d576001600c60146101000a81548160ff0219169083151502179055505b5050565b600073ffffffffffffffffffffffffffffffffffffffff168273ffffffffffffffffffffffffffffffffffffffff161415612424576040517f08c379a000000000000000000000000000000000000000000000000000000000815260040180806020018281038252601f8152602001807f45524332303a206d696e7420746f20746865207a65726f20616464726573730081525060200191505060405180910390fd5b61243060008383612bc4565b6124458160025461224e90919063ffffffff16565b60028190555061249c816000808573ffffffffffffffffffffffffffffffffffffffff1673ffffffffffffffffffffffffffffffffffffffff1681526020019081526020016000205461224e90919063ffffffff16565b6000808473ffffffffffffffffffffffffffffffffffffffff1673ffffffffffffffffffffffffffffffffffffffff168152602001908152602001600020819055508173ffffffffffffffffffffffffffffffffffffffff16600073ffffffffffffffffffffffffffffffffffffffff167fddf252ad1be2c89b69c2b068fc378daa952ba7f163c4a11628f55a4df523b3ef836040518082815260200191505060405180910390a35050565b600c60149054906101000a900460ff166125ad576040517f08c379a0000000000000000000000000000000000000000000000000000000008152600401808060200182810382526039815260200180612caf6039913960400191505060405180910390fd5b6000600c60009054906101000a900473ffffffffffffffffffffffffffffffffffffffff1673ffffffffffffffffffffffffffffffffffffffff1663d54f7d5e6040518163ffffffff1660e01b815260040160206040518083038186803b15801561261757600080fd5b505afa15801561262b573d6000803e3d6000fd5b505050506040513d602081101561264157600080fd5b810190808051906020019092919050505090506000600c60009054906101000a900473ffffffffffffffffffffffffffffffffffffffff1673ffffffffffffffffffffffffffffffffffffffff1663bd16a5076040518163ffffffff1660e01b8152600401602060405180830381600087803b1580156126c057600080fd5b505af11580156126d4573d6000803e3d6000fd5b505050506040513d60208110156126ea57600080fd5b81019080805190602001909291905050509050612729600c60009054906101000a900473ffffffffffffffffffffffffffffffffffffffff1682612381565b600b60009054906101000a900473ffffffffffffffffffffffffffffffffffffffff1673ffffffffffffffffffffffffffffffffffffffff1663a9059cbb600c60009054906101000a900473ffffffffffffffffffffffffffffffffffffffff16600b60009054906101000a900473ffffffffffffffffffffffffffffffffffffffff1673ffffffffffffffffffffffffffffffffffffffff166370a08231306040518263ffffffff1660e01b8152600401808273ffffffffffffffffffffffffffffffffffffffff1673ffffffffffffffffffffffffffffffffffffffff16815260200191505060206040518083038186803b15801561282957600080fd5b505afa15801561283d573d6000803e3d6000fd5b505050506040513d602081101561285357600080fd5b81019080805190602001909291905050506040518363ffffffff1660e01b8152600401808373ffffffffffffffffffffffffffffffffffffffff1673ffffffffffffffffffffffffffffffffffffffff16815260200182815260200192505050602060405180830381600087803b1580156128cd57600080fd5b505af11580156128e1573d6000803e3d6000fd5b505050506040513d60208110156128f757600080fd5b810190808051906020019092919050505061297a576040517f08c379a000000000000000000000000000000000000000000000000000000000815260040180806020018281038252601d8152602001807f5472616e73666572206f6620636f6c6c61746572616c206661696c656400000081525060200191505060405180910390fd5b600c60009054906101000a900473ffffffffffffffffffffffffffffffffffffffff1673ffffffffffffffffffffffffffffffffffffffff1663d7efbf346040518163ffffffff1660e01b8152600401600060405180830381600087803b1580156129e457600080fd5b505af11580156129f8573d6000803e3d6000fd5b505050505050565b600073ffffffffffffffffffffffffffffffffffffffff168273ffffffffffffffffffffffffffffffffffffffff161415612a86576040517f08c379a0000000000000000000000000000000000000000000000000000000008152600401808060200182810382526021815260200180612d366021913960400191505060405180910390fd5b612a9282600083612bc4565b612afd81604051806060016040528060228152602001612c37602291396000808673ffffffffffffffffffffffffffffffffffffffff1673ffffffffffffffffffffffffffffffffffffffff1681526020019081526020016000205461218e9092919063ffffffff16565b6000808473ffffffffffffffffffffffffffffffffffffffff1673ffffffffffffffffffffffffffffffffffffffff16815260200190815260200160002081905550612b5481600254612bc990919063ffffffff16565b600281905550600073ffffffffffffffffffffffffffffffffffffffff168273ffffffffffffffffffffffffffffffffffffffff167fddf252ad1be2c89b69c2b068fc378daa952ba7f163c4a11628f55a4df523b3ef836040518082815260200191505060405180910390a35050565b505050565b6000612c0b83836040518060400160405280601e81526020017f536166654d6174683a207375627472616374696f6e206f766572666c6f77000081525061218e565b90509291505056fe45524332303a207472616e7366657220746f20746865207a65726f206164647265737345524332303a206275726e20616d6f756e7420657863656564732062616c616e636545524332303a20617070726f766520746f20746865207a65726f20616464726573735573657220686173206e6f7420617070726f76656420636f6e747261637420666f7220746f6b656e20636f737420616d6f756e74546f6b656e20686173206e6f74206d657420726571756972656d656e747320666f722066726565206d61726b6574207472616e736974696f6e45524332303a207472616e7366657220616d6f756e7420657863656564732062616c616e636545524332303a207472616e7366657220616d6f756e74206578636565647320616c6c6f77616e636545524332303a206275726e2066726f6d20746865207a65726f206164647265737345524332303a207472616e736665722066726f6d20746865207a65726f206164647265737345524332303a20617070726f76652066726f6d20746865207a65726f206164647265737343616e6e6f742073656c6c206d6f726520746f6b656e73207468616e206f776e65644f6e6c79207472616e736974696f6e696e6720636f6e7472616374206d6179206d61726b207472616e736974696f6e20636f6d706c656174654d61726b657420686173207472616e736974696f6e656420746f20756e697377617045524332303a2064656372656173656420616c6c6f77616e63652062656c6f77207a65726fa2646970667358221220e10a6f0855647219ad991ad6ba071e72ab3bbcceb8eea145108266d8cbf6e21a64736f6c63430006060033",
  "source": "pragma solidity 0.6.6;\n\nimport \"./I_Token.sol\";\nimport \"./I_Curve.sol\";\nimport \"./I_MarketTransition.sol\";\nimport \"./IUniswapV2Router01.sol\";\nimport \"../node_modules/openzeppelin-solidity/contracts/token/ERC20/ERC20.sol\";\nimport \"../node_modules/openzeppelin-solidity/contracts/token/ERC20/IERC20.sol\";\n\ncontract Token is ERC20 {\n    uint256 public maxSupply;\n    uint256 public a;\n    uint256 public b;\n    uint256 public c;\n    I_Curve public curveInstance;\n    IERC20 public collateralInstance;\n    I_MarketTransition public transfterInstance;\n\n    bool public transitionConditionsMet;\n    bool public transitionCompleated;\n    // Threshold collateral amount for open market transition\n    uint256 public collateralThreshold;\n\n    event transfering(uint collateral, uint tokensToMint);\n    event transitionToFreeMarket(uint amountA, uint amountB, uint liquidity);\n    event wtf(uint tokens, uint collateral, address sender);\n\n    modifier freeMarket() {\n        require(\n            !transitionCompleated,\n            \"Market has transitioned to uniswap\"\n        );\n        _;\n    }\n\n    constructor(\n        address _curveInstance,\n        address _transiton,\n        uint256 _maxSupply,\n        uint256[3] memory _curveParameters,\n        string memory _name,\n        string memory _sybol,\n        address _underlyingCollateral,\n        uint256 _collateralThreshold\n    )\n        ERC20(\n            _name,\n            _sybol\n        )\n        public \n    {\n        curveInstance = I_Curve(_curveInstance);\n        transfterInstance = I_MarketTransition(_transiton);\n        maxSupply = _maxSupply;\n        a = _curveParameters[0];\n        b = _curveParameters[1];\n        c = _curveParameters[2];\n        collateralInstance = IERC20(_underlyingCollateral);\n\n        collateralThreshold = _collateralThreshold;\n    }\n\n    function buy(uint256 _tokens) external freeMarket() {\n        _transitionCheck(true, _tokens); \n        // TODO 1. if your buy will push the limit you should be able to\n        // buy up untill the limit (to met the amount so that it transitions)\n        // and then it will not use any funds over that\n        // and possibly removes exes approval (just to set a good stanard)\n        // if(supply+_tokens => transitionCheck == true) {then buy till limit}\n        if(transitionConditionsMet) {\n            if(\n                collateralThreshold <= \n                (this.totalSupply() + _tokens)\n            ) {\n                _tokens = collateralThreshold - this.totalSupply();\n\n                uint256 cost = getBuyCost(_tokens);\n\n                require(\n                    collateralInstance.allowance(\n                        msg.sender, address(this)\n                    ) >= cost,\n                    \"User has not approved contract for token cost amount\"\n                );\n\n                require(\n                    collateralInstance.transferFrom(\n                        msg.sender,\n                        address(this),\n                        cost\n                    ),\n                    \"Transfering of collateral failed\"\n                );\n\n                _mint(msg.sender, _tokens);\n            }\n            _transition();\n        } else {\n            uint256 cost = getBuyCost(_tokens);\n\n            require(\n                collateralInstance.allowance(\n                    msg.sender, address(this)\n                ) >= cost,\n                \"User has not approved contract for token cost amount\"\n            );\n\n            require(\n                collateralInstance.transferFrom(\n                    msg.sender,\n                    address(this),\n                    cost\n                ),\n                \"Transfering of collateral failed\"\n            );\n\n            _mint(msg.sender, _tokens);\n        }\n    }\n\n    function sell(uint256 _tokens) external freeMarket() {\n        _transitionCheck(false, _tokens); \n        if(transitionConditionsMet) {\n            _transition();\n        } else {\n            uint256 reward = getSellAmount(_tokens);\n\n            require(\n                this.balanceOf(msg.sender) >= _tokens,\n                \"Cannot sell more tokens than owned\"\n            );\n\n            require(\n                collateralInstance.transfer(\n                    msg.sender,\n                    reward\n                ),\n                \"Transfering of collateral failed\"\n            );\n\n            _burn(msg.sender, _tokens);\n        }\n    }\n\n    function setTransition() external {\n        require(\n            msg.sender == address(transfterInstance),\n            \"Only transitioning contract may mark transition compleate\"\n        );\n\n        transitionCompleated = true;\n    }\n\n    function getBuyCost(uint256 _tokens) public view returns(uint256) {\n        return curveInstance.getBuyPrice(_tokens);\n    } \n\n    function getSellAmount(uint256 _tokens) public view returns(uint256) {\n        if(this.totalSupply() == 0) {\n            return 0;\n        } else {\n            return curveInstance.getSellAmount(_tokens);\n        }\n    } \n    \n    function getCurve() external view returns (\n        uint256,\n        uint256,\n        uint256\n    ) {\n        return (a, b, c);\n    }\n\n    function getCollateralInstance() external view returns(address) {\n        return address(collateralInstance);\n    }\n\n    function getTokenStatus() \n        external \n        view \n        returns(\n            bool,\n            bool\n        )   \n    {\n        //TODO also return additional checks\n        return (\n            transitionConditionsMet,\n            transitionCompleated\n        );\n    }\n\n    function _transitionCheck(bool _buy, uint _tokenAmount) internal {\n        if(\n            collateralThreshold <= \n            (this.totalSupply() + _tokenAmount)\n        ) {\n            transitionConditionsMet = true;\n        }\n\n        //TODO add checks for various other conditions:\n        /**\n           collateral threshold \n           collateral timeout\n           minimum collateral threashold \n          */\n    }\n\n    function _transition() internal {\n        require(\n            transitionConditionsMet,\n            \"Token has not met requirements for free market transition\"\n        );\n\n        address router = transfterInstance.getRouterAddress();\n        uint256 tokensToMint = transfterInstance.getTokensToMint();\n        _mint(address(transfterInstance), tokensToMint);\n        // Approves \n        require(\n            collateralInstance.transfer(\n                address(transfterInstance),\n                collateralInstance.balanceOf(address(this))\n            ),\n            \"Transfer of collateral failed\"\n        );\n\n        //TODO make mt\n        transfterInstance.transition();\n    }\n    //TODO update interface with all functions\n}",
  "sourcePath": "/Users/veronicac/Desktop/projects/linumlabs/BondingCurveFactory/contracts/Token.sol",
  "compiler": {
    "name": "solc",
    "version": "0.6.6+commit.6c089d02.Emscripten.clang",
    "optimizer": false,
    "runs": 200
  },
  "schemaVersion": "2.3.3",
  "updatedAt": "2020-05-21T11:57:08.615Z"
}