{
  "contractName": "Token",
  "abi": [
    {
      "inputs": [
        {
          "internalType": "address",
          "name": "_curve",
          "type": "address"
        },
        {
          "internalType": "address",
          "name": "_transiton",
          "type": "address"
        },
        {
          "internalType": "uint256[3]",
          "name": "_curveParameters",
          "type": "uint256[3]"
        },
        {
          "internalType": "string",
          "name": "_name",
          "type": "string"
        },
        {
          "internalType": "string",
          "name": "_sybol",
          "type": "string"
        },
        {
          "internalType": "address",
          "name": "_underlyingCollateral",
          "type": "address"
        },
        {
          "internalType": "uint256",
          "name": "_tokenThreshold",
          "type": "uint256"
        },
        {
          "internalType": "uint256",
          "name": "_minimumTokenThreshold",
          "type": "uint256"
        },
        {
          "internalType": "uint256",
          "name": "_thresholdTimeout",
          "type": "uint256"
        }
      ],
      "stateMutability": "nonpayable",
      "type": "constructor"
    },
    {
      "anonymous": false,
      "inputs": [
        {
          "indexed": true,
          "internalType": "address",
          "name": "owner",
          "type": "address"
        },
        {
          "indexed": true,
          "internalType": "address",
          "name": "spender",
          "type": "address"
        },
        {
          "indexed": false,
          "internalType": "uint256",
          "name": "value",
          "type": "uint256"
        }
      ],
      "name": "Approval",
      "type": "event"
    },
    {
      "anonymous": false,
      "inputs": [
        {
          "indexed": true,
          "internalType": "address",
          "name": "from",
          "type": "address"
        },
        {
          "indexed": true,
          "internalType": "address",
          "name": "to",
          "type": "address"
        },
        {
          "indexed": false,
          "internalType": "uint256",
          "name": "value",
          "type": "uint256"
        }
      ],
      "name": "Transfer",
      "type": "event"
    },
    {
      "inputs": [],
      "name": "a",
      "outputs": [
        {
          "internalType": "uint256",
          "name": "",
          "type": "uint256"
        }
      ],
      "stateMutability": "view",
      "type": "function"
    },
    {
      "inputs": [
        {
          "internalType": "address",
          "name": "owner",
          "type": "address"
        },
        {
          "internalType": "address",
          "name": "spender",
          "type": "address"
        }
      ],
      "name": "allowance",
      "outputs": [
        {
          "internalType": "uint256",
          "name": "",
          "type": "uint256"
        }
      ],
      "stateMutability": "view",
      "type": "function"
    },
    {
      "inputs": [
        {
          "internalType": "address",
          "name": "spender",
          "type": "address"
        },
        {
          "internalType": "uint256",
          "name": "amount",
          "type": "uint256"
        }
      ],
      "name": "approve",
      "outputs": [
        {
          "internalType": "bool",
          "name": "",
          "type": "bool"
        }
      ],
      "stateMutability": "nonpayable",
      "type": "function"
    },
    {
      "inputs": [],
      "name": "b",
      "outputs": [
        {
          "internalType": "uint256",
          "name": "",
          "type": "uint256"
        }
      ],
      "stateMutability": "view",
      "type": "function"
    },
    {
      "inputs": [
        {
          "internalType": "address",
          "name": "account",
          "type": "address"
        }
      ],
      "name": "balanceOf",
      "outputs": [
        {
          "internalType": "uint256",
          "name": "",
          "type": "uint256"
        }
      ],
      "stateMutability": "view",
      "type": "function"
    },
    {
      "inputs": [],
      "name": "c",
      "outputs": [
        {
          "internalType": "uint256",
          "name": "",
          "type": "uint256"
        }
      ],
      "stateMutability": "view",
      "type": "function"
    },
    {
      "inputs": [],
      "name": "collateralInstance",
      "outputs": [
        {
          "internalType": "contract IERC20",
          "name": "",
          "type": "address"
        }
      ],
      "stateMutability": "view",
      "type": "function"
    },
    {
      "inputs": [],
      "name": "curveInstance",
      "outputs": [
        {
          "internalType": "contract I_Curve",
          "name": "",
          "type": "address"
        }
      ],
      "stateMutability": "view",
      "type": "function"
    },
    {
      "inputs": [],
      "name": "decimals",
      "outputs": [
        {
          "internalType": "uint8",
          "name": "",
          "type": "uint8"
        }
      ],
      "stateMutability": "view",
      "type": "function"
    },
    {
      "inputs": [
        {
          "internalType": "address",
          "name": "spender",
          "type": "address"
        },
        {
          "internalType": "uint256",
          "name": "subtractedValue",
          "type": "uint256"
        }
      ],
      "name": "decreaseAllowance",
      "outputs": [
        {
          "internalType": "bool",
          "name": "",
          "type": "bool"
        }
      ],
      "stateMutability": "nonpayable",
      "type": "function"
    },
    {
      "inputs": [
        {
          "internalType": "address",
          "name": "spender",
          "type": "address"
        },
        {
          "internalType": "uint256",
          "name": "addedValue",
          "type": "uint256"
        }
      ],
      "name": "increaseAllowance",
      "outputs": [
        {
          "internalType": "bool",
          "name": "",
          "type": "bool"
        }
      ],
      "stateMutability": "nonpayable",
      "type": "function"
    },
    {
      "inputs": [],
      "name": "marketTransfterInstance",
      "outputs": [
        {
          "internalType": "contract I_MarketTransition",
          "name": "",
          "type": "address"
        }
      ],
      "stateMutability": "view",
      "type": "function"
    },
    {
      "inputs": [],
      "name": "minimumTokenThreshold",
      "outputs": [
        {
          "internalType": "uint256",
          "name": "",
          "type": "uint256"
        }
      ],
      "stateMutability": "view",
      "type": "function"
    },
    {
      "inputs": [],
      "name": "name",
      "outputs": [
        {
          "internalType": "string",
          "name": "",
          "type": "string"
        }
      ],
      "stateMutability": "view",
      "type": "function"
    },
    {
      "inputs": [],
      "name": "symbol",
      "outputs": [
        {
          "internalType": "string",
          "name": "",
          "type": "string"
        }
      ],
      "stateMutability": "view",
      "type": "function"
    },
    {
      "inputs": [],
      "name": "thresholdTimeout",
      "outputs": [
        {
          "internalType": "uint256",
          "name": "",
          "type": "uint256"
        }
      ],
      "stateMutability": "view",
      "type": "function"
    },
    {
      "inputs": [],
      "name": "tokenThreshold",
      "outputs": [
        {
          "internalType": "uint256",
          "name": "",
          "type": "uint256"
        }
      ],
      "stateMutability": "view",
      "type": "function"
    },
    {
      "inputs": [],
      "name": "totalSupply",
      "outputs": [
        {
          "internalType": "uint256",
          "name": "",
          "type": "uint256"
        }
      ],
      "stateMutability": "view",
      "type": "function"
    },
    {
      "inputs": [
        {
          "internalType": "address",
          "name": "recipient",
          "type": "address"
        },
        {
          "internalType": "uint256",
          "name": "amount",
          "type": "uint256"
        }
      ],
      "name": "transfer",
      "outputs": [
        {
          "internalType": "bool",
          "name": "",
          "type": "bool"
        }
      ],
      "stateMutability": "nonpayable",
      "type": "function"
    },
    {
      "inputs": [
        {
          "internalType": "address",
          "name": "sender",
          "type": "address"
        },
        {
          "internalType": "address",
          "name": "recipient",
          "type": "address"
        },
        {
          "internalType": "uint256",
          "name": "amount",
          "type": "uint256"
        }
      ],
      "name": "transferFrom",
      "outputs": [
        {
          "internalType": "bool",
          "name": "",
          "type": "bool"
        }
      ],
      "stateMutability": "nonpayable",
      "type": "function"
    },
    {
      "inputs": [],
      "name": "transitionCompleated",
      "outputs": [
        {
          "internalType": "bool",
          "name": "",
          "type": "bool"
        }
      ],
      "stateMutability": "view",
      "type": "function"
    },
    {
      "inputs": [],
      "name": "transitionConditionsMet",
      "outputs": [
        {
          "internalType": "bool",
          "name": "",
          "type": "bool"
        }
      ],
      "stateMutability": "view",
      "type": "function"
    },
    {
      "inputs": [
        {
          "internalType": "uint256",
          "name": "_tokens",
          "type": "uint256"
        }
      ],
      "name": "buy",
      "outputs": [],
      "stateMutability": "nonpayable",
      "type": "function"
    },
    {
      "inputs": [
        {
          "internalType": "uint256",
          "name": "_tokens",
          "type": "uint256"
        }
      ],
      "name": "sell",
      "outputs": [],
      "stateMutability": "nonpayable",
      "type": "function"
    },
    {
      "inputs": [],
      "name": "setTransition",
      "outputs": [],
      "stateMutability": "nonpayable",
      "type": "function"
    },
    {
      "inputs": [
        {
          "internalType": "uint256",
          "name": "_tokens",
          "type": "uint256"
        }
      ],
      "name": "getBuyCost",
      "outputs": [
        {
          "internalType": "uint256",
          "name": "",
          "type": "uint256"
        }
      ],
      "stateMutability": "view",
      "type": "function"
    },
    {
      "inputs": [
        {
          "internalType": "uint256",
          "name": "_tokens",
          "type": "uint256"
        }
      ],
      "name": "getSellAmount",
      "outputs": [
        {
          "internalType": "uint256",
          "name": "",
          "type": "uint256"
        }
      ],
      "stateMutability": "view",
      "type": "function"
    },
    {
      "inputs": [],
      "name": "getCurve",
      "outputs": [
        {
          "internalType": "uint256",
          "name": "",
          "type": "uint256"
        },
        {
          "internalType": "uint256",
          "name": "",
          "type": "uint256"
        },
        {
          "internalType": "uint256",
          "name": "",
          "type": "uint256"
        }
      ],
      "stateMutability": "view",
      "type": "function"
    },
    {
      "inputs": [],
      "name": "getCollateralInstance",
      "outputs": [
        {
          "internalType": "address",
          "name": "",
          "type": "address"
        }
      ],
      "stateMutability": "view",
      "type": "function"
    },
    {
      "inputs": [],
      "name": "getTokenStatus",
      "outputs": [
        {
          "internalType": "bool",
          "name": "",
          "type": "bool"
        },
        {
          "internalType": "bool",
          "name": "",
          "type": "bool"
        }
      ],
      "stateMutability": "view",
      "type": "function"
    },
    {
      "inputs": [],
      "name": "getTransitionThresholds",
      "outputs": [
        {
          "internalType": "uint256",
          "name": "",
          "type": "uint256"
        },
        {
          "internalType": "uint256",
          "name": "",
          "type": "uint256"
        },
        {
          "internalType": "uint256",
          "name": "",
          "type": "uint256"
        }
      ],
      "stateMutability": "view",
      "type": "function"
    }
  ],
  "bytecode": "0x60806040523480156200001157600080fd5b50604051620031093803806200310983398181016040526101608110156200003857600080fd5b810190808051906020019092919080519060200190929190919082606001805160405193929190846401000000008211156200007357600080fd5b838201915060208201858111156200008a57600080fd5b8251866001820283011164010000000082111715620000a857600080fd5b8083526020830192505050908051906020019080838360005b83811015620000de578082015181840152602081019050620000c1565b50505050905090810190601f1680156200010c5780820380516001836020036101000a031916815260200191505b50604052602001805160405193929190846401000000008211156200013057600080fd5b838201915060208201858111156200014757600080fd5b82518660018202830111640100000000821117156200016557600080fd5b8083526020830192505050908051906020019080838360005b838110156200019b5780820151818401526020810190506200017e565b50505050905090810190601f168015620001c95780820380516001836020036101000a031916815260200191505b5060405260200180519060200190929190805190602001909291908051906020019092919080519060200190929190505050858581600390805190602001906200021592919062000381565b5080600490805190602001906200022e92919062000381565b506012600560006101000a81548160ff021916908360ff160217905550505088600960006101000a81548173ffffffffffffffffffffffffffffffffffffffff021916908373ffffffffffffffffffffffffffffffffffffffff16021790555087600b60006101000a81548173ffffffffffffffffffffffffffffffffffffffff021916908373ffffffffffffffffffffffffffffffffffffffff16021790555086600060038110620002dd57fe5b602002015160068190555086600160038110620002f657fe5b6020020151600781905550866002600381106200030f57fe5b602002015160088190555083600a60006101000a81548173ffffffffffffffffffffffffffffffffffffffff021916908373ffffffffffffffffffffffffffffffffffffffff16021790555082600c8190555081600d81905550804201600e8190555050505050505050505062000430565b828054600181600116156101000203166002900490600052602060002090601f016020900481019282601f10620003c457805160ff1916838001178555620003f5565b82800160010185558215620003f5579182015b82811115620003f4578251825591602001919060010190620003d7565b5b50905062000404919062000408565b5090565b6200042d91905b80821115620004295760008160009055506001016200040f565b5090565b90565b612cc980620004406000396000f3fe608060405234801561001057600080fd5b50600436106101e55760003560e01c806366692ff01161010f578063a2b63aa8116100a2578063d73e8d4211610071578063d73e8d42146108af578063d96a094a146108db578063dd62ed3e14610909578063e4849b3214610981576101e5565b8063a2b63aa81461077b578063a457c2d7146107c5578063a9059cbb1461082b578063c3da42b814610891576101e5565b80637edc9d4b116100de5780637edc9d4b1461065557806395d89b41146106825780639c74e7b814610705578063a1b2ab2814610731576101e5565b806366692ff01461057f57806370a082311461059d578063768713f5146105f5578063792ec7a414610637576101e5565b806339509351116101875780634c3ef6dc116101565780634c3ef6dc146105175780634df7e3d0146105355780634f921cf114610553578063647aa9961461055d576101e5565b806339509351146103fb5780633f1013761461046157806340fce0f914610483578063495ebdc6146104cd576101e5565b80630dbe671f116101c35780630dbe671f1461031557806318160ddd1461033357806323b872dd14610351578063313ce567146103d7576101e5565b806306fdde03146101ea578063095ea7b31461026d5780630ae66820146102d3575b600080fd5b6101f26109af565b6040518080602001828103825283818151815260200191508051906020019080838360005b83811015610232578082015181840152602081019050610217565b50505050905090810190601f16801561025f5780820380516001836020036101000a031916815260200191505b509250505060405180910390f35b6102b96004803603604081101561028357600080fd5b81019080803573ffffffffffffffffffffffffffffffffffffffff16906020019092919080359060200190929190505050610a51565b604051808215151515815260200191505060405180910390f35b6102ff600480360360208110156102e957600080fd5b8101908080359060200190929190505050610a6f565b6040518082815260200191505060405180910390f35b61031d610b26565b6040518082815260200191505060405180910390f35b61033b610b2c565b6040518082815260200191505060405180910390f35b6103bd6004803603606081101561036757600080fd5b81019080803573ffffffffffffffffffffffffffffffffffffffff169060200190929190803573ffffffffffffffffffffffffffffffffffffffff16906020019092919080359060200190929190505050610b36565b604051808215151515815260200191505060405180910390f35b6103df610c0f565b604051808260ff1660ff16815260200191505060405180910390f35b6104476004803603604081101561041157600080fd5b81019080803573ffffffffffffffffffffffffffffffffffffffff16906020019092919080359060200190929190505050610c26565b604051808215151515815260200191505060405180910390f35b610469610cd9565b604051808215151515815260200191505060405180910390f35b61048b610cec565b604051808273ffffffffffffffffffffffffffffffffffffffff1673ffffffffffffffffffffffffffffffffffffffff16815260200191505060405180910390f35b6104d5610d12565b604051808273ffffffffffffffffffffffffffffffffffffffff1673ffffffffffffffffffffffffffffffffffffffff16815260200191505060405180910390f35b61051f610d38565b6040518082815260200191505060405180910390f35b61053d610d3e565b6040518082815260200191505060405180910390f35b61055b610d44565b005b610565610e07565b604051808215151515815260200191505060405180910390f35b610587610e1a565b6040518082815260200191505060405180910390f35b6105df600480360360208110156105b357600080fd5b81019080803573ffffffffffffffffffffffffffffffffffffffff169060200190929190505050610e20565b6040518082815260200191505060405180910390f35b6106216004803603602081101561060b57600080fd5b8101908080359060200190929190505050610e68565b6040518082815260200191505060405180910390f35b61063f610fb1565b6040518082815260200191505060405180910390f35b61065d610fb7565b6040518083151515158152602001821515151581526020019250505060405180910390f35b61068a610fe2565b6040518080602001828103825283818151815260200191508051906020019080838360005b838110156106ca5780820151818401526020810190506106af565b50505050905090810190601f1680156106f75780820380516001836020036101000a031916815260200191505b509250505060405180910390f35b61070d611084565b60405180848152602001838152602001828152602001935050505060405180910390f35b61073961109d565b604051808273ffffffffffffffffffffffffffffffffffffffff1673ffffffffffffffffffffffffffffffffffffffff16815260200191505060405180910390f35b6107836110c7565b604051808273ffffffffffffffffffffffffffffffffffffffff1673ffffffffffffffffffffffffffffffffffffffff16815260200191505060405180910390f35b610811600480360360408110156107db57600080fd5b81019080803573ffffffffffffffffffffffffffffffffffffffff169060200190929190803590602001909291905050506110ed565b604051808215151515815260200191505060405180910390f35b6108776004803603604081101561084157600080fd5b81019080803573ffffffffffffffffffffffffffffffffffffffff169060200190929190803590602001909291905050506111ba565b604051808215151515815260200191505060405180910390f35b6108996111d8565b6040518082815260200191505060405180910390f35b6108b76111de565b60405180848152602001838152602001828152602001935050505060405180910390f35b610907600480360360208110156108f157600080fd5b81019080803590602001909291905050506111f7565b005b61096b6004803603604081101561091f57600080fd5b81019080803573ffffffffffffffffffffffffffffffffffffffff169060200190929190803573ffffffffffffffffffffffffffffffffffffffff1690602001909291905050506113b3565b6040518082815260200191505060405180910390f35b6109ad6004803603602081101561099757600080fd5b810190808035906020019092919050505061143a565b005b606060038054600181600116156101000203166002900480601f016020809104026020016040519081016040528092919081815260200182805460018160011615610100020316600290048015610a475780601f10610a1c57610100808354040283529160200191610a47565b820191906000526020600020905b815481529060010190602001808311610a2a57829003601f168201915b5050505050905090565b6000610a65610a5e61174f565b8484611757565b6001905092915050565b6000600960009054906101000a900473ffffffffffffffffffffffffffffffffffffffff1673ffffffffffffffffffffffffffffffffffffffff166308d4db14836040518263ffffffff1660e01b81526004018082815260200191505060206040518083038186803b158015610ae457600080fd5b505afa158015610af8573d6000803e3d6000fd5b505050506040513d6020811015610b0e57600080fd5b81019080805190602001909291905050509050919050565b60065481565b6000600254905090565b6000610b4384848461194e565b610c0484610b4f61174f565b610bff85604051806060016040528060288152602001612b6060289139600160008b73ffffffffffffffffffffffffffffffffffffffff1673ffffffffffffffffffffffffffffffffffffffff1681526020019081526020016000206000610bb561174f565b73ffffffffffffffffffffffffffffffffffffffff1673ffffffffffffffffffffffffffffffffffffffff16815260200190815260200160002054611c0f9092919063ffffffff16565b611757565b600190509392505050565b6000600560009054906101000a900460ff16905090565b6000610ccf610c3361174f565b84610cca8560016000610c4461174f565b73ffffffffffffffffffffffffffffffffffffffff1673ffffffffffffffffffffffffffffffffffffffff16815260200190815260200160002060008973ffffffffffffffffffffffffffffffffffffffff1673ffffffffffffffffffffffffffffffffffffffff16815260200190815260200160002054611ccf90919063ffffffff16565b611757565b6001905092915050565b600b60159054906101000a900460ff1681565b600960009054906101000a900473ffffffffffffffffffffffffffffffffffffffff1681565b600a60009054906101000a900473ffffffffffffffffffffffffffffffffffffffff1681565b600d5481565b60075481565b600b60009054906101000a900473ffffffffffffffffffffffffffffffffffffffff1673ffffffffffffffffffffffffffffffffffffffff163373ffffffffffffffffffffffffffffffffffffffff1614610dea576040517f08c379a0000000000000000000000000000000000000000000000000000000008152600401808060200182810382526039815260200180612c146039913960400191505060405180910390fd5b6001600b60156101000a81548160ff021916908315150217905550565b600b60149054906101000a900460ff1681565b600c5481565b60008060008373ffffffffffffffffffffffffffffffffffffffff1673ffffffffffffffffffffffffffffffffffffffff168152602001908152602001600020549050919050565b6000803073ffffffffffffffffffffffffffffffffffffffff166318160ddd6040518163ffffffff1660e01b815260040160206040518083038186803b158015610eb157600080fd5b505afa158015610ec5573d6000803e3d6000fd5b505050506040513d6020811015610edb57600080fd5b81019080805190602001909291905050501415610efb5760009050610fac565b600960009054906101000a900473ffffffffffffffffffffffffffffffffffffffff1673ffffffffffffffffffffffffffffffffffffffff1663768713f5836040518263ffffffff1660e01b81526004018082815260200191505060206040518083038186803b158015610f6e57600080fd5b505afa158015610f82573d6000803e3d6000fd5b505050506040513d6020811015610f9857600080fd5b810190808051906020019092919050505090505b919050565b600e5481565b600080600b60149054906101000a900460ff16600b60159054906101000a900460ff16915091509091565b606060048054600181600116156101000203166002900480601f01602080910402602001604051908101604052809291908181526020018280546001816001161561010002031660029004801561107a5780601f1061104f5761010080835404028352916020019161107a565b820191906000526020600020905b81548152906001019060200180831161105d57829003601f168201915b5050505050905090565b6000806000600c54600d54600e54925092509250909192565b6000600a60009054906101000a900473ffffffffffffffffffffffffffffffffffffffff16905090565b600b60009054906101000a900473ffffffffffffffffffffffffffffffffffffffff1681565b60006111b06110fa61174f565b846111ab85604051806060016040528060258152602001612c6f602591396001600061112461174f565b73ffffffffffffffffffffffffffffffffffffffff1673ffffffffffffffffffffffffffffffffffffffff16815260200190815260200160002060008a73ffffffffffffffffffffffffffffffffffffffff1673ffffffffffffffffffffffffffffffffffffffff16815260200190815260200160002054611c0f9092919063ffffffff16565b611757565b6001905092915050565b60006111ce6111c761174f565b848461194e565b6001905092915050565b60085481565b6000806000600654600754600854925092509250909192565b600b60159054906101000a900460ff161561125d576040517f08c379a0000000000000000000000000000000000000000000000000000000008152600401808060200182810382526022815260200180612c4d6022913960400191505060405180910390fd5b611268600182611d57565b600b60149054906101000a900460ff16156113a657600c54813073ffffffffffffffffffffffffffffffffffffffff166318160ddd6040518163ffffffff1660e01b815260040160206040518083038186803b1580156112c757600080fd5b505afa1580156112db573d6000803e3d6000fd5b505050506040513d60208110156112f157600080fd5b81019080805190602001909291905050500110611399573073ffffffffffffffffffffffffffffffffffffffff166318160ddd6040518163ffffffff1660e01b815260040160206040518083038186803b15801561134e57600080fd5b505afa158015611362573d6000803e3d6000fd5b505050506040513d602081101561137857600080fd5b8101908080519060200190929190505050600c5403905061139881611ec8565b5b6113a16121d3565b6113b0565b6113af81611ec8565b5b50565b6000600160008473ffffffffffffffffffffffffffffffffffffffff1673ffffffffffffffffffffffffffffffffffffffff16815260200190815260200160002060008373ffffffffffffffffffffffffffffffffffffffff1673ffffffffffffffffffffffffffffffffffffffff16815260200190815260200160002054905092915050565b600b60159054906101000a900460ff16156114a0576040517f08c379a0000000000000000000000000000000000000000000000000000000008152600401808060200182810382526022815260200180612c4d6022913960400191505060405180910390fd5b6114ab600082611d57565b600b60149054906101000a900460ff16156114cd576114c86121d3565b61174c565b60006114d882610e68565b9050813073ffffffffffffffffffffffffffffffffffffffff166370a08231336040518263ffffffff1660e01b8152600401808273ffffffffffffffffffffffffffffffffffffffff1673ffffffffffffffffffffffffffffffffffffffff16815260200191505060206040518083038186803b15801561155857600080fd5b505afa15801561156c573d6000803e3d6000fd5b505050506040513d602081101561158257600080fd5b810190808051906020019092919050505010156115ea576040517f08c379a0000000000000000000000000000000000000000000000000000000008152600401808060200182810382526022815260200180612bf26022913960400191505060405180910390fd5b600a60009054906101000a900473ffffffffffffffffffffffffffffffffffffffff1673ffffffffffffffffffffffffffffffffffffffff1663a9059cbb33836040518363ffffffff1660e01b8152600401808373ffffffffffffffffffffffffffffffffffffffff1673ffffffffffffffffffffffffffffffffffffffff16815260200182815260200192505050602060405180830381600087803b15801561169357600080fd5b505af11580156116a7573d6000803e3d6000fd5b505050506040513d60208110156116bd57600080fd5b8101908080519060200190929190505050611740576040517f08c379a00000000000000000000000000000000000000000000000000000000081526004018080602001828103825260208152602001807f5472616e73666572696e67206f6620636f6c6c61746572616c206661696c656481525060200191505060405180910390fd5b61174a338361268b565b505b50565b600033905090565b600073ffffffffffffffffffffffffffffffffffffffff168373ffffffffffffffffffffffffffffffffffffffff1614156117dd576040517f08c379a0000000000000000000000000000000000000000000000000000000008152600401808060200182810382526024815260200180612bce6024913960400191505060405180910390fd5b600073ffffffffffffffffffffffffffffffffffffffff168273ffffffffffffffffffffffffffffffffffffffff161415611863576040517f08c379a0000000000000000000000000000000000000000000000000000000008152600401808060200182810382526022815260200180612aab6022913960400191505060405180910390fd5b80600160008573ffffffffffffffffffffffffffffffffffffffff1673ffffffffffffffffffffffffffffffffffffffff16815260200190815260200160002060008473ffffffffffffffffffffffffffffffffffffffff1673ffffffffffffffffffffffffffffffffffffffff168152602001908152602001600020819055508173ffffffffffffffffffffffffffffffffffffffff168373ffffffffffffffffffffffffffffffffffffffff167f8c5be1e5ebec7d5bd14f71427d1e84f3dd0314c0f7b2291e5b200ac8c7c3b925836040518082815260200191505060405180910390a3505050565b600073ffffffffffffffffffffffffffffffffffffffff168373ffffffffffffffffffffffffffffffffffffffff1614156119d4576040517f08c379a0000000000000000000000000000000000000000000000000000000008152600401808060200182810382526025815260200180612ba96025913960400191505060405180910390fd5b600073ffffffffffffffffffffffffffffffffffffffff168273ffffffffffffffffffffffffffffffffffffffff161415611a5a576040517f08c379a0000000000000000000000000000000000000000000000000000000008152600401808060200182810382526023815260200180612a666023913960400191505060405180910390fd5b611a6583838361284f565b611ad081604051806060016040528060268152602001612b3a602691396000808773ffffffffffffffffffffffffffffffffffffffff1673ffffffffffffffffffffffffffffffffffffffff16815260200190815260200160002054611c0f9092919063ffffffff16565b6000808573ffffffffffffffffffffffffffffffffffffffff1673ffffffffffffffffffffffffffffffffffffffff16815260200190815260200160002081905550611b63816000808573ffffffffffffffffffffffffffffffffffffffff1673ffffffffffffffffffffffffffffffffffffffff16815260200190815260200160002054611ccf90919063ffffffff16565b6000808473ffffffffffffffffffffffffffffffffffffffff1673ffffffffffffffffffffffffffffffffffffffff168152602001908152602001600020819055508173ffffffffffffffffffffffffffffffffffffffff168373ffffffffffffffffffffffffffffffffffffffff167fddf252ad1be2c89b69c2b068fc378daa952ba7f163c4a11628f55a4df523b3ef836040518082815260200191505060405180910390a3505050565b6000838311158290611cbc576040517f08c379a00000000000000000000000000000000000000000000000000000000081526004018080602001828103825283818151815260200191508051906020019080838360005b83811015611c81578082015181840152602081019050611c66565b50505050905090810190601f168015611cae5780820380516001836020036101000a031916815260200191505b509250505060405180910390fd5b5060008385039050809150509392505050565b600080828401905083811015611d4d576040517f08c379a000000000000000000000000000000000000000000000000000000000815260040180806020018281038252601b8152602001807f536166654d6174683a206164646974696f6e206f766572666c6f77000000000081525060200191505060405180910390fd5b8091505092915050565b60008215611e0e57813073ffffffffffffffffffffffffffffffffffffffff166318160ddd6040518163ffffffff1660e01b815260040160206040518083038186803b158015611da657600080fd5b505afa158015611dba573d6000803e3d6000fd5b505050506040513d6020811015611dd057600080fd5b8101908080519060200190929190505050019050600c548110611e09576001600b60146101000a81548160ff0219169083151502179055505b611e94565b813073ffffffffffffffffffffffffffffffffffffffff166318160ddd6040518163ffffffff1660e01b815260040160206040518083038186803b158015611e5557600080fd5b505afa158015611e69573d6000803e3d6000fd5b505050506040513d6020811015611e7f57600080fd5b81019080805190602001909291905050500390505b600e544210611ec357600d548110611ec2576001600b60146101000a81548160ff0219169083151502179055505b5b505050565b6000611ed382610a6f565b905080600a60009054906101000a900473ffffffffffffffffffffffffffffffffffffffff1673ffffffffffffffffffffffffffffffffffffffff1663dd62ed3e33306040518363ffffffff1660e01b8152600401808373ffffffffffffffffffffffffffffffffffffffff1673ffffffffffffffffffffffffffffffffffffffff1681526020018273ffffffffffffffffffffffffffffffffffffffff1673ffffffffffffffffffffffffffffffffffffffff1681526020019250505060206040518083038186803b158015611fa957600080fd5b505afa158015611fbd573d6000803e3d6000fd5b505050506040513d6020811015611fd357600080fd5b8101908080519060200190929190505050101561203b576040517f08c379a0000000000000000000000000000000000000000000000000000000008152600401808060200182810382526034815260200180612acd6034913960400191505060405180910390fd5b600a60009054906101000a900473ffffffffffffffffffffffffffffffffffffffff1673ffffffffffffffffffffffffffffffffffffffff166323b872dd3330846040518463ffffffff1660e01b8152600401808473ffffffffffffffffffffffffffffffffffffffff1673ffffffffffffffffffffffffffffffffffffffff1681526020018373ffffffffffffffffffffffffffffffffffffffff1673ffffffffffffffffffffffffffffffffffffffff1681526020018281526020019350505050602060405180830381600087803b15801561211857600080fd5b505af115801561212c573d6000803e3d6000fd5b505050506040513d602081101561214257600080fd5b81019080805190602001909291905050506121c5576040517f08c379a00000000000000000000000000000000000000000000000000000000081526004018080602001828103825260208152602001807f5472616e73666572696e67206f6620636f6c6c61746572616c206661696c656481525060200191505060405180910390fd5b6121cf3383612854565b5050565b600b60149054906101000a900460ff16612238576040517f08c379a0000000000000000000000000000000000000000000000000000000008152600401808060200182810382526039815260200180612b016039913960400191505060405180910390fd5b6000600b60009054906101000a900473ffffffffffffffffffffffffffffffffffffffff1673ffffffffffffffffffffffffffffffffffffffff1663d54f7d5e6040518163ffffffff1660e01b815260040160206040518083038186803b1580156122a257600080fd5b505afa1580156122b6573d6000803e3d6000fd5b505050506040513d60208110156122cc57600080fd5b810190808051906020019092919050505090506000600b60009054906101000a900473ffffffffffffffffffffffffffffffffffffffff1673ffffffffffffffffffffffffffffffffffffffff1663bd16a5076040518163ffffffff1660e01b8152600401602060405180830381600087803b15801561234b57600080fd5b505af115801561235f573d6000803e3d6000fd5b505050506040513d602081101561237557600080fd5b810190808051906020019092919050505090506123b4600b60009054906101000a900473ffffffffffffffffffffffffffffffffffffffff1682612854565b600a60009054906101000a900473ffffffffffffffffffffffffffffffffffffffff1673ffffffffffffffffffffffffffffffffffffffff1663a9059cbb600b60009054906101000a900473ffffffffffffffffffffffffffffffffffffffff16600a60009054906101000a900473ffffffffffffffffffffffffffffffffffffffff1673ffffffffffffffffffffffffffffffffffffffff166370a08231306040518263ffffffff1660e01b8152600401808273ffffffffffffffffffffffffffffffffffffffff1673ffffffffffffffffffffffffffffffffffffffff16815260200191505060206040518083038186803b1580156124b457600080fd5b505afa1580156124c8573d6000803e3d6000fd5b505050506040513d60208110156124de57600080fd5b81019080805190602001909291905050506040518363ffffffff1660e01b8152600401808373ffffffffffffffffffffffffffffffffffffffff1673ffffffffffffffffffffffffffffffffffffffff16815260200182815260200192505050602060405180830381600087803b15801561255857600080fd5b505af115801561256c573d6000803e3d6000fd5b505050506040513d602081101561258257600080fd5b8101908080519060200190929190505050612605576040517f08c379a000000000000000000000000000000000000000000000000000000000815260040180806020018281038252601d8152602001807f5472616e73666572206f6620636f6c6c61746572616c206661696c656400000081525060200191505060405180910390fd5b600b60009054906101000a900473ffffffffffffffffffffffffffffffffffffffff1673ffffffffffffffffffffffffffffffffffffffff1663d7efbf346040518163ffffffff1660e01b8152600401600060405180830381600087803b15801561266f57600080fd5b505af1158015612683573d6000803e3d6000fd5b505050505050565b600073ffffffffffffffffffffffffffffffffffffffff168273ffffffffffffffffffffffffffffffffffffffff161415612711576040517f08c379a0000000000000000000000000000000000000000000000000000000008152600401808060200182810382526021815260200180612b886021913960400191505060405180910390fd5b61271d8260008361284f565b61278881604051806060016040528060228152602001612a89602291396000808673ffffffffffffffffffffffffffffffffffffffff1673ffffffffffffffffffffffffffffffffffffffff16815260200190815260200160002054611c0f9092919063ffffffff16565b6000808473ffffffffffffffffffffffffffffffffffffffff1673ffffffffffffffffffffffffffffffffffffffff168152602001908152602001600020819055506127df81600254612a1b90919063ffffffff16565b600281905550600073ffffffffffffffffffffffffffffffffffffffff168273ffffffffffffffffffffffffffffffffffffffff167fddf252ad1be2c89b69c2b068fc378daa952ba7f163c4a11628f55a4df523b3ef836040518082815260200191505060405180910390a35050565b505050565b600073ffffffffffffffffffffffffffffffffffffffff168273ffffffffffffffffffffffffffffffffffffffff1614156128f7576040517f08c379a000000000000000000000000000000000000000000000000000000000815260040180806020018281038252601f8152602001807f45524332303a206d696e7420746f20746865207a65726f20616464726573730081525060200191505060405180910390fd5b6129036000838361284f565b61291881600254611ccf90919063ffffffff16565b60028190555061296f816000808573ffffffffffffffffffffffffffffffffffffffff1673ffffffffffffffffffffffffffffffffffffffff16815260200190815260200160002054611ccf90919063ffffffff16565b6000808473ffffffffffffffffffffffffffffffffffffffff1673ffffffffffffffffffffffffffffffffffffffff168152602001908152602001600020819055508173ffffffffffffffffffffffffffffffffffffffff16600073ffffffffffffffffffffffffffffffffffffffff167fddf252ad1be2c89b69c2b068fc378daa952ba7f163c4a11628f55a4df523b3ef836040518082815260200191505060405180910390a35050565b6000612a5d83836040518060400160405280601e81526020017f536166654d6174683a207375627472616374696f6e206f766572666c6f770000815250611c0f565b90509291505056fe45524332303a207472616e7366657220746f20746865207a65726f206164647265737345524332303a206275726e20616d6f756e7420657863656564732062616c616e636545524332303a20617070726f766520746f20746865207a65726f20616464726573735573657220686173206e6f7420617070726f76656420636f6e747261637420666f7220746f6b656e20636f737420616d6f756e74546f6b656e20686173206e6f74206d657420726571756972656d656e747320666f722066726565206d61726b6574207472616e736974696f6e45524332303a207472616e7366657220616d6f756e7420657863656564732062616c616e636545524332303a207472616e7366657220616d6f756e74206578636565647320616c6c6f77616e636545524332303a206275726e2066726f6d20746865207a65726f206164647265737345524332303a207472616e736665722066726f6d20746865207a65726f206164647265737345524332303a20617070726f76652066726f6d20746865207a65726f206164647265737343616e6e6f742073656c6c206d6f726520746f6b656e73207468616e206f776e65644f6e6c79207472616e736974696f6e696e6720636f6e7472616374206d6179206d61726b207472616e736974696f6e20636f6d706c656174654d61726b657420686173207472616e736974696f6e656420746f20756e697377617045524332303a2064656372656173656420616c6c6f77616e63652062656c6f77207a65726fa26469706673582212209adfc349cf3deb17bcb78d4d2ae0b1c5cb6535f3e7632b975a3756f317e61c0964736f6c63430006060033",
  "source": "pragma solidity 0.6.6;\n\nimport \"./I_Token.sol\";\nimport \"./I_Curve.sol\";\nimport \"./I_MarketTransition.sol\";\nimport \"./IUniswapV2Router01.sol\";\nimport \"../node_modules/openzeppelin-solidity/contracts/token/ERC20/ERC20.sol\";\nimport \"../node_modules/openzeppelin-solidity/contracts/token/ERC20/IERC20.sol\";\n\n/**\n  * @author Veronica Coutts @vonnie610 (twitter) @VeronicaLC (GitLab) \n  * @title  Token\n  * @notice This token contract enables an IBCO (Initial Bonding Curve Offering)\n  *         as a mechanism to launch a token into the open market without having\n  *         to raise the funds in a traditional manner.\n  *         This product is a beta. Use at your own risk.\n  */\ncontract Token is ERC20 {\n    // Curve set up\n    uint256 public a;\n    uint256 public b;\n    uint256 public c;\n    // Instances for contract interactions\n    I_Curve public curveInstance;\n    IERC20 public collateralInstance;\n    I_MarketTransition public marketTransfterInstance;\n    // Transition variables\n    bool public transitionConditionsMet;\n    bool public transitionCompleated;\n    // Threshold collateral amount for open market transition\n    uint256 public tokenThreshold;\n    uint256 public minimumTokenThreshold;\n    uint256 public thresholdTimeout;\n\n    modifier freeMarket() {\n        require(\n            !transitionCompleated,\n            \"Market has transitioned to uniswap\"\n        );\n        _;\n    }\n\n    /**\n      * @param  _curve: The address of the curve implementation. \n      * @param  _transiton: The address of the transition implementation.\n      * @param  _curveParameters: The curve \"settings\" that will be used in the \n      *         curve instance in order to determine the prices of the token. \n      *         For more information please see the curve contract docs. \n      * @param  _name: The name of the token.\n      * @param  _sybol: The symbol for the token.\n      * @param  _underlyingCollateral: The addresss of the underlying collateral\n      *         for the tokens. I.e the currency for the price of the token. \n      *         Recomended to use a stable coin such as DAI to ensure a stable\n      *         price for your token. \n      * @param  _tokenThreshold: The transition threshold for the token in \n      *         tokens. As the value of the tokens is determanistic (with the \n      *         bonding curve enforcing a price) the threshold for when the \n      *         token can move to the free market can be expressed in tokens.\n      * @param  _minimumTokenThreshold: This minimum token threshold is a safty\n      *         catch for it the threshold is not met before expiry, this min\n      *         threshold can still force the market into uniswap. If you only\n      *         want to move acress at your threshold, simply set this vaule \n      *         to be the same as the threshold. \n      * @param  _thresholdTimeout: Once this timeout is reached the curve will \n      *         check against the min threshold for transition. When this \n      *         timeout is reached, the curve will operate as normal.\n      */\n    constructor(\n        address _curve,\n        address _transiton,\n        uint256[3] memory _curveParameters,\n        string memory _name,\n        string memory _sybol,\n        address _underlyingCollateral,\n        uint256 _tokenThreshold,\n        uint256 _minimumTokenThreshold,\n        uint256 _thresholdTimeout\n    )\n        ERC20(\n            _name,\n            _sybol\n        )\n        public \n    {\n        curveInstance = I_Curve(_curve);\n        marketTransfterInstance = I_MarketTransition(_transiton);\n        a = _curveParameters[0];\n        b = _curveParameters[1];\n        c = _curveParameters[2];\n        collateralInstance = IERC20(_underlyingCollateral);\n\n        tokenThreshold = _tokenThreshold;\n        minimumTokenThreshold = _minimumTokenThreshold;\n        thresholdTimeout = now + _thresholdTimeout;\n    }\n\n    /**\n      * @param  _tokens: The number of tokens to buy.\n      * @notice This function will check if the buy will push the token over its\n      *         threshold, thus moving the token to uniswap. If the buy will \n      *         push the supply in excess of the threshold, only the tokens \n      *         needed to reach the threshold will be bought. \n      * @dev    This function will be blocked after the market has transitioned\n      *         to uniswap.\n      */\n    function buy(uint256 _tokens) external freeMarket() {\n        _transitionCheck(true, _tokens); \n        // The token can transition\n        if(transitionConditionsMet) {\n            // TODO check what happens here on min threshold\n            if(\n                this.totalSupply() + _tokens >= tokenThreshold\n            ) {\n                _tokens = tokenThreshold - this.totalSupply();\n\n                _executeBuy(_tokens);\n            }\n            // Transitions market to uniswap \n            _transition();\n        } else {\n            // Transition threshold not met\n            _executeBuy(_tokens);\n        }\n    }\n\n    /**\n      * @param  _tokens: The number fo tokens to sell.\n      * @notice This function checks if the threshold has been reached, but \n      *         most importantly in the context of a sell is checking if the \n      *         token has reached its expiring time. \n      * @dev    This function will be blocked after the market has transitioned\n      *         to uniswap.\n      */\n    function sell(uint256 _tokens) external freeMarket() {\n        _transitionCheck(false, _tokens); \n        if(transitionConditionsMet) {\n            _transition();\n        } else {\n            uint256 reward = getSellAmount(_tokens);\n\n            require(\n                this.balanceOf(msg.sender) >= _tokens,\n                \"Cannot sell more tokens than owned\"\n            );\n\n            require(\n                collateralInstance.transfer(\n                    msg.sender,\n                    reward\n                ),\n                \"Transfering of collateral failed\"\n            );\n\n            _burn(msg.sender, _tokens);\n        }\n    }\n\n    /**\n      * @notice Allows the market transition contract to set the transitioned \n      *         state of this token to true. \n      * @dev    Can only be called by the market transition contract.\n      */\n    function setTransition() external {\n        require(\n            msg.sender == address(marketTransfterInstance),\n            \"Only transitioning contract may mark transition compleate\"\n        );\n\n        transitionCompleated = true;\n    }\n\n    /**\n      * @param  _tokens: The number of tokens someone would like to buy.\n      * @return uint256: The cost (in collateral) for the number of tokens.\n      * @dev    This function uses the curve library in order to determine the \n      *         price of the token. \n      */\n    function getBuyCost(uint256 _tokens) public view returns(uint256) {\n        return curveInstance.getBuyPrice(_tokens);\n    } \n\n    /**\n      * @param  _tokens: The number of tokens someone would like to sell.\n      * @return uint256: The reward (in collateral) for the number of tokens.\n      * @dev    This function uses the curve library in order to determine the \n      *         price of the token. \n      */\n    function getSellAmount(uint256 _tokens) public view returns(uint256) {\n        if(this.totalSupply() == 0) {\n            return 0;\n        } else {\n            return curveInstance.getSellAmount(_tokens);\n        }\n    } \n    \n    /**\n      * @notice This function returns the variables that determine the behaviour\n      *         of the curve. \n      * @dev    The variables returned are used in the curves calculations. \n      *         Below is the current version of the equation being used:\n      *         a/3(x_1^3 - x_0^3) + b/2(x_1^2 - x_0^2) + c(x_1 - x_0)\n      * @return uint256: a\n      * @return uint256: b\n      * @return uint256: c\n      */\n    function getCurve() external view returns (\n        uint256,\n        uint256,\n        uint256\n    ) {\n        return (a, b, c);\n    }\n\n    /**\n      * @return address: The address of the collateral being used for this \n      *         token.\n      */\n    function getCollateralInstance() external view returns(address) {\n        return address(collateralInstance);\n    }\n\n    /**\n      * @return bool: If the transition condition has been met. I.e Are there \n      *         enough tokens to transition the token into a uniswap market.\n      * @return bool: If the token has transitioned. This can only be set by the\n      *         market transition contract.\n      */\n    function getTokenStatus() external view returns(bool, bool) {\n        return (\n            transitionConditionsMet,\n            transitionCompleated\n        );\n    }\n\n    /**\n      * @notice Returns the transition information for this token. \n      * @return uint256: The token threshold. The number of tokens that need to\n      *         be bought in order to push the token into the open market.\n      * @return uint256: The minimum threshold for transition. If the contract\n      *         times out and is above this minimum threshold the contract will \n      *         still transition.\n      * @return uint256: The timeout threshold. If the token times out then only \n      *         the minimum threshold is needed to be met to transition the \n      *         market. The market will not stop or break when the timeout \n      *         happens.\n      */\n    function getTransitionThresholds() \n        external \n        view \n        returns(\n            uint256,\n            uint256,\n            uint256\n        ) \n    {\n        return (\n            tokenThreshold,\n            minimumTokenThreshold,\n            thresholdTimeout\n        );\n    }\n\n    /**\n      * @param  _tokens: The number of tokens to be bought. \n      * @notice This function executes the buy of tokens from a user. This was\n      *         done for readability.\n      * @dev    This function can only be called internally.\n      */\n    function _executeBuy(uint _tokens) internal {\n        uint256 cost = getBuyCost(_tokens);\n\n        require(\n            collateralInstance.allowance(\n                msg.sender, address(this)\n            ) >= cost,\n            \"User has not approved contract for token cost amount\"\n        );\n\n        require(\n            collateralInstance.transferFrom(\n                msg.sender,\n                address(this),\n                cost\n            ),\n            \"Transfering of collateral failed\"\n        );\n\n        _mint(msg.sender, _tokens);\n    }\n\n    /**\n      * @param  _buy: true if the check is being called by the buy function. \n      *         False if the check is called from sell.\n      * @param  _tokens: The number of tokens being bought or sold.\n      * @notice Checks if the transition threshold has been met, if the timeout \n      *         has been exceeded and if so if the minimum threshold has been \n      *         reached.\n      */\n    function _transitionCheck(bool _buy, uint _tokens) internal {\n        uint newSupply;\n        // Sets new supply according to buy or sell\n        if(_buy) {\n            newSupply = this.totalSupply() + _tokens;\n            // Checks if main threshold has been reached\n            if(newSupply >= tokenThreshold) {\n                transitionConditionsMet = true;\n            } \n        } else {\n            newSupply = this.totalSupply() - _tokens;\n        }\n        \n        if(now >= thresholdTimeout) {\n            // Time has expired\n            if(newSupply >= minimumTokenThreshold) {\n                transitionConditionsMet = true;\n            } \n        }\n    }\n\n    /**\n      * @notice Contains the functionality to transition the token to the open\n      *         market using the market transtition contract. \n      * @dev    Requires that the market has reached the transition state.\n      *         Transfers collateral into the market transition contract which\n      *         then creates the uniswap market.\n      */\n    function _transition() internal {\n        require(\n            transitionConditionsMet,\n            \"Token has not met requirements for free market transition\"\n        );\n\n        address router = marketTransfterInstance.getRouterAddress();\n        uint256 tokensToMint = marketTransfterInstance.getTokensToMint();\n        _mint(address(marketTransfterInstance), tokensToMint);\n        // Approves \n        require(\n            collateralInstance.transfer(\n                address(marketTransfterInstance),\n                collateralInstance.balanceOf(address(this))\n            ),\n            \"Transfer of collateral failed\"\n        );\n\n        marketTransfterInstance.transition();\n    }\n}",
  "sourcePath": "/Users/veronicac/Desktop/projects/linumlabs/BondingCurveFactory/contracts/Token.sol",
  "compiler": {
    "name": "solc",
    "version": "0.6.6+commit.6c089d02.Emscripten.clang",
    "optimizer": false,
    "runs": 200
  },
  "schemaVersion": "2.3.3",
  "updatedAt": "2020-05-24T22:23:59.121Z"
}