{
  "contractName": "Token",
  "abi": [
    {
      "inputs": [
        {
          "internalType": "address",
          "name": "_curveInstance",
          "type": "address"
        },
        {
          "internalType": "address",
          "name": "_transiton",
          "type": "address"
        },
        {
          "internalType": "uint256",
          "name": "_maxSupply",
          "type": "uint256"
        },
        {
          "internalType": "uint256[3]",
          "name": "_curveParameters",
          "type": "uint256[3]"
        },
        {
          "internalType": "string",
          "name": "_name",
          "type": "string"
        },
        {
          "internalType": "string",
          "name": "_sybol",
          "type": "string"
        },
        {
          "internalType": "address",
          "name": "_underlyingCollateral",
          "type": "address"
        },
        {
          "internalType": "uint256",
          "name": "_tokenThreshold",
          "type": "uint256"
        },
        {
          "internalType": "uint256",
          "name": "_minimumTokenThreshold",
          "type": "uint256"
        },
        {
          "internalType": "uint256",
          "name": "_thresholdTimeout",
          "type": "uint256"
        }
      ],
      "stateMutability": "nonpayable",
      "type": "constructor"
    },
    {
      "anonymous": false,
      "inputs": [
        {
          "indexed": true,
          "internalType": "address",
          "name": "owner",
          "type": "address"
        },
        {
          "indexed": true,
          "internalType": "address",
          "name": "spender",
          "type": "address"
        },
        {
          "indexed": false,
          "internalType": "uint256",
          "name": "value",
          "type": "uint256"
        }
      ],
      "name": "Approval",
      "type": "event"
    },
    {
      "anonymous": false,
      "inputs": [
        {
          "indexed": true,
          "internalType": "address",
          "name": "from",
          "type": "address"
        },
        {
          "indexed": true,
          "internalType": "address",
          "name": "to",
          "type": "address"
        },
        {
          "indexed": false,
          "internalType": "uint256",
          "name": "value",
          "type": "uint256"
        }
      ],
      "name": "Transfer",
      "type": "event"
    },
    {
      "anonymous": false,
      "inputs": [
        {
          "indexed": false,
          "internalType": "uint256",
          "name": "collateral",
          "type": "uint256"
        },
        {
          "indexed": false,
          "internalType": "uint256",
          "name": "tokensToMint",
          "type": "uint256"
        }
      ],
      "name": "transfering",
      "type": "event"
    },
    {
      "anonymous": false,
      "inputs": [
        {
          "indexed": false,
          "internalType": "uint256",
          "name": "amountA",
          "type": "uint256"
        },
        {
          "indexed": false,
          "internalType": "uint256",
          "name": "amountB",
          "type": "uint256"
        },
        {
          "indexed": false,
          "internalType": "uint256",
          "name": "liquidity",
          "type": "uint256"
        }
      ],
      "name": "transitionToFreeMarket",
      "type": "event"
    },
    {
      "anonymous": false,
      "inputs": [
        {
          "indexed": false,
          "internalType": "uint256",
          "name": "tokens",
          "type": "uint256"
        },
        {
          "indexed": false,
          "internalType": "uint256",
          "name": "collateral",
          "type": "uint256"
        },
        {
          "indexed": false,
          "internalType": "address",
          "name": "sender",
          "type": "address"
        }
      ],
      "name": "wtf",
      "type": "event"
    },
    {
      "inputs": [],
      "name": "a",
      "outputs": [
        {
          "internalType": "uint256",
          "name": "",
          "type": "uint256"
        }
      ],
      "stateMutability": "view",
      "type": "function"
    },
    {
      "inputs": [
        {
          "internalType": "address",
          "name": "owner",
          "type": "address"
        },
        {
          "internalType": "address",
          "name": "spender",
          "type": "address"
        }
      ],
      "name": "allowance",
      "outputs": [
        {
          "internalType": "uint256",
          "name": "",
          "type": "uint256"
        }
      ],
      "stateMutability": "view",
      "type": "function"
    },
    {
      "inputs": [
        {
          "internalType": "address",
          "name": "spender",
          "type": "address"
        },
        {
          "internalType": "uint256",
          "name": "amount",
          "type": "uint256"
        }
      ],
      "name": "approve",
      "outputs": [
        {
          "internalType": "bool",
          "name": "",
          "type": "bool"
        }
      ],
      "stateMutability": "nonpayable",
      "type": "function"
    },
    {
      "inputs": [],
      "name": "b",
      "outputs": [
        {
          "internalType": "uint256",
          "name": "",
          "type": "uint256"
        }
      ],
      "stateMutability": "view",
      "type": "function"
    },
    {
      "inputs": [
        {
          "internalType": "address",
          "name": "account",
          "type": "address"
        }
      ],
      "name": "balanceOf",
      "outputs": [
        {
          "internalType": "uint256",
          "name": "",
          "type": "uint256"
        }
      ],
      "stateMutability": "view",
      "type": "function"
    },
    {
      "inputs": [],
      "name": "c",
      "outputs": [
        {
          "internalType": "uint256",
          "name": "",
          "type": "uint256"
        }
      ],
      "stateMutability": "view",
      "type": "function"
    },
    {
      "inputs": [],
      "name": "collateralInstance",
      "outputs": [
        {
          "internalType": "contract IERC20",
          "name": "",
          "type": "address"
        }
      ],
      "stateMutability": "view",
      "type": "function"
    },
    {
      "inputs": [],
      "name": "curveInstance",
      "outputs": [
        {
          "internalType": "contract I_Curve",
          "name": "",
          "type": "address"
        }
      ],
      "stateMutability": "view",
      "type": "function"
    },
    {
      "inputs": [],
      "name": "decimals",
      "outputs": [
        {
          "internalType": "uint8",
          "name": "",
          "type": "uint8"
        }
      ],
      "stateMutability": "view",
      "type": "function"
    },
    {
      "inputs": [
        {
          "internalType": "address",
          "name": "spender",
          "type": "address"
        },
        {
          "internalType": "uint256",
          "name": "subtractedValue",
          "type": "uint256"
        }
      ],
      "name": "decreaseAllowance",
      "outputs": [
        {
          "internalType": "bool",
          "name": "",
          "type": "bool"
        }
      ],
      "stateMutability": "nonpayable",
      "type": "function"
    },
    {
      "inputs": [
        {
          "internalType": "address",
          "name": "spender",
          "type": "address"
        },
        {
          "internalType": "uint256",
          "name": "addedValue",
          "type": "uint256"
        }
      ],
      "name": "increaseAllowance",
      "outputs": [
        {
          "internalType": "bool",
          "name": "",
          "type": "bool"
        }
      ],
      "stateMutability": "nonpayable",
      "type": "function"
    },
    {
      "inputs": [],
      "name": "maxSupply",
      "outputs": [
        {
          "internalType": "uint256",
          "name": "",
          "type": "uint256"
        }
      ],
      "stateMutability": "view",
      "type": "function"
    },
    {
      "inputs": [],
      "name": "minimumTokenThreshold",
      "outputs": [
        {
          "internalType": "uint256",
          "name": "",
          "type": "uint256"
        }
      ],
      "stateMutability": "view",
      "type": "function"
    },
    {
      "inputs": [],
      "name": "name",
      "outputs": [
        {
          "internalType": "string",
          "name": "",
          "type": "string"
        }
      ],
      "stateMutability": "view",
      "type": "function"
    },
    {
      "inputs": [],
      "name": "symbol",
      "outputs": [
        {
          "internalType": "string",
          "name": "",
          "type": "string"
        }
      ],
      "stateMutability": "view",
      "type": "function"
    },
    {
      "inputs": [],
      "name": "thresholdTimeout",
      "outputs": [
        {
          "internalType": "uint256",
          "name": "",
          "type": "uint256"
        }
      ],
      "stateMutability": "view",
      "type": "function"
    },
    {
      "inputs": [],
      "name": "tokenThreshold",
      "outputs": [
        {
          "internalType": "uint256",
          "name": "",
          "type": "uint256"
        }
      ],
      "stateMutability": "view",
      "type": "function"
    },
    {
      "inputs": [],
      "name": "totalSupply",
      "outputs": [
        {
          "internalType": "uint256",
          "name": "",
          "type": "uint256"
        }
      ],
      "stateMutability": "view",
      "type": "function"
    },
    {
      "inputs": [
        {
          "internalType": "address",
          "name": "recipient",
          "type": "address"
        },
        {
          "internalType": "uint256",
          "name": "amount",
          "type": "uint256"
        }
      ],
      "name": "transfer",
      "outputs": [
        {
          "internalType": "bool",
          "name": "",
          "type": "bool"
        }
      ],
      "stateMutability": "nonpayable",
      "type": "function"
    },
    {
      "inputs": [
        {
          "internalType": "address",
          "name": "sender",
          "type": "address"
        },
        {
          "internalType": "address",
          "name": "recipient",
          "type": "address"
        },
        {
          "internalType": "uint256",
          "name": "amount",
          "type": "uint256"
        }
      ],
      "name": "transferFrom",
      "outputs": [
        {
          "internalType": "bool",
          "name": "",
          "type": "bool"
        }
      ],
      "stateMutability": "nonpayable",
      "type": "function"
    },
    {
      "inputs": [],
      "name": "transfterInstance",
      "outputs": [
        {
          "internalType": "contract I_MarketTransition",
          "name": "",
          "type": "address"
        }
      ],
      "stateMutability": "view",
      "type": "function"
    },
    {
      "inputs": [],
      "name": "transitionCompleated",
      "outputs": [
        {
          "internalType": "bool",
          "name": "",
          "type": "bool"
        }
      ],
      "stateMutability": "view",
      "type": "function"
    },
    {
      "inputs": [],
      "name": "transitionConditionsMet",
      "outputs": [
        {
          "internalType": "bool",
          "name": "",
          "type": "bool"
        }
      ],
      "stateMutability": "view",
      "type": "function"
    },
    {
      "inputs": [
        {
          "internalType": "uint256",
          "name": "_tokens",
          "type": "uint256"
        }
      ],
      "name": "buy",
      "outputs": [],
      "stateMutability": "nonpayable",
      "type": "function"
    },
    {
      "inputs": [
        {
          "internalType": "uint256",
          "name": "_tokens",
          "type": "uint256"
        }
      ],
      "name": "sell",
      "outputs": [],
      "stateMutability": "nonpayable",
      "type": "function"
    },
    {
      "inputs": [],
      "name": "setTransition",
      "outputs": [],
      "stateMutability": "nonpayable",
      "type": "function"
    },
    {
      "inputs": [
        {
          "internalType": "uint256",
          "name": "_tokens",
          "type": "uint256"
        }
      ],
      "name": "getBuyCost",
      "outputs": [
        {
          "internalType": "uint256",
          "name": "",
          "type": "uint256"
        }
      ],
      "stateMutability": "view",
      "type": "function"
    },
    {
      "inputs": [
        {
          "internalType": "uint256",
          "name": "_tokens",
          "type": "uint256"
        }
      ],
      "name": "getSellAmount",
      "outputs": [
        {
          "internalType": "uint256",
          "name": "",
          "type": "uint256"
        }
      ],
      "stateMutability": "view",
      "type": "function"
    },
    {
      "inputs": [],
      "name": "getCurve",
      "outputs": [
        {
          "internalType": "uint256",
          "name": "",
          "type": "uint256"
        },
        {
          "internalType": "uint256",
          "name": "",
          "type": "uint256"
        },
        {
          "internalType": "uint256",
          "name": "",
          "type": "uint256"
        }
      ],
      "stateMutability": "view",
      "type": "function"
    },
    {
      "inputs": [],
      "name": "getCollateralInstance",
      "outputs": [
        {
          "internalType": "address",
          "name": "",
          "type": "address"
        }
      ],
      "stateMutability": "view",
      "type": "function"
    },
    {
      "inputs": [],
      "name": "getTokenStatus",
      "outputs": [
        {
          "internalType": "bool",
          "name": "",
          "type": "bool"
        },
        {
          "internalType": "bool",
          "name": "",
          "type": "bool"
        }
      ],
      "stateMutability": "view",
      "type": "function"
    },
    {
      "inputs": [],
      "name": "getTransitionThresholds",
      "outputs": [
        {
          "internalType": "uint256",
          "name": "",
          "type": "uint256"
        },
        {
          "internalType": "uint256",
          "name": "",
          "type": "uint256"
        },
        {
          "internalType": "uint256",
          "name": "",
          "type": "uint256"
        }
      ],
      "stateMutability": "view",
      "type": "function"
    },
    {
      "inputs": [
        {
          "internalType": "uint256",
          "name": "_months",
          "type": "uint256"
        }
      ],
      "name": "getMonthsFutureTimestamp",
      "outputs": [
        {
          "internalType": "uint256",
          "name": "",
          "type": "uint256"
        }
      ],
      "stateMutability": "view",
      "type": "function"
    }
  ],
  "bytecode": "0x60806040523480156200001157600080fd5b50604051620035113803806200351183398181016040526101808110156200003857600080fd5b81019080805190602001909291908051906020019092919080519060200190929190919082606001805160405193929190846401000000008211156200007d57600080fd5b838201915060208201858111156200009457600080fd5b8251866001820283011164010000000082111715620000b257600080fd5b8083526020830192505050908051906020019080838360005b83811015620000e8578082015181840152602081019050620000cb565b50505050905090810190601f168015620001165780820380516001836020036101000a031916815260200191505b50604052602001805160405193929190846401000000008211156200013a57600080fd5b838201915060208201858111156200015157600080fd5b82518660018202830111640100000000821117156200016f57600080fd5b8083526020830192505050908051906020019080838360005b83811015620001a557808201518184015260208101905062000188565b50505050905090810190601f168015620001d35780820380516001836020036101000a031916815260200191505b5060405260200180519060200190929190805190602001909291908051906020019092919080519060200190929190505050858581600390805190602001906200021f92919062000393565b5080600490805190602001906200023892919062000393565b506012600560006101000a81548160ff021916908360ff160217905550505089600a60006101000a81548173ffffffffffffffffffffffffffffffffffffffff021916908373ffffffffffffffffffffffffffffffffffffffff16021790555088600c60006101000a81548173ffffffffffffffffffffffffffffffffffffffff021916908373ffffffffffffffffffffffffffffffffffffffff1602179055508760068190555086600060038110620002ee57fe5b6020020151600781905550866001600381106200030757fe5b6020020151600881905550866002600381106200032057fe5b602002015160098190555083600b60006101000a81548173ffffffffffffffffffffffffffffffffffffffff021916908373ffffffffffffffffffffffffffffffffffffffff16021790555082600d8190555081600e81905550804201600f819055505050505050505050505062000442565b828054600181600116156101000203166002900490600052602060002090601f016020900481019282601f10620003d657805160ff191683800117855562000407565b8280016001018555821562000407579182015b8281111562000406578251825591602001919060010190620003e9565b5b5090506200041691906200041a565b5090565b6200043f91905b808211156200043b57600081600090555060010162000421565b5090565b90565b6130bf80620004526000396000f3fe608060405234801561001057600080fd5b50600436106101fb5760003560e01c806366692ff01161011a578063a457c2d7116100ad578063d5abeb011161007c578063d5abeb0114610907578063d73e8d4214610925578063d96a094a14610951578063dd62ed3e1461097f578063e4849b32146109f7576101fb565b8063a457c2d7146107db578063a9059cbb14610841578063b3d69b78146108a7578063c3da42b8146108e9576101fb565b80637edc9d4b116100e95780637edc9d4b146106b557806395d89b41146106e25780639c74e7b814610765578063a1b2ab2814610791576101fb565b806366692ff0146105df57806370a08231146105fd578063768713f514610655578063792ec7a414610697576101fb565b806339509351116101925780634c3ef6dc116101615780634c3ef6dc146105775780634df7e3d0146105955780634f921cf1146105b3578063647aa996146105bd576101fb565b8063395093511461045b5780633f101376146104c157806340fce0f9146104e3578063495ebdc61461052d576101fb565b806318160ddd116101ce57806318160ddd1461034957806319e6f29a1461036757806323b872dd146103b1578063313ce56714610437576101fb565b806306fdde0314610200578063095ea7b3146102835780630ae66820146102e95780630dbe671f1461032b575b600080fd5b610208610a25565b6040518080602001828103825283818151815260200191508051906020019080838360005b8381101561024857808201518184015260208101905061022d565b50505050905090810190601f1680156102755780820380516001836020036101000a031916815260200191505b509250505060405180910390f35b6102cf6004803603604081101561029957600080fd5b81019080803573ffffffffffffffffffffffffffffffffffffffff16906020019092919080359060200190929190505050610ac7565b604051808215151515815260200191505060405180910390f35b610315600480360360208110156102ff57600080fd5b8101908080359060200190929190505050610ae5565b6040518082815260200191505060405180910390f35b610333610b9c565b6040518082815260200191505060405180910390f35b610351610ba2565b6040518082815260200191505060405180910390f35b61036f610bac565b604051808273ffffffffffffffffffffffffffffffffffffffff1673ffffffffffffffffffffffffffffffffffffffff16815260200191505060405180910390f35b61041d600480360360608110156103c757600080fd5b81019080803573ffffffffffffffffffffffffffffffffffffffff169060200190929190803573ffffffffffffffffffffffffffffffffffffffff16906020019092919080359060200190929190505050610bd2565b604051808215151515815260200191505060405180910390f35b61043f610cab565b604051808260ff1660ff16815260200191505060405180910390f35b6104a76004803603604081101561047157600080fd5b81019080803573ffffffffffffffffffffffffffffffffffffffff16906020019092919080359060200190929190505050610cc2565b604051808215151515815260200191505060405180910390f35b6104c9610d75565b604051808215151515815260200191505060405180910390f35b6104eb610d88565b604051808273ffffffffffffffffffffffffffffffffffffffff1673ffffffffffffffffffffffffffffffffffffffff16815260200191505060405180910390f35b610535610dae565b604051808273ffffffffffffffffffffffffffffffffffffffff1673ffffffffffffffffffffffffffffffffffffffff16815260200191505060405180910390f35b61057f610dd4565b6040518082815260200191505060405180910390f35b61059d610dda565b6040518082815260200191505060405180910390f35b6105bb610de0565b005b6105c5610ea3565b604051808215151515815260200191505060405180910390f35b6105e7610eb6565b6040518082815260200191505060405180910390f35b61063f6004803603602081101561061357600080fd5b81019080803573ffffffffffffffffffffffffffffffffffffffff169060200190929190505050610ebc565b6040518082815260200191505060405180910390f35b6106816004803603602081101561066b57600080fd5b8101908080359060200190929190505050610f04565b6040518082815260200191505060405180910390f35b61069f61104d565b6040518082815260200191505060405180910390f35b6106bd611053565b6040518083151515158152602001821515151581526020019250505060405180910390f35b6106ea61107e565b6040518080602001828103825283818151815260200191508051906020019080838360005b8381101561072a57808201518184015260208101905061070f565b50505050905090810190601f1680156107575780820380516001836020036101000a031916815260200191505b509250505060405180910390f35b61076d611120565b60405180848152602001838152602001828152602001935050505060405180910390f35b610799611139565b604051808273ffffffffffffffffffffffffffffffffffffffff1673ffffffffffffffffffffffffffffffffffffffff16815260200191505060405180910390f35b610827600480360360408110156107f157600080fd5b81019080803573ffffffffffffffffffffffffffffffffffffffff16906020019092919080359060200190929190505050611163565b604051808215151515815260200191505060405180910390f35b61088d6004803603604081101561085757600080fd5b81019080803573ffffffffffffffffffffffffffffffffffffffff16906020019092919080359060200190929190505050611230565b604051808215151515815260200191505060405180910390f35b6108d3600480360360208110156108bd57600080fd5b810190808035906020019092919050505061124e565b6040518082815260200191505060405180910390f35b6108f161126a565b6040518082815260200191505060405180910390f35b61090f611270565b6040518082815260200191505060405180910390f35b61092d611276565b60405180848152602001838152602001828152602001935050505060405180910390f35b61097d6004803603602081101561096757600080fd5b810190808035906020019092919050505061128f565b005b6109e16004803603604081101561099557600080fd5b81019080803573ffffffffffffffffffffffffffffffffffffffff169060200190929190803573ffffffffffffffffffffffffffffffffffffffff16906020019092919050505061144b565b6040518082815260200191505060405180910390f35b610a2360048036036020811015610a0d57600080fd5b81019080803590602001909291905050506114d2565b005b606060038054600181600116156101000203166002900480601f016020809104026020016040519081016040528092919081815260200182805460018160011615610100020316600290048015610abd5780601f10610a9257610100808354040283529160200191610abd565b820191906000526020600020905b815481529060010190602001808311610aa057829003601f168201915b5050505050905090565b6000610adb610ad46117e7565b84846117ef565b6001905092915050565b6000600a60009054906101000a900473ffffffffffffffffffffffffffffffffffffffff1673ffffffffffffffffffffffffffffffffffffffff166308d4db14836040518263ffffffff1660e01b81526004018082815260200191505060206040518083038186803b158015610b5a57600080fd5b505afa158015610b6e573d6000803e3d6000fd5b505050506040513d6020811015610b8457600080fd5b81019080805190602001909291905050509050919050565b60075481565b6000600254905090565b600c60009054906101000a900473ffffffffffffffffffffffffffffffffffffffff1681565b6000610bdf8484846119e6565b610ca084610beb6117e7565b610c9b85604051806060016040528060288152602001612f5660289139600160008b73ffffffffffffffffffffffffffffffffffffffff1673ffffffffffffffffffffffffffffffffffffffff1681526020019081526020016000206000610c516117e7565b73ffffffffffffffffffffffffffffffffffffffff1673ffffffffffffffffffffffffffffffffffffffff16815260200190815260200160002054611ca79092919063ffffffff16565b6117ef565b600190509392505050565b6000600560009054906101000a900460ff16905090565b6000610d6b610ccf6117e7565b84610d668560016000610ce06117e7565b73ffffffffffffffffffffffffffffffffffffffff1673ffffffffffffffffffffffffffffffffffffffff16815260200190815260200160002060008973ffffffffffffffffffffffffffffffffffffffff1673ffffffffffffffffffffffffffffffffffffffff16815260200190815260200160002054611d6790919063ffffffff16565b6117ef565b6001905092915050565b600c60159054906101000a900460ff1681565b600a60009054906101000a900473ffffffffffffffffffffffffffffffffffffffff1681565b600b60009054906101000a900473ffffffffffffffffffffffffffffffffffffffff1681565b600e5481565b60085481565b600c60009054906101000a900473ffffffffffffffffffffffffffffffffffffffff1673ffffffffffffffffffffffffffffffffffffffff163373ffffffffffffffffffffffffffffffffffffffff1614610e86576040517f08c379a000000000000000000000000000000000000000000000000000000000815260040180806020018281038252603981526020018061300a6039913960400191505060405180910390fd5b6001600c60156101000a81548160ff021916908315150217905550565b600c60149054906101000a900460ff1681565b600d5481565b60008060008373ffffffffffffffffffffffffffffffffffffffff1673ffffffffffffffffffffffffffffffffffffffff168152602001908152602001600020549050919050565b6000803073ffffffffffffffffffffffffffffffffffffffff166318160ddd6040518163ffffffff1660e01b815260040160206040518083038186803b158015610f4d57600080fd5b505afa158015610f61573d6000803e3d6000fd5b505050506040513d6020811015610f7757600080fd5b81019080805190602001909291905050501415610f975760009050611048565b600a60009054906101000a900473ffffffffffffffffffffffffffffffffffffffff1673ffffffffffffffffffffffffffffffffffffffff1663768713f5836040518263ffffffff1660e01b81526004018082815260200191505060206040518083038186803b15801561100a57600080fd5b505afa15801561101e573d6000803e3d6000fd5b505050506040513d602081101561103457600080fd5b810190808051906020019092919050505090505b919050565b600f5481565b600080600c60149054906101000a900460ff16600c60159054906101000a900460ff16915091509091565b606060048054600181600116156101000203166002900480601f0160208091040260200160405190810160405280929190818152602001828054600181600116156101000203166002900480156111165780601f106110eb57610100808354040283529160200191611116565b820191906000526020600020905b8154815290600101906020018083116110f957829003601f168201915b5050505050905090565b6000806000600d54600e54600f54925092509250909192565b6000600b60009054906101000a900473ffffffffffffffffffffffffffffffffffffffff16905090565b60006112266111706117e7565b8461122185604051806060016040528060258152602001613065602591396001600061119a6117e7565b73ffffffffffffffffffffffffffffffffffffffff1673ffffffffffffffffffffffffffffffffffffffff16815260200190815260200160002060008a73ffffffffffffffffffffffffffffffffffffffff1673ffffffffffffffffffffffffffffffffffffffff16815260200190815260200160002054611ca79092919063ffffffff16565b6117ef565b6001905092915050565b600061124461123d6117e7565b84846119e6565b6001905092915050565b60006112638242611def90919063ffffffff16565b9050919050565b60095481565b60065481565b6000806000600754600854600954925092509250909192565b600c60159054906101000a900460ff16156112f5576040517f08c379a00000000000000000000000000000000000000000000000000000000081526004018080602001828103825260228152602001806130436022913960400191505060405180910390fd5b611300600182611e8e565b600c60149054906101000a900460ff161561143e57600d54813073ffffffffffffffffffffffffffffffffffffffff166318160ddd6040518163ffffffff1660e01b815260040160206040518083038186803b15801561135f57600080fd5b505afa158015611373573d6000803e3d6000fd5b505050506040513d602081101561138957600080fd5b81019080805190602001909291905050500110611431573073ffffffffffffffffffffffffffffffffffffffff166318160ddd6040518163ffffffff1660e01b815260040160206040518083038186803b1580156113e657600080fd5b505afa1580156113fa573d6000803e3d6000fd5b505050506040513d602081101561141057600080fd5b8101908080519060200190929190505050600d5403905061143081612004565b5b61143961230f565b611448565b61144781612004565b5b50565b6000600160008473ffffffffffffffffffffffffffffffffffffffff1673ffffffffffffffffffffffffffffffffffffffff16815260200190815260200160002060008373ffffffffffffffffffffffffffffffffffffffff1673ffffffffffffffffffffffffffffffffffffffff16815260200190815260200160002054905092915050565b600c60159054906101000a900460ff1615611538576040517f08c379a00000000000000000000000000000000000000000000000000000000081526004018080602001828103825260228152602001806130436022913960400191505060405180910390fd5b611543600082611e8e565b600c60149054906101000a900460ff16156115655761156061230f565b6117e4565b600061157082610f04565b9050813073ffffffffffffffffffffffffffffffffffffffff166370a08231336040518263ffffffff1660e01b8152600401808273ffffffffffffffffffffffffffffffffffffffff1673ffffffffffffffffffffffffffffffffffffffff16815260200191505060206040518083038186803b1580156115f057600080fd5b505afa158015611604573d6000803e3d6000fd5b505050506040513d602081101561161a57600080fd5b81019080805190602001909291905050501015611682576040517f08c379a0000000000000000000000000000000000000000000000000000000008152600401808060200182810382526022815260200180612fe86022913960400191505060405180910390fd5b600b60009054906101000a900473ffffffffffffffffffffffffffffffffffffffff1673ffffffffffffffffffffffffffffffffffffffff1663a9059cbb33836040518363ffffffff1660e01b8152600401808373ffffffffffffffffffffffffffffffffffffffff1673ffffffffffffffffffffffffffffffffffffffff16815260200182815260200192505050602060405180830381600087803b15801561172b57600080fd5b505af115801561173f573d6000803e3d6000fd5b505050506040513d602081101561175557600080fd5b81019080805190602001909291905050506117d8576040517f08c379a00000000000000000000000000000000000000000000000000000000081526004018080602001828103825260208152602001807f5472616e73666572696e67206f6620636f6c6c61746572616c206661696c656481525060200191505060405180910390fd5b6117e233836127c7565b505b50565b600033905090565b600073ffffffffffffffffffffffffffffffffffffffff168373ffffffffffffffffffffffffffffffffffffffff161415611875576040517f08c379a0000000000000000000000000000000000000000000000000000000008152600401808060200182810382526024815260200180612fc46024913960400191505060405180910390fd5b600073ffffffffffffffffffffffffffffffffffffffff168273ffffffffffffffffffffffffffffffffffffffff1614156118fb576040517f08c379a0000000000000000000000000000000000000000000000000000000008152600401808060200182810382526022815260200180612ea16022913960400191505060405180910390fd5b80600160008573ffffffffffffffffffffffffffffffffffffffff1673ffffffffffffffffffffffffffffffffffffffff16815260200190815260200160002060008473ffffffffffffffffffffffffffffffffffffffff1673ffffffffffffffffffffffffffffffffffffffff168152602001908152602001600020819055508173ffffffffffffffffffffffffffffffffffffffff168373ffffffffffffffffffffffffffffffffffffffff167f8c5be1e5ebec7d5bd14f71427d1e84f3dd0314c0f7b2291e5b200ac8c7c3b925836040518082815260200191505060405180910390a3505050565b600073ffffffffffffffffffffffffffffffffffffffff168373ffffffffffffffffffffffffffffffffffffffff161415611a6c576040517f08c379a0000000000000000000000000000000000000000000000000000000008152600401808060200182810382526025815260200180612f9f6025913960400191505060405180910390fd5b600073ffffffffffffffffffffffffffffffffffffffff168273ffffffffffffffffffffffffffffffffffffffff161415611af2576040517f08c379a0000000000000000000000000000000000000000000000000000000008152600401808060200182810382526023815260200180612e5c6023913960400191505060405180910390fd5b611afd83838361298b565b611b6881604051806060016040528060268152602001612f30602691396000808773ffffffffffffffffffffffffffffffffffffffff1673ffffffffffffffffffffffffffffffffffffffff16815260200190815260200160002054611ca79092919063ffffffff16565b6000808573ffffffffffffffffffffffffffffffffffffffff1673ffffffffffffffffffffffffffffffffffffffff16815260200190815260200160002081905550611bfb816000808573ffffffffffffffffffffffffffffffffffffffff1673ffffffffffffffffffffffffffffffffffffffff16815260200190815260200160002054611d6790919063ffffffff16565b6000808473ffffffffffffffffffffffffffffffffffffffff1673ffffffffffffffffffffffffffffffffffffffff168152602001908152602001600020819055508173ffffffffffffffffffffffffffffffffffffffff168373ffffffffffffffffffffffffffffffffffffffff167fddf252ad1be2c89b69c2b068fc378daa952ba7f163c4a11628f55a4df523b3ef836040518082815260200191505060405180910390a3505050565b6000838311158290611d54576040517f08c379a00000000000000000000000000000000000000000000000000000000081526004018080602001828103825283818151815260200191508051906020019080838360005b83811015611d19578082015181840152602081019050611cfe565b50505050905090810190601f168015611d465780820380516001836020036101000a031916815260200191505b509250505060405180910390fd5b5060008385039050809150509392505050565b600080828401905083811015611de5576040517f08c379a000000000000000000000000000000000000000000000000000000000815260040180806020018281038252601b8152602001807f536166654d6174683a206164646974696f6e206f766572666c6f77000000000081525060200191505060405180910390fd5b8091505092915050565b600080600080611e0a620151808781611e0457fe5b04612990565b8093508194508295505050508482019150600c6001830381611e2857fe5b04830192506001600c6001840381611e3c57fe5b060191506000611e4c8484612a64565b905080821115611e5a578091505b620151808781611e6657fe5b0662015180611e76868686612aef565b0201945086851015611e8457fe5b5050505092915050565b60008215611f4557813073ffffffffffffffffffffffffffffffffffffffff166318160ddd6040518163ffffffff1660e01b815260040160206040518083038186803b158015611edd57600080fd5b505afa158015611ef1573d6000803e3d6000fd5b505050506040513d6020811015611f0757600080fd5b8101908080519060200190929190505050019050600d548110611f40576001600c60146101000a81548160ff0219169083151502179055505b611fcb565b813073ffffffffffffffffffffffffffffffffffffffff166318160ddd6040518163ffffffff1660e01b815260040160206040518083038186803b158015611f8c57600080fd5b505afa158015611fa0573d6000803e3d6000fd5b505050506040513d6020811015611fb657600080fd5b81019080805190602001909291905050500390505b600f544210611fff57600e548110611ffd576001600c60146101000a81548160ff021916908315150217905550611ffe565b5b5b505050565b600061200f82610ae5565b905080600b60009054906101000a900473ffffffffffffffffffffffffffffffffffffffff1673ffffffffffffffffffffffffffffffffffffffff1663dd62ed3e33306040518363ffffffff1660e01b8152600401808373ffffffffffffffffffffffffffffffffffffffff1673ffffffffffffffffffffffffffffffffffffffff1681526020018273ffffffffffffffffffffffffffffffffffffffff1673ffffffffffffffffffffffffffffffffffffffff1681526020019250505060206040518083038186803b1580156120e557600080fd5b505afa1580156120f9573d6000803e3d6000fd5b505050506040513d602081101561210f57600080fd5b81019080805190602001909291905050501015612177576040517f08c379a0000000000000000000000000000000000000000000000000000000008152600401808060200182810382526034815260200180612ec36034913960400191505060405180910390fd5b600b60009054906101000a900473ffffffffffffffffffffffffffffffffffffffff1673ffffffffffffffffffffffffffffffffffffffff166323b872dd3330846040518463ffffffff1660e01b8152600401808473ffffffffffffffffffffffffffffffffffffffff1673ffffffffffffffffffffffffffffffffffffffff1681526020018373ffffffffffffffffffffffffffffffffffffffff1673ffffffffffffffffffffffffffffffffffffffff1681526020018281526020019350505050602060405180830381600087803b15801561225457600080fd5b505af1158015612268573d6000803e3d6000fd5b505050506040513d602081101561227e57600080fd5b8101908080519060200190929190505050612301576040517f08c379a00000000000000000000000000000000000000000000000000000000081526004018080602001828103825260208152602001807f5472616e73666572696e67206f6620636f6c6c61746572616c206661696c656481525060200191505060405180910390fd5b61230b3383612c07565b5050565b600c60149054906101000a900460ff16612374576040517f08c379a0000000000000000000000000000000000000000000000000000000008152600401808060200182810382526039815260200180612ef76039913960400191505060405180910390fd5b6000600c60009054906101000a900473ffffffffffffffffffffffffffffffffffffffff1673ffffffffffffffffffffffffffffffffffffffff1663d54f7d5e6040518163ffffffff1660e01b815260040160206040518083038186803b1580156123de57600080fd5b505afa1580156123f2573d6000803e3d6000fd5b505050506040513d602081101561240857600080fd5b810190808051906020019092919050505090506000600c60009054906101000a900473ffffffffffffffffffffffffffffffffffffffff1673ffffffffffffffffffffffffffffffffffffffff1663bd16a5076040518163ffffffff1660e01b8152600401602060405180830381600087803b15801561248757600080fd5b505af115801561249b573d6000803e3d6000fd5b505050506040513d60208110156124b157600080fd5b810190808051906020019092919050505090506124f0600c60009054906101000a900473ffffffffffffffffffffffffffffffffffffffff1682612c07565b600b60009054906101000a900473ffffffffffffffffffffffffffffffffffffffff1673ffffffffffffffffffffffffffffffffffffffff1663a9059cbb600c60009054906101000a900473ffffffffffffffffffffffffffffffffffffffff16600b60009054906101000a900473ffffffffffffffffffffffffffffffffffffffff1673ffffffffffffffffffffffffffffffffffffffff166370a08231306040518263ffffffff1660e01b8152600401808273ffffffffffffffffffffffffffffffffffffffff1673ffffffffffffffffffffffffffffffffffffffff16815260200191505060206040518083038186803b1580156125f057600080fd5b505afa158015612604573d6000803e3d6000fd5b505050506040513d602081101561261a57600080fd5b81019080805190602001909291905050506040518363ffffffff1660e01b8152600401808373ffffffffffffffffffffffffffffffffffffffff1673ffffffffffffffffffffffffffffffffffffffff16815260200182815260200192505050602060405180830381600087803b15801561269457600080fd5b505af11580156126a8573d6000803e3d6000fd5b505050506040513d60208110156126be57600080fd5b8101908080519060200190929190505050612741576040517f08c379a000000000000000000000000000000000000000000000000000000000815260040180806020018281038252601d8152602001807f5472616e73666572206f6620636f6c6c61746572616c206661696c656400000081525060200191505060405180910390fd5b600c60009054906101000a900473ffffffffffffffffffffffffffffffffffffffff1673ffffffffffffffffffffffffffffffffffffffff1663d7efbf346040518163ffffffff1660e01b8152600401600060405180830381600087803b1580156127ab57600080fd5b505af11580156127bf573d6000803e3d6000fd5b505050505050565b600073ffffffffffffffffffffffffffffffffffffffff168273ffffffffffffffffffffffffffffffffffffffff16141561284d576040517f08c379a0000000000000000000000000000000000000000000000000000000008152600401808060200182810382526021815260200180612f7e6021913960400191505060405180910390fd5b6128598260008361298b565b6128c481604051806060016040528060228152602001612e7f602291396000808673ffffffffffffffffffffffffffffffffffffffff1673ffffffffffffffffffffffffffffffffffffffff16815260200190815260200160002054611ca79092919063ffffffff16565b6000808473ffffffffffffffffffffffffffffffffffffffff1673ffffffffffffffffffffffffffffffffffffffff1681526020019081526020016000208190555061291b81600254612dce90919063ffffffff16565b600281905550600073ffffffffffffffffffffffffffffffffffffffff168273ffffffffffffffffffffffffffffffffffffffff167fddf252ad1be2c89b69c2b068fc378daa952ba7f163c4a11628f55a4df523b3ef836040518082815260200191505060405180910390a35050565b505050565b600080600080849050600062253d8c62010bd98301019050600062023ab182600402816129b957fe5b059050600460038262023ab10201816129ce57fe5b0582039150600062164b0960018401610fa002816129e857fe5b059050601f6004826105b502816129fb57fe5b058403019250600061098f8460500281612a1157fe5b059050600060508261098f0281612a2457fe5b0585039050600b8281612a3357fe5b05945084600c0260028301039150848360318603606402010192508298508197508096505050505050509193909250565b60006001821480612a755750600382145b80612a805750600582145b80612a8b5750600782145b80612a965750600882145b80612aa15750600a82145b80612aac5750600c82145b15612aba57601f9050612ae9565b60028214612acb57601e9050612ae8565b612ad483612e18565b612adf57601c612ae2565b601d5b60ff1690505b5b92915050565b60006107b2841015612b69576040517f08c379a000000000000000000000000000000000000000000000000000000000815260040180806020018281038252600b8152602001807f45706f6368206572726f7200000000000000000000000000000000000000000081525060200191505060405180910390fd5b600084905060008490506000849050600062253d8c60046064600c600e870381612b8f57fe5b0561132488010181612b9d57fe5b0560030281612ba857fe5b05600c80600c600e880381612bb957fe5b0502600287030361016f0281612bcb57fe5b056004600c600e880381612bdb57fe5b056112c08901016105b50281612bed57fe5b05617d4b8603010103039050809450505050509392505050565b600073ffffffffffffffffffffffffffffffffffffffff168273ffffffffffffffffffffffffffffffffffffffff161415612caa576040517f08c379a000000000000000000000000000000000000000000000000000000000815260040180806020018281038252601f8152602001807f45524332303a206d696e7420746f20746865207a65726f20616464726573730081525060200191505060405180910390fd5b612cb66000838361298b565b612ccb81600254611d6790919063ffffffff16565b600281905550612d22816000808573ffffffffffffffffffffffffffffffffffffffff1673ffffffffffffffffffffffffffffffffffffffff16815260200190815260200160002054611d6790919063ffffffff16565b6000808473ffffffffffffffffffffffffffffffffffffffff1673ffffffffffffffffffffffffffffffffffffffff168152602001908152602001600020819055508173ffffffffffffffffffffffffffffffffffffffff16600073ffffffffffffffffffffffffffffffffffffffff167fddf252ad1be2c89b69c2b068fc378daa952ba7f163c4a11628f55a4df523b3ef836040518082815260200191505060405180910390a35050565b6000612e1083836040518060400160405280601e81526020017f536166654d6174683a207375627472616374696f6e206f766572666c6f770000815250611ca7565b905092915050565b60008060048381612e2557fe5b06148015612e3e5750600060648381612e3a57fe5b0614155b80612e54575060006101908381612e5157fe5b06145b905091905056fe45524332303a207472616e7366657220746f20746865207a65726f206164647265737345524332303a206275726e20616d6f756e7420657863656564732062616c616e636545524332303a20617070726f766520746f20746865207a65726f20616464726573735573657220686173206e6f7420617070726f76656420636f6e747261637420666f7220746f6b656e20636f737420616d6f756e74546f6b656e20686173206e6f74206d657420726571756972656d656e747320666f722066726565206d61726b6574207472616e736974696f6e45524332303a207472616e7366657220616d6f756e7420657863656564732062616c616e636545524332303a207472616e7366657220616d6f756e74206578636565647320616c6c6f77616e636545524332303a206275726e2066726f6d20746865207a65726f206164647265737345524332303a207472616e736665722066726f6d20746865207a65726f206164647265737345524332303a20617070726f76652066726f6d20746865207a65726f206164647265737343616e6e6f742073656c6c206d6f726520746f6b656e73207468616e206f776e65644f6e6c79207472616e736974696f6e696e6720636f6e7472616374206d6179206d61726b207472616e736974696f6e20636f6d706c656174654d61726b657420686173207472616e736974696f6e656420746f20756e697377617045524332303a2064656372656173656420616c6c6f77616e63652062656c6f77207a65726fa2646970667358221220d29e42ce093e380571404e3cded04d330cd235ed1d19e04d319a6dcd3649305d64736f6c63430006060033",
  "source": "pragma solidity 0.6.6;\n\nimport \"./I_Token.sol\";\nimport \"./I_Curve.sol\";\nimport \"./I_MarketTransition.sol\";\nimport \"./IUniswapV2Router01.sol\";\nimport \"../node_modules/openzeppelin-solidity/contracts/token/ERC20/ERC20.sol\";\nimport \"../node_modules/openzeppelin-solidity/contracts/token/ERC20/IERC20.sol\";\nimport \"./BokkyPooBahsDateTimeLibrary.sol\";\n\ncontract Token is ERC20 {\n    using BokkyPooBahsDateTimeLibrary for uint256;\n    // TODO remove\n    uint256 public maxSupply;\n    // Curve set up\n    uint256 public a;\n    uint256 public b;\n    uint256 public c;\n    // Instances for contract interactions\n    I_Curve public curveInstance;\n    IERC20 public collateralInstance;\n    I_MarketTransition public transfterInstance;\n    // Transition variables\n    bool public transitionConditionsMet;\n    bool public transitionCompleated;\n    // Threshold collateral amount for open market transition\n    uint256 public tokenThreshold;\n    uint256 public minimumTokenThreshold;\n    uint256 public thresholdTimeout;\n\n    event transfering(uint collateral, uint tokensToMint);\n    event transitionToFreeMarket(uint amountA, uint amountB, uint liquidity);\n    event wtf(uint tokens, uint collateral, address sender);\n\n    modifier freeMarket() {\n        require(\n            !transitionCompleated,\n            \"Market has transitioned to uniswap\"\n        );\n        _;\n    }\n\n    constructor(\n        address _curveInstance,\n        address _transiton,\n        uint256 _maxSupply,\n        uint256[3] memory _curveParameters,\n        string memory _name,\n        string memory _sybol,\n        address _underlyingCollateral,\n        uint256 _tokenThreshold,\n        uint256 _minimumTokenThreshold,\n        uint256 _thresholdTimeout\n    )\n        ERC20(\n            _name,\n            _sybol\n        )\n        public \n    {\n        curveInstance = I_Curve(_curveInstance);\n        transfterInstance = I_MarketTransition(_transiton);\n        maxSupply = _maxSupply;\n        a = _curveParameters[0];\n        b = _curveParameters[1];\n        c = _curveParameters[2];\n        collateralInstance = IERC20(_underlyingCollateral);\n\n        tokenThreshold = _tokenThreshold;\n        minimumTokenThreshold = _minimumTokenThreshold;\n        thresholdTimeout = now + _thresholdTimeout;\n    }\n\n    function buy(uint256 _tokens) external freeMarket() {\n        _transitionCheck(true, _tokens); \n        // TODO 1. if your buy will push the limit you should be able to\n        // buy up untill the limit (to met the amount so that it transitions)\n        // and then it will not use any funds over that\n        // and possibly removes exes approval (just to set a good stanard)\n        // if(supply+_tokens => transitionCheck == true) {then buy till limit}\n        if(transitionConditionsMet) {\n            if(\n                this.totalSupply() + _tokens >= tokenThreshold\n            ) {\n                _tokens = tokenThreshold - this.totalSupply();\n\n                _executeBuy(_tokens);\n            }\n            // Transitions market to uniswap \n            _transition();\n\n        } else {\n            // Transition threshold not met\n            _executeBuy(_tokens);\n        }\n    }\n\n    function _executeBuy(uint _tokens) internal {\n        uint256 cost = getBuyCost(_tokens);\n\n        require(\n            collateralInstance.allowance(\n                msg.sender, address(this)\n            ) >= cost,\n            \"User has not approved contract for token cost amount\"\n        );\n\n        require(\n            collateralInstance.transferFrom(\n                msg.sender,\n                address(this),\n                cost\n            ),\n            \"Transfering of collateral failed\"\n        );\n\n        _mint(msg.sender, _tokens);\n    }\n\n    function sell(uint256 _tokens) external freeMarket() {\n        _transitionCheck(false, _tokens); \n        if(transitionConditionsMet) {\n            _transition();\n        } else {\n            uint256 reward = getSellAmount(_tokens);\n\n            require(\n                this.balanceOf(msg.sender) >= _tokens,\n                \"Cannot sell more tokens than owned\"\n            );\n\n            require(\n                collateralInstance.transfer(\n                    msg.sender,\n                    reward\n                ),\n                \"Transfering of collateral failed\"\n            );\n\n            _burn(msg.sender, _tokens);\n        }\n    }\n\n    function setTransition() external {\n        require(\n            msg.sender == address(transfterInstance),\n            \"Only transitioning contract may mark transition compleate\"\n        );\n\n        transitionCompleated = true;\n    }\n\n    function getBuyCost(uint256 _tokens) public view returns(uint256) {\n        return curveInstance.getBuyPrice(_tokens);\n    } \n\n    function getSellAmount(uint256 _tokens) public view returns(uint256) {\n        if(this.totalSupply() == 0) {\n            return 0;\n        } else {\n            return curveInstance.getSellAmount(_tokens);\n        }\n    } \n    \n    function getCurve() external view returns (\n        uint256,\n        uint256,\n        uint256\n    ) {\n        return (a, b, c);\n    }\n\n    function getCollateralInstance() external view returns(address) {\n        return address(collateralInstance);\n    }\n\n    function getTokenStatus() external view returns(bool,bool) {\n        //TODO also return additional checks\n        return (\n            transitionConditionsMet,\n            transitionCompleated\n        );\n    }\n\n    function getTransitionThresholds() external view returns(uint256,uint256,uint256) {\n        //TODO also return additional checks\n        return (\n            tokenThreshold,\n            minimumTokenThreshold,\n            thresholdTimeout\n        );\n    }\n\n    function getMonthsFutureTimestamp(uint256 _months) public view returns(uint256) {\n        return now.addMonths(_months);\n    }\n\n    function _transitionCheck(bool _buy, uint _tokensToMint) internal {\n        uint newSupply;\n        // Sets new supply according to buy or sell\n        if(_buy) {\n            newSupply = this.totalSupply() + _tokensToMint;\n            // Checks if main threshold has been reached\n            if(newSupply >= tokenThreshold) {\n                transitionConditionsMet = true;\n            } \n        } else {\n            newSupply = this.totalSupply() - _tokensToMint;\n        }\n        \n        if(now >= thresholdTimeout) {\n            // Time has expired\n            if(newSupply >= minimumTokenThreshold) {\n                transitionConditionsMet = true;\n            } else {\n                // TODO handle expire without meeting min threshold\n            }\n        }\n    }\n\n    function _transition() internal {\n        require(\n            transitionConditionsMet,\n            \"Token has not met requirements for free market transition\"\n        );\n\n        address router = transfterInstance.getRouterAddress();\n        uint256 tokensToMint = transfterInstance.getTokensToMint();\n        _mint(address(transfterInstance), tokensToMint);\n        // Approves \n        require(\n            collateralInstance.transfer(\n                address(transfterInstance),\n                collateralInstance.balanceOf(address(this))\n            ),\n            \"Transfer of collateral failed\"\n        );\n\n        //TODO make mt\n        transfterInstance.transition();\n    }\n    //TODO update interface with all functions\n}",
  "sourcePath": "/Users/veronicac/Desktop/projects/linumlabs/BondingCurveFactory/contracts/Token.sol",
  "compiler": {
    "name": "solc",
    "version": "0.6.6+commit.6c089d02.Emscripten.clang",
    "optimizer": false,
    "runs": 200
  },
  "schemaVersion": "2.3.3",
  "updatedAt": "2020-05-22T10:27:15.432Z"
}