{
  "contractName": "Token",
  "abi": [
    {
      "inputs": [
        {
          "internalType": "address",
          "name": "_curveInstance",
          "type": "address"
        },
        {
          "internalType": "address",
          "name": "_transiton",
          "type": "address"
        },
        {
          "internalType": "uint256",
          "name": "_maxSupply",
          "type": "uint256"
        },
        {
          "internalType": "uint256[3]",
          "name": "_curveParameters",
          "type": "uint256[3]"
        },
        {
          "internalType": "string",
          "name": "_name",
          "type": "string"
        },
        {
          "internalType": "string",
          "name": "_sybol",
          "type": "string"
        },
        {
          "internalType": "address",
          "name": "_underlyingCollateral",
          "type": "address"
        },
        {
          "internalType": "uint256",
          "name": "_collateralThreshold",
          "type": "uint256"
        }
      ],
      "stateMutability": "nonpayable",
      "type": "constructor"
    },
    {
      "anonymous": false,
      "inputs": [
        {
          "indexed": true,
          "internalType": "address",
          "name": "owner",
          "type": "address"
        },
        {
          "indexed": true,
          "internalType": "address",
          "name": "spender",
          "type": "address"
        },
        {
          "indexed": false,
          "internalType": "uint256",
          "name": "value",
          "type": "uint256"
        }
      ],
      "name": "Approval",
      "type": "event"
    },
    {
      "anonymous": false,
      "inputs": [
        {
          "indexed": true,
          "internalType": "address",
          "name": "from",
          "type": "address"
        },
        {
          "indexed": true,
          "internalType": "address",
          "name": "to",
          "type": "address"
        },
        {
          "indexed": false,
          "internalType": "uint256",
          "name": "value",
          "type": "uint256"
        }
      ],
      "name": "Transfer",
      "type": "event"
    },
    {
      "anonymous": false,
      "inputs": [
        {
          "indexed": false,
          "internalType": "string",
          "name": "log",
          "type": "string"
        }
      ],
      "name": "transfering",
      "type": "event"
    },
    {
      "inputs": [],
      "name": "a",
      "outputs": [
        {
          "internalType": "uint256",
          "name": "",
          "type": "uint256"
        }
      ],
      "stateMutability": "view",
      "type": "function"
    },
    {
      "inputs": [
        {
          "internalType": "address",
          "name": "owner",
          "type": "address"
        },
        {
          "internalType": "address",
          "name": "spender",
          "type": "address"
        }
      ],
      "name": "allowance",
      "outputs": [
        {
          "internalType": "uint256",
          "name": "",
          "type": "uint256"
        }
      ],
      "stateMutability": "view",
      "type": "function"
    },
    {
      "inputs": [
        {
          "internalType": "address",
          "name": "spender",
          "type": "address"
        },
        {
          "internalType": "uint256",
          "name": "amount",
          "type": "uint256"
        }
      ],
      "name": "approve",
      "outputs": [
        {
          "internalType": "bool",
          "name": "",
          "type": "bool"
        }
      ],
      "stateMutability": "nonpayable",
      "type": "function"
    },
    {
      "inputs": [],
      "name": "b",
      "outputs": [
        {
          "internalType": "uint256",
          "name": "",
          "type": "uint256"
        }
      ],
      "stateMutability": "view",
      "type": "function"
    },
    {
      "inputs": [
        {
          "internalType": "address",
          "name": "account",
          "type": "address"
        }
      ],
      "name": "balanceOf",
      "outputs": [
        {
          "internalType": "uint256",
          "name": "",
          "type": "uint256"
        }
      ],
      "stateMutability": "view",
      "type": "function"
    },
    {
      "inputs": [],
      "name": "c",
      "outputs": [
        {
          "internalType": "uint256",
          "name": "",
          "type": "uint256"
        }
      ],
      "stateMutability": "view",
      "type": "function"
    },
    {
      "inputs": [],
      "name": "collateralInstance",
      "outputs": [
        {
          "internalType": "contract IERC20",
          "name": "",
          "type": "address"
        }
      ],
      "stateMutability": "view",
      "type": "function"
    },
    {
      "inputs": [],
      "name": "collateralThreshold",
      "outputs": [
        {
          "internalType": "uint256",
          "name": "",
          "type": "uint256"
        }
      ],
      "stateMutability": "view",
      "type": "function"
    },
    {
      "inputs": [],
      "name": "curveInstance",
      "outputs": [
        {
          "internalType": "contract I_Curve",
          "name": "",
          "type": "address"
        }
      ],
      "stateMutability": "view",
      "type": "function"
    },
    {
      "inputs": [],
      "name": "decimals",
      "outputs": [
        {
          "internalType": "uint8",
          "name": "",
          "type": "uint8"
        }
      ],
      "stateMutability": "view",
      "type": "function"
    },
    {
      "inputs": [
        {
          "internalType": "address",
          "name": "spender",
          "type": "address"
        },
        {
          "internalType": "uint256",
          "name": "subtractedValue",
          "type": "uint256"
        }
      ],
      "name": "decreaseAllowance",
      "outputs": [
        {
          "internalType": "bool",
          "name": "",
          "type": "bool"
        }
      ],
      "stateMutability": "nonpayable",
      "type": "function"
    },
    {
      "inputs": [
        {
          "internalType": "address",
          "name": "spender",
          "type": "address"
        },
        {
          "internalType": "uint256",
          "name": "addedValue",
          "type": "uint256"
        }
      ],
      "name": "increaseAllowance",
      "outputs": [
        {
          "internalType": "bool",
          "name": "",
          "type": "bool"
        }
      ],
      "stateMutability": "nonpayable",
      "type": "function"
    },
    {
      "inputs": [],
      "name": "maxSupply",
      "outputs": [
        {
          "internalType": "uint256",
          "name": "",
          "type": "uint256"
        }
      ],
      "stateMutability": "view",
      "type": "function"
    },
    {
      "inputs": [],
      "name": "name",
      "outputs": [
        {
          "internalType": "string",
          "name": "",
          "type": "string"
        }
      ],
      "stateMutability": "view",
      "type": "function"
    },
    {
      "inputs": [],
      "name": "openMarket",
      "outputs": [
        {
          "internalType": "bool",
          "name": "",
          "type": "bool"
        }
      ],
      "stateMutability": "view",
      "type": "function"
    },
    {
      "inputs": [],
      "name": "symbol",
      "outputs": [
        {
          "internalType": "string",
          "name": "",
          "type": "string"
        }
      ],
      "stateMutability": "view",
      "type": "function"
    },
    {
      "inputs": [],
      "name": "totalSupply",
      "outputs": [
        {
          "internalType": "uint256",
          "name": "",
          "type": "uint256"
        }
      ],
      "stateMutability": "view",
      "type": "function"
    },
    {
      "inputs": [
        {
          "internalType": "address",
          "name": "recipient",
          "type": "address"
        },
        {
          "internalType": "uint256",
          "name": "amount",
          "type": "uint256"
        }
      ],
      "name": "transfer",
      "outputs": [
        {
          "internalType": "bool",
          "name": "",
          "type": "bool"
        }
      ],
      "stateMutability": "nonpayable",
      "type": "function"
    },
    {
      "inputs": [
        {
          "internalType": "address",
          "name": "sender",
          "type": "address"
        },
        {
          "internalType": "address",
          "name": "recipient",
          "type": "address"
        },
        {
          "internalType": "uint256",
          "name": "amount",
          "type": "uint256"
        }
      ],
      "name": "transferFrom",
      "outputs": [
        {
          "internalType": "bool",
          "name": "",
          "type": "bool"
        }
      ],
      "stateMutability": "nonpayable",
      "type": "function"
    },
    {
      "inputs": [],
      "name": "transfter",
      "outputs": [
        {
          "internalType": "contract I_MarketTransition",
          "name": "",
          "type": "address"
        }
      ],
      "stateMutability": "view",
      "type": "function"
    },
    {
      "inputs": [
        {
          "internalType": "uint256",
          "name": "_tokens",
          "type": "uint256"
        }
      ],
      "name": "getBuyCost",
      "outputs": [
        {
          "internalType": "uint256",
          "name": "",
          "type": "uint256"
        }
      ],
      "stateMutability": "view",
      "type": "function"
    },
    {
      "inputs": [
        {
          "internalType": "uint256",
          "name": "_tokens",
          "type": "uint256"
        }
      ],
      "name": "getSellAmount",
      "outputs": [
        {
          "internalType": "uint256",
          "name": "",
          "type": "uint256"
        }
      ],
      "stateMutability": "view",
      "type": "function"
    },
    {
      "inputs": [],
      "name": "getCurve",
      "outputs": [
        {
          "internalType": "uint256",
          "name": "",
          "type": "uint256"
        },
        {
          "internalType": "uint256",
          "name": "",
          "type": "uint256"
        },
        {
          "internalType": "uint256",
          "name": "",
          "type": "uint256"
        }
      ],
      "stateMutability": "view",
      "type": "function"
    },
    {
      "inputs": [
        {
          "internalType": "uint256",
          "name": "_tokens",
          "type": "uint256"
        }
      ],
      "name": "buy",
      "outputs": [],
      "stateMutability": "nonpayable",
      "type": "function"
    },
    {
      "inputs": [
        {
          "internalType": "uint256",
          "name": "_tokens",
          "type": "uint256"
        }
      ],
      "name": "sell",
      "outputs": [],
      "stateMutability": "nonpayable",
      "type": "function"
    },
    {
      "inputs": [],
      "name": "getCollateralInstance",
      "outputs": [
        {
          "internalType": "address",
          "name": "",
          "type": "address"
        }
      ],
      "stateMutability": "view",
      "type": "function"
    },
    {
      "inputs": [],
      "name": "_transitionCheck",
      "outputs": [
        {
          "internalType": "bool",
          "name": "",
          "type": "bool"
        }
      ],
      "stateMutability": "nonpayable",
      "type": "function"
    }
  ],
  "bytecode": "0x60806040523480156200001157600080fd5b5060405162002c2138038062002c2183398181016040526101408110156200003857600080fd5b81019080805190602001909291908051906020019092919080519060200190929190919082606001805160405193929190846401000000008211156200007d57600080fd5b838201915060208201858111156200009457600080fd5b8251866001820283011164010000000082111715620000b257600080fd5b8083526020830192505050908051906020019080838360005b83811015620000e8578082015181840152602081019050620000cb565b50505050905090810190601f168015620001165780820380516001836020036101000a031916815260200191505b50604052602001805160405193929190846401000000008211156200013a57600080fd5b838201915060208201858111156200015157600080fd5b82518660018202830111640100000000821117156200016f57600080fd5b8083526020830192505050908051906020019080838360005b83811015620001a557808201518184015260208101905062000188565b50505050905090810190601f168015620001d35780820380516001836020036101000a031916815260200191505b506040526020018051906020019092919080519060200190929190505050838381600390805190602001906200020b9291906200036d565b508060049080519060200190620002249291906200036d565b506012600560006101000a81548160ff021916908360ff160217905550505087600a60006101000a81548173ffffffffffffffffffffffffffffffffffffffff021916908373ffffffffffffffffffffffffffffffffffffffff16021790555086600c60006101000a81548173ffffffffffffffffffffffffffffffffffffffff021916908373ffffffffffffffffffffffffffffffffffffffff1602179055508560068190555084600060038110620002da57fe5b602002015160078190555084600160038110620002f357fe5b6020020151600881905550846002600381106200030c57fe5b602002015160098190555081600b60006101000a81548173ffffffffffffffffffffffffffffffffffffffff021916908373ffffffffffffffffffffffffffffffffffffffff16021790555080600d8190555050505050505050506200041c565b828054600181600116156101000203166002900490600052602060002090601f016020900481019282601f10620003b057805160ff1916838001178555620003e1565b82800160010185558215620003e1579182015b82811115620003e0578251825591602001919060010190620003c3565b5b509050620003f09190620003f4565b5090565b6200041991905b8082111562000415576000816000905550600101620003fb565b5090565b90565b6127f5806200042c6000396000f3fe608060405234801561001057600080fd5b50600436106101a95760003560e01c80634df7e3d0116100f9578063a9059cbb11610097578063d73e8d4211610071578063d73e8d42146107f2578063d96a094a1461081e578063dd62ed3e1461084c578063e4849b32146108c4576101a9565b8063a9059cbb14610750578063c3da42b8146107b6578063d5abeb01146107d4576101a9565b80638e8cfbde116100d35780638e8cfbde146105ff57806395d89b411461061d578063a1b2ab28146106a0578063a457c2d7146106ea576101a9565b80634df7e3d01461054757806370a0823114610565578063768713f5146105bd576101a9565b8063313ce56711610166578063395093511161014057806339509351146104035780633e969d331461046957806340fce0f9146104b3578063495ebdc6146104fd576101a9565b8063313ce5671461039b578063355ca777146103bf5780633606f5b9146103e1576101a9565b806306fdde03146101ae578063095ea7b3146102315780630ae66820146102975780630dbe671f146102d957806318160ddd146102f757806323b872dd14610315575b600080fd5b6101b66108f2565b6040518080602001828103825283818151815260200191508051906020019080838360005b838110156101f65780820151818401526020810190506101db565b50505050905090810190601f1680156102235780820380516001836020036101000a031916815260200191505b509250505060405180910390f35b61027d6004803603604081101561024757600080fd5b81019080803573ffffffffffffffffffffffffffffffffffffffff16906020019092919080359060200190929190505050610994565b604051808215151515815260200191505060405180910390f35b6102c3600480360360208110156102ad57600080fd5b81019080803590602001909291905050506109b2565b6040518082815260200191505060405180910390f35b6102e1610a69565b6040518082815260200191505060405180910390f35b6102ff610a6f565b6040518082815260200191505060405180910390f35b6103816004803603606081101561032b57600080fd5b81019080803573ffffffffffffffffffffffffffffffffffffffff169060200190929190803573ffffffffffffffffffffffffffffffffffffffff16906020019092919080359060200190929190505050610a79565b604051808215151515815260200191505060405180910390f35b6103a3610b52565b604051808260ff1660ff16815260200191505060405180910390f35b6103c7610b69565b604051808215151515815260200191505060405180910390f35b6103e9611176565b604051808215151515815260200191505060405180910390f35b61044f6004803603604081101561041957600080fd5b81019080803573ffffffffffffffffffffffffffffffffffffffff16906020019092919080359060200190929190505050611189565b604051808215151515815260200191505060405180910390f35b61047161123c565b604051808273ffffffffffffffffffffffffffffffffffffffff1673ffffffffffffffffffffffffffffffffffffffff16815260200191505060405180910390f35b6104bb611262565b604051808273ffffffffffffffffffffffffffffffffffffffff1673ffffffffffffffffffffffffffffffffffffffff16815260200191505060405180910390f35b610505611288565b604051808273ffffffffffffffffffffffffffffffffffffffff1673ffffffffffffffffffffffffffffffffffffffff16815260200191505060405180910390f35b61054f6112ae565b6040518082815260200191505060405180910390f35b6105a76004803603602081101561057b57600080fd5b81019080803573ffffffffffffffffffffffffffffffffffffffff1690602001909291905050506112b4565b6040518082815260200191505060405180910390f35b6105e9600480360360208110156105d357600080fd5b81019080803590602001909291905050506112fc565b6040518082815260200191505060405180910390f35b610607611445565b6040518082815260200191505060405180910390f35b61062561144b565b6040518080602001828103825283818151815260200191508051906020019080838360005b8381101561066557808201518184015260208101905061064a565b50505050905090810190601f1680156106925780820380516001836020036101000a031916815260200191505b509250505060405180910390f35b6106a86114ed565b604051808273ffffffffffffffffffffffffffffffffffffffff1673ffffffffffffffffffffffffffffffffffffffff16815260200191505060405180910390f35b6107366004803603604081101561070057600080fd5b81019080803573ffffffffffffffffffffffffffffffffffffffff16906020019092919080359060200190929190505050611517565b604051808215151515815260200191505060405180910390f35b61079c6004803603604081101561076657600080fd5b81019080803573ffffffffffffffffffffffffffffffffffffffff169060200190929190803590602001909291905050506115e4565b604051808215151515815260200191505060405180910390f35b6107be611602565b6040518082815260200191505060405180910390f35b6107dc611608565b6040518082815260200191505060405180910390f35b6107fa61160e565b60405180848152602001838152602001828152602001935050505060405180910390f35b61084a6004803603602081101561083457600080fd5b8101908080359060200190929190505050611627565b005b6108ae6004803603604081101561086257600080fd5b81019080803573ffffffffffffffffffffffffffffffffffffffff169060200190929190803573ffffffffffffffffffffffffffffffffffffffff16906020019092919050505061193b565b6040518082815260200191505060405180910390f35b6108f0600480360360208110156108da57600080fd5b81019080803590602001909291905050506119c2565b005b606060038054600181600116156101000203166002900480601f01602080910402602001604051908101604052809291908181526020018280546001816001161561010002031660029004801561098a5780601f1061095f5761010080835404028352916020019161098a565b820191906000526020600020905b81548152906001019060200180831161096d57829003601f168201915b5050505050905090565b60006109a86109a1611c43565b8484611c4b565b6001905092915050565b6000600a60009054906101000a900473ffffffffffffffffffffffffffffffffffffffff1673ffffffffffffffffffffffffffffffffffffffff166308d4db14836040518263ffffffff1660e01b81526004018082815260200191505060206040518083038186803b158015610a2757600080fd5b505afa158015610a3b573d6000803e3d6000fd5b505050506040513d6020811015610a5157600080fd5b81019080805190602001909291905050509050919050565b60075481565b6000600254905090565b6000610a86848484611e42565b610b4784610a92611c43565b610b42856040518060600160405280602881526020016126e760289139600160008b73ffffffffffffffffffffffffffffffffffffffff1673ffffffffffffffffffffffffffffffffffffffff1681526020019081526020016000206000610af8611c43565b73ffffffffffffffffffffffffffffffffffffffff1673ffffffffffffffffffffffffffffffffffffffff168152602001908152602001600020546121039092919063ffffffff16565b611c4b565b600190509392505050565b6000600560009054906101000a900460ff16905090565b60003073ffffffffffffffffffffffffffffffffffffffff166318160ddd6040518163ffffffff1660e01b815260040160206040518083038186803b158015610bb157600080fd5b505afa158015610bc5573d6000803e3d6000fd5b505050506040513d6020811015610bdb57600080fd5b8101908080519060200190929190505050600d541161116f57600b60009054906101000a900473ffffffffffffffffffffffffffffffffffffffff1673ffffffffffffffffffffffffffffffffffffffff1663095ea7b3600c60009054906101000a900473ffffffffffffffffffffffffffffffffffffffff16600b60009054906101000a900473ffffffffffffffffffffffffffffffffffffffff1673ffffffffffffffffffffffffffffffffffffffff166370a08231306040518263ffffffff1660e01b8152600401808273ffffffffffffffffffffffffffffffffffffffff1673ffffffffffffffffffffffffffffffffffffffff16815260200191505060206040518083038186803b158015610cf457600080fd5b505afa158015610d08573d6000803e3d6000fd5b505050506040513d6020811015610d1e57600080fd5b81019080805190602001909291905050506040518363ffffffff1660e01b8152600401808373ffffffffffffffffffffffffffffffffffffffff1673ffffffffffffffffffffffffffffffffffffffff16815260200182815260200192505050602060405180830381600087803b158015610d9857600080fd5b505af1158015610dac573d6000803e3d6000fd5b505050506040513d6020811015610dc257600080fd5b8101908080519060200190929190505050610e45576040517f08c379a000000000000000000000000000000000000000000000000000000000815260040180806020018281038252601d8152602001807f417070726f76616c206f6620636f6c6c61746572616c206661696c656400000081525060200191505060405180910390fd5b6000600c60009054906101000a900473ffffffffffffffffffffffffffffffffffffffff1673ffffffffffffffffffffffffffffffffffffffff1663bd16a5076040518163ffffffff1660e01b815260040160206040518083038186803b158015610eaf57600080fd5b505afa158015610ec3573d6000803e3d6000fd5b505050506040513d6020811015610ed957600080fd5b81019080805190602001909291905050509050610ef630826121c3565b3073ffffffffffffffffffffffffffffffffffffffff1663095ea7b3600c60009054906101000a900473ffffffffffffffffffffffffffffffffffffffff16836040518363ffffffff1660e01b8152600401808373ffffffffffffffffffffffffffffffffffffffff1673ffffffffffffffffffffffffffffffffffffffff16815260200182815260200192505050602060405180830381600087803b158015610f9f57600080fd5b505af1158015610fb3573d6000803e3d6000fd5b505050506040513d6020811015610fc957600080fd5b810190808051906020019092919050505061104c576040517f08c379a00000000000000000000000000000000000000000000000000000000081526004018080602001828103825260208152602001807f417070726f76616c206f66206d696e74656420746f6b656e73206661696c656481525060200191505060405180910390fd5b600c60009054906101000a900473ffffffffffffffffffffffffffffffffffffffff1673ffffffffffffffffffffffffffffffffffffffff1663a4356b9c306040518263ffffffff1660e01b8152600401808273ffffffffffffffffffffffffffffffffffffffff1673ffffffffffffffffffffffffffffffffffffffff168152602001915050600060405180830381600087803b1580156110ed57600080fd5b505af1158015611101573d6000803e3d6000fd5b505050507f17532dcb81db7b55ea26ea9780c133e11167211b45e0ec99676d2be0e80f58ca6040518080602001828103825260068152602001807f746573742032000000000000000000000000000000000000000000000000000081525060200191505060405180910390a1505b6001905090565b600c60149054906101000a900460ff1681565b6000611232611196611c43565b8461122d85600160006111a7611c43565b73ffffffffffffffffffffffffffffffffffffffff1673ffffffffffffffffffffffffffffffffffffffff16815260200190815260200160002060008973ffffffffffffffffffffffffffffffffffffffff1673ffffffffffffffffffffffffffffffffffffffff1681526020019081526020016000205461238a90919063ffffffff16565b611c4b565b6001905092915050565b600c60009054906101000a900473ffffffffffffffffffffffffffffffffffffffff1681565b600a60009054906101000a900473ffffffffffffffffffffffffffffffffffffffff1681565b600b60009054906101000a900473ffffffffffffffffffffffffffffffffffffffff1681565b60085481565b60008060008373ffffffffffffffffffffffffffffffffffffffff1673ffffffffffffffffffffffffffffffffffffffff168152602001908152602001600020549050919050565b6000803073ffffffffffffffffffffffffffffffffffffffff166318160ddd6040518163ffffffff1660e01b815260040160206040518083038186803b15801561134557600080fd5b505afa158015611359573d6000803e3d6000fd5b505050506040513d602081101561136f57600080fd5b8101908080519060200190929190505050141561138f5760009050611440565b600a60009054906101000a900473ffffffffffffffffffffffffffffffffffffffff1673ffffffffffffffffffffffffffffffffffffffff1663768713f5836040518263ffffffff1660e01b81526004018082815260200191505060206040518083038186803b15801561140257600080fd5b505afa158015611416573d6000803e3d6000fd5b505050506040513d602081101561142c57600080fd5b810190808051906020019092919050505090505b919050565b600d5481565b606060048054600181600116156101000203166002900480601f0160208091040260200160405190810160405280929190818152602001828054600181600116156101000203166002900480156114e35780601f106114b8576101008083540402835291602001916114e3565b820191906000526020600020905b8154815290600101906020018083116114c657829003601f168201915b5050505050905090565b6000600b60009054906101000a900473ffffffffffffffffffffffffffffffffffffffff16905090565b60006115da611524611c43565b846115d58560405180606001604052806025815260200161279b602591396001600061154e611c43565b73ffffffffffffffffffffffffffffffffffffffff1673ffffffffffffffffffffffffffffffffffffffff16815260200190815260200160002060008a73ffffffffffffffffffffffffffffffffffffffff1673ffffffffffffffffffffffffffffffffffffffff168152602001908152602001600020546121039092919063ffffffff16565b611c4b565b6001905092915050565b60006115f86115f1611c43565b8484611e42565b6001905092915050565b60095481565b60065481565b6000806000600754600854600954925092509250909192565b6000611632826109b2565b905080600b60009054906101000a900473ffffffffffffffffffffffffffffffffffffffff1673ffffffffffffffffffffffffffffffffffffffff1663dd62ed3e33306040518363ffffffff1660e01b8152600401808373ffffffffffffffffffffffffffffffffffffffff1673ffffffffffffffffffffffffffffffffffffffff1681526020018273ffffffffffffffffffffffffffffffffffffffff1673ffffffffffffffffffffffffffffffffffffffff1681526020019250505060206040518083038186803b15801561170857600080fd5b505afa15801561171c573d6000803e3d6000fd5b505050506040513d602081101561173257600080fd5b8101908080519060200190929190505050101561179a576040517f08c379a000000000000000000000000000000000000000000000000000000000815260040180806020018281038252603481526020018061268d6034913960400191505060405180910390fd5b600b60009054906101000a900473ffffffffffffffffffffffffffffffffffffffff1673ffffffffffffffffffffffffffffffffffffffff166323b872dd3330846040518463ffffffff1660e01b8152600401808473ffffffffffffffffffffffffffffffffffffffff1673ffffffffffffffffffffffffffffffffffffffff1681526020018373ffffffffffffffffffffffffffffffffffffffff1673ffffffffffffffffffffffffffffffffffffffff1681526020018281526020019350505050602060405180830381600087803b15801561187757600080fd5b505af115801561188b573d6000803e3d6000fd5b505050506040513d60208110156118a157600080fd5b8101908080519060200190929190505050611924576040517f08c379a00000000000000000000000000000000000000000000000000000000081526004018080602001828103825260208152602001807f5472616e73666572696e67206f6620636f6c6c61746572616c206661696c656481525060200191505060405180910390fd5b61192e33836121c3565b611936610b69565b505050565b6000600160008473ffffffffffffffffffffffffffffffffffffffff1673ffffffffffffffffffffffffffffffffffffffff16815260200190815260200160002060008373ffffffffffffffffffffffffffffffffffffffff1673ffffffffffffffffffffffffffffffffffffffff16815260200190815260200160002054905092915050565b60006119cd826112fc565b9050813073ffffffffffffffffffffffffffffffffffffffff166370a08231336040518263ffffffff1660e01b8152600401808273ffffffffffffffffffffffffffffffffffffffff1673ffffffffffffffffffffffffffffffffffffffff16815260200191505060206040518083038186803b158015611a4d57600080fd5b505afa158015611a61573d6000803e3d6000fd5b505050506040513d6020811015611a7757600080fd5b81019080805190602001909291905050501015611adf576040517f08c379a00000000000000000000000000000000000000000000000000000000081526004018080602001828103825260228152602001806127796022913960400191505060405180910390fd5b600b60009054906101000a900473ffffffffffffffffffffffffffffffffffffffff1673ffffffffffffffffffffffffffffffffffffffff1663a9059cbb33836040518363ffffffff1660e01b8152600401808373ffffffffffffffffffffffffffffffffffffffff1673ffffffffffffffffffffffffffffffffffffffff16815260200182815260200192505050602060405180830381600087803b158015611b8857600080fd5b505af1158015611b9c573d6000803e3d6000fd5b505050506040513d6020811015611bb257600080fd5b8101908080519060200190929190505050611c35576040517f08c379a00000000000000000000000000000000000000000000000000000000081526004018080602001828103825260208152602001807f5472616e73666572696e67206f6620636f6c6c61746572616c206661696c656481525060200191505060405180910390fd5b611c3f3383612412565b5050565b600033905090565b600073ffffffffffffffffffffffffffffffffffffffff168373ffffffffffffffffffffffffffffffffffffffff161415611cd1576040517f08c379a00000000000000000000000000000000000000000000000000000000081526004018080602001828103825260248152602001806127556024913960400191505060405180910390fd5b600073ffffffffffffffffffffffffffffffffffffffff168273ffffffffffffffffffffffffffffffffffffffff161415611d57576040517f08c379a000000000000000000000000000000000000000000000000000000000815260040180806020018281038252602281526020018061266b6022913960400191505060405180910390fd5b80600160008573ffffffffffffffffffffffffffffffffffffffff1673ffffffffffffffffffffffffffffffffffffffff16815260200190815260200160002060008473ffffffffffffffffffffffffffffffffffffffff1673ffffffffffffffffffffffffffffffffffffffff168152602001908152602001600020819055508173ffffffffffffffffffffffffffffffffffffffff168373ffffffffffffffffffffffffffffffffffffffff167f8c5be1e5ebec7d5bd14f71427d1e84f3dd0314c0f7b2291e5b200ac8c7c3b925836040518082815260200191505060405180910390a3505050565b600073ffffffffffffffffffffffffffffffffffffffff168373ffffffffffffffffffffffffffffffffffffffff161415611ec8576040517f08c379a00000000000000000000000000000000000000000000000000000000081526004018080602001828103825260258152602001806127306025913960400191505060405180910390fd5b600073ffffffffffffffffffffffffffffffffffffffff168273ffffffffffffffffffffffffffffffffffffffff161415611f4e576040517f08c379a00000000000000000000000000000000000000000000000000000000081526004018080602001828103825260238152602001806126266023913960400191505060405180910390fd5b611f598383836125d6565b611fc4816040518060600160405280602681526020016126c1602691396000808773ffffffffffffffffffffffffffffffffffffffff1673ffffffffffffffffffffffffffffffffffffffff168152602001908152602001600020546121039092919063ffffffff16565b6000808573ffffffffffffffffffffffffffffffffffffffff1673ffffffffffffffffffffffffffffffffffffffff16815260200190815260200160002081905550612057816000808573ffffffffffffffffffffffffffffffffffffffff1673ffffffffffffffffffffffffffffffffffffffff1681526020019081526020016000205461238a90919063ffffffff16565b6000808473ffffffffffffffffffffffffffffffffffffffff1673ffffffffffffffffffffffffffffffffffffffff168152602001908152602001600020819055508173ffffffffffffffffffffffffffffffffffffffff168373ffffffffffffffffffffffffffffffffffffffff167fddf252ad1be2c89b69c2b068fc378daa952ba7f163c4a11628f55a4df523b3ef836040518082815260200191505060405180910390a3505050565b60008383111582906121b0576040517f08c379a00000000000000000000000000000000000000000000000000000000081526004018080602001828103825283818151815260200191508051906020019080838360005b8381101561217557808201518184015260208101905061215a565b50505050905090810190601f1680156121a25780820380516001836020036101000a031916815260200191505b509250505060405180910390fd5b5060008385039050809150509392505050565b600073ffffffffffffffffffffffffffffffffffffffff168273ffffffffffffffffffffffffffffffffffffffff161415612266576040517f08c379a000000000000000000000000000000000000000000000000000000000815260040180806020018281038252601f8152602001807f45524332303a206d696e7420746f20746865207a65726f20616464726573730081525060200191505060405180910390fd5b612272600083836125d6565b6122878160025461238a90919063ffffffff16565b6002819055506122de816000808573ffffffffffffffffffffffffffffffffffffffff1673ffffffffffffffffffffffffffffffffffffffff1681526020019081526020016000205461238a90919063ffffffff16565b6000808473ffffffffffffffffffffffffffffffffffffffff1673ffffffffffffffffffffffffffffffffffffffff168152602001908152602001600020819055508173ffffffffffffffffffffffffffffffffffffffff16600073ffffffffffffffffffffffffffffffffffffffff167fddf252ad1be2c89b69c2b068fc378daa952ba7f163c4a11628f55a4df523b3ef836040518082815260200191505060405180910390a35050565b600080828401905083811015612408576040517f08c379a000000000000000000000000000000000000000000000000000000000815260040180806020018281038252601b8152602001807f536166654d6174683a206164646974696f6e206f766572666c6f77000000000081525060200191505060405180910390fd5b8091505092915050565b600073ffffffffffffffffffffffffffffffffffffffff168273ffffffffffffffffffffffffffffffffffffffff161415612498576040517f08c379a000000000000000000000000000000000000000000000000000000000815260040180806020018281038252602181526020018061270f6021913960400191505060405180910390fd5b6124a4826000836125d6565b61250f81604051806060016040528060228152602001612649602291396000808673ffffffffffffffffffffffffffffffffffffffff1673ffffffffffffffffffffffffffffffffffffffff168152602001908152602001600020546121039092919063ffffffff16565b6000808473ffffffffffffffffffffffffffffffffffffffff1673ffffffffffffffffffffffffffffffffffffffff16815260200190815260200160002081905550612566816002546125db90919063ffffffff16565b600281905550600073ffffffffffffffffffffffffffffffffffffffff168273ffffffffffffffffffffffffffffffffffffffff167fddf252ad1be2c89b69c2b068fc378daa952ba7f163c4a11628f55a4df523b3ef836040518082815260200191505060405180910390a35050565b505050565b600061261d83836040518060400160405280601e81526020017f536166654d6174683a207375627472616374696f6e206f766572666c6f770000815250612103565b90509291505056fe45524332303a207472616e7366657220746f20746865207a65726f206164647265737345524332303a206275726e20616d6f756e7420657863656564732062616c616e636545524332303a20617070726f766520746f20746865207a65726f20616464726573735573657220686173206e6f7420617070726f76656420636f6e747261637420666f7220746f6b656e20636f737420616d6f756e7445524332303a207472616e7366657220616d6f756e7420657863656564732062616c616e636545524332303a207472616e7366657220616d6f756e74206578636565647320616c6c6f77616e636545524332303a206275726e2066726f6d20746865207a65726f206164647265737345524332303a207472616e736665722066726f6d20746865207a65726f206164647265737345524332303a20617070726f76652066726f6d20746865207a65726f206164647265737343616e6e6f742073656c6c206d6f726520746f6b656e73207468616e206f776e656445524332303a2064656372656173656420616c6c6f77616e63652062656c6f77207a65726fa26469706673582212204e6563a48c057dba45ebbcf4bfce02dad418ec0a666de17bdb0bd328b025a5ee64736f6c63430006060033",
  "source": "pragma solidity 0.6.6;\n\nimport \"./I_Token.sol\";\nimport \"./I_Curve.sol\";\nimport \"./I_MarketTransition.sol\";\nimport \"../node_modules/openzeppelin-solidity/contracts/token/ERC20/ERC20.sol\";\nimport \"../node_modules/openzeppelin-solidity/contracts/token/ERC20/IERC20.sol\";\n\ncontract Token is ERC20 {\n    uint256 public maxSupply;\n    uint256 public a;\n    uint256 public b;\n    uint256 public c;\n    I_Curve public curveInstance;\n    IERC20 public collateralInstance;\n    I_MarketTransition public transfter;\n\n    bool public openMarket;\n    // Threshold collateral amount for open market transition\n    uint256 public collateralThreshold;\n\n    event transfering(string log);\n\n    constructor(\n        address _curveInstance,\n        address _transiton,\n        uint256 _maxSupply,\n        uint256[3] memory _curveParameters,\n        string memory _name,\n        string memory _sybol,\n        address _underlyingCollateral,\n        uint256 _collateralThreshold\n    )\n        ERC20(\n            _name,\n            _sybol\n        )\n        public \n    {\n        curveInstance = I_Curve(_curveInstance);\n        transfter = I_MarketTransition(_transiton);\n        maxSupply = _maxSupply;\n        a = _curveParameters[0];\n        b = _curveParameters[1];\n        c = _curveParameters[2];\n        collateralInstance = IERC20(_underlyingCollateral);\n\n        collateralThreshold = _collateralThreshold;\n    }\n\n    function getBuyCost(uint256 _tokens) public view returns(uint256) {\n        return curveInstance.getBuyPrice(_tokens);\n    } \n\n    function getSellAmount(uint256 _tokens) public view returns(uint256) {\n        if(this.totalSupply() == 0) {\n            return 0;\n        } else {\n            return curveInstance.getSellAmount(_tokens);\n        }\n    } \n    \n    function getCurve() external view returns (\n        uint256,\n        uint256,\n        uint256\n    ) {\n        return (a, b, c);\n    }\n\n    function buy(uint256 _tokens) external {\n        uint256 cost = getBuyCost(_tokens);\n\n        require(\n            collateralInstance.allowance(msg.sender, address(this)) >= cost,\n            \"User has not approved contract for token cost amount\"\n        );\n\n        require(\n            collateralInstance.transferFrom(\n                msg.sender,\n                address(this),\n                cost\n            ),\n            \"Transfering of collateral failed\"\n        );\n\n        _mint(msg.sender, _tokens);\n        // Checks if the market should transition to open market\n        _transitionCheck();\n    }\n\n    function sell(uint256 _tokens) external {\n        uint256 reward = getSellAmount(_tokens);\n\n        require(\n            this.balanceOf(msg.sender) >= _tokens,\n            \"Cannot sell more tokens than owned\"\n        );\n\n        require(\n            collateralInstance.transfer(\n                msg.sender,\n                reward\n            ),\n            \"Transfering of collateral failed\"\n        );\n\n        _burn(msg.sender, _tokens);\n    }\n\n    function getCollateralInstance() external view returns(address) {\n        return address(collateralInstance);\n    }\n\n    function _transitionCheck() public returns(bool){\n        if(\n            collateralThreshold <= \n            this.totalSupply()\n        ) {\n            require(\n                collateralInstance.approve(\n                    address(transfter),\n                    collateralInstance.balanceOf(address(this))\n                ),\n                \"Approval of collateral failed\"\n            );\n\n            uint256 tokensToMint = transfter.getTokensToMint();\n            _mint(address(this), tokensToMint);\n\n            require(\n                this.approve(\n                    address(transfter),\n                    tokensToMint\n                ),\n                \"Approval of minted tokens failed\"\n            );\n\n            transfter.transition(address(this));\n            emit transfering(\"test 2\");\n        }\n        return true;\n    }\n}",
  "sourcePath": "/Users/veronicac/Desktop/projects/linumlabs/BondingCurveFactory/contracts/Token.sol",
  "compiler": {
    "name": "solc",
    "version": "0.6.6+commit.6c089d02.Emscripten.clang",
    "optimizer": false,
    "runs": 200
  },
  "schemaVersion": "2.3.3",
  "updatedAt": "2020-05-20T08:54:14.881Z"
}