{
  "contractName": "Token",
  "abi": [
    {
      "inputs": [
        {
          "internalType": "address",
          "name": "_curveInstance",
          "type": "address"
        },
        {
          "internalType": "uint256",
          "name": "_maxSupply",
          "type": "uint256"
        },
        {
          "internalType": "uint256",
          "name": "_a",
          "type": "uint256"
        },
        {
          "internalType": "uint256",
          "name": "_b",
          "type": "uint256"
        },
        {
          "internalType": "uint256",
          "name": "_c",
          "type": "uint256"
        },
        {
          "internalType": "string",
          "name": "_name",
          "type": "string"
        },
        {
          "internalType": "string",
          "name": "_sybol",
          "type": "string"
        },
        {
          "internalType": "address",
          "name": "_underlyingCollateral",
          "type": "address"
        }
      ],
      "stateMutability": "nonpayable",
      "type": "constructor"
    },
    {
      "anonymous": false,
      "inputs": [
        {
          "indexed": true,
          "internalType": "address",
          "name": "owner",
          "type": "address"
        },
        {
          "indexed": true,
          "internalType": "address",
          "name": "spender",
          "type": "address"
        },
        {
          "indexed": false,
          "internalType": "uint256",
          "name": "value",
          "type": "uint256"
        }
      ],
      "name": "Approval",
      "type": "event"
    },
    {
      "anonymous": false,
      "inputs": [
        {
          "indexed": true,
          "internalType": "address",
          "name": "from",
          "type": "address"
        },
        {
          "indexed": true,
          "internalType": "address",
          "name": "to",
          "type": "address"
        },
        {
          "indexed": false,
          "internalType": "uint256",
          "name": "value",
          "type": "uint256"
        }
      ],
      "name": "Transfer",
      "type": "event"
    },
    {
      "inputs": [],
      "name": "a",
      "outputs": [
        {
          "internalType": "uint256",
          "name": "",
          "type": "uint256"
        }
      ],
      "stateMutability": "view",
      "type": "function"
    },
    {
      "inputs": [
        {
          "internalType": "address",
          "name": "owner",
          "type": "address"
        },
        {
          "internalType": "address",
          "name": "spender",
          "type": "address"
        }
      ],
      "name": "allowance",
      "outputs": [
        {
          "internalType": "uint256",
          "name": "",
          "type": "uint256"
        }
      ],
      "stateMutability": "view",
      "type": "function"
    },
    {
      "inputs": [
        {
          "internalType": "address",
          "name": "spender",
          "type": "address"
        },
        {
          "internalType": "uint256",
          "name": "amount",
          "type": "uint256"
        }
      ],
      "name": "approve",
      "outputs": [
        {
          "internalType": "bool",
          "name": "",
          "type": "bool"
        }
      ],
      "stateMutability": "nonpayable",
      "type": "function"
    },
    {
      "inputs": [],
      "name": "b",
      "outputs": [
        {
          "internalType": "uint256",
          "name": "",
          "type": "uint256"
        }
      ],
      "stateMutability": "view",
      "type": "function"
    },
    {
      "inputs": [
        {
          "internalType": "address",
          "name": "account",
          "type": "address"
        }
      ],
      "name": "balanceOf",
      "outputs": [
        {
          "internalType": "uint256",
          "name": "",
          "type": "uint256"
        }
      ],
      "stateMutability": "view",
      "type": "function"
    },
    {
      "inputs": [],
      "name": "c",
      "outputs": [
        {
          "internalType": "uint256",
          "name": "",
          "type": "uint256"
        }
      ],
      "stateMutability": "view",
      "type": "function"
    },
    {
      "inputs": [],
      "name": "collateralInstance",
      "outputs": [
        {
          "internalType": "contract IERC20",
          "name": "",
          "type": "address"
        }
      ],
      "stateMutability": "view",
      "type": "function"
    },
    {
      "inputs": [],
      "name": "curveInstance",
      "outputs": [
        {
          "internalType": "contract I_Curve",
          "name": "",
          "type": "address"
        }
      ],
      "stateMutability": "view",
      "type": "function"
    },
    {
      "inputs": [],
      "name": "decimals",
      "outputs": [
        {
          "internalType": "uint8",
          "name": "",
          "type": "uint8"
        }
      ],
      "stateMutability": "view",
      "type": "function"
    },
    {
      "inputs": [
        {
          "internalType": "address",
          "name": "spender",
          "type": "address"
        },
        {
          "internalType": "uint256",
          "name": "subtractedValue",
          "type": "uint256"
        }
      ],
      "name": "decreaseAllowance",
      "outputs": [
        {
          "internalType": "bool",
          "name": "",
          "type": "bool"
        }
      ],
      "stateMutability": "nonpayable",
      "type": "function"
    },
    {
      "inputs": [
        {
          "internalType": "address",
          "name": "spender",
          "type": "address"
        },
        {
          "internalType": "uint256",
          "name": "addedValue",
          "type": "uint256"
        }
      ],
      "name": "increaseAllowance",
      "outputs": [
        {
          "internalType": "bool",
          "name": "",
          "type": "bool"
        }
      ],
      "stateMutability": "nonpayable",
      "type": "function"
    },
    {
      "inputs": [],
      "name": "maxSupply",
      "outputs": [
        {
          "internalType": "uint256",
          "name": "",
          "type": "uint256"
        }
      ],
      "stateMutability": "view",
      "type": "function"
    },
    {
      "inputs": [],
      "name": "name",
      "outputs": [
        {
          "internalType": "string",
          "name": "",
          "type": "string"
        }
      ],
      "stateMutability": "view",
      "type": "function"
    },
    {
      "inputs": [],
      "name": "symbol",
      "outputs": [
        {
          "internalType": "string",
          "name": "",
          "type": "string"
        }
      ],
      "stateMutability": "view",
      "type": "function"
    },
    {
      "inputs": [],
      "name": "totalSupply",
      "outputs": [
        {
          "internalType": "uint256",
          "name": "",
          "type": "uint256"
        }
      ],
      "stateMutability": "view",
      "type": "function"
    },
    {
      "inputs": [
        {
          "internalType": "address",
          "name": "recipient",
          "type": "address"
        },
        {
          "internalType": "uint256",
          "name": "amount",
          "type": "uint256"
        }
      ],
      "name": "transfer",
      "outputs": [
        {
          "internalType": "bool",
          "name": "",
          "type": "bool"
        }
      ],
      "stateMutability": "nonpayable",
      "type": "function"
    },
    {
      "inputs": [
        {
          "internalType": "address",
          "name": "sender",
          "type": "address"
        },
        {
          "internalType": "address",
          "name": "recipient",
          "type": "address"
        },
        {
          "internalType": "uint256",
          "name": "amount",
          "type": "uint256"
        }
      ],
      "name": "transferFrom",
      "outputs": [
        {
          "internalType": "bool",
          "name": "",
          "type": "bool"
        }
      ],
      "stateMutability": "nonpayable",
      "type": "function"
    },
    {
      "inputs": [
        {
          "internalType": "uint256",
          "name": "_tokens",
          "type": "uint256"
        }
      ],
      "name": "getBuyCost",
      "outputs": [
        {
          "internalType": "uint256",
          "name": "",
          "type": "uint256"
        }
      ],
      "stateMutability": "view",
      "type": "function"
    },
    {
      "inputs": [
        {
          "internalType": "uint256",
          "name": "_tokens",
          "type": "uint256"
        }
      ],
      "name": "getSellAmount",
      "outputs": [
        {
          "internalType": "uint256",
          "name": "",
          "type": "uint256"
        }
      ],
      "stateMutability": "view",
      "type": "function"
    },
    {
      "inputs": [],
      "name": "getCurve",
      "outputs": [
        {
          "internalType": "uint256",
          "name": "",
          "type": "uint256"
        },
        {
          "internalType": "uint256",
          "name": "",
          "type": "uint256"
        },
        {
          "internalType": "uint256",
          "name": "",
          "type": "uint256"
        }
      ],
      "stateMutability": "view",
      "type": "function"
    },
    {
      "inputs": [
        {
          "internalType": "uint256",
          "name": "_tokens",
          "type": "uint256"
        }
      ],
      "name": "buy",
      "outputs": [],
      "stateMutability": "nonpayable",
      "type": "function"
    },
    {
      "inputs": [
        {
          "internalType": "uint256",
          "name": "_tokens",
          "type": "uint256"
        }
      ],
      "name": "sell",
      "outputs": [],
      "stateMutability": "nonpayable",
      "type": "function"
    }
  ],
  "bytecode": "0x60806040523480156200001157600080fd5b50604051620023cb380380620023cb83398181016040526101008110156200003857600080fd5b810190808051906020019092919080519060200190929190805190602001909291908051906020019092919080519060200190929190805160405193929190846401000000008211156200008b57600080fd5b83820191506020820185811115620000a257600080fd5b8251866001820283011164010000000082111715620000c057600080fd5b8083526020830192505050908051906020019080838360005b83811015620000f6578082015181840152602081019050620000d9565b50505050905090810190601f168015620001245780820380516001836020036101000a031916815260200191505b50604052602001805160405193929190846401000000008211156200014857600080fd5b838201915060208201858111156200015f57600080fd5b82518660018202830111640100000000821117156200017d57600080fd5b8083526020830192505050908051906020019080838360005b83811015620001b357808201518184015260208101905062000196565b50505050905090810190601f168015620001e15780820380516001836020036101000a031916815260200191505b5060405260200180519060200190929190505050828281600390805190602001906200020f929190620002f3565b50806004908051906020019062000228929190620002f3565b506012600560006101000a81548160ff021916908360ff160217905550505087600a60006101000a81548173ffffffffffffffffffffffffffffffffffffffff021916908373ffffffffffffffffffffffffffffffffffffffff1602179055508660068190555085600781905550846008819055508360098190555080600b60006101000a81548173ffffffffffffffffffffffffffffffffffffffff021916908373ffffffffffffffffffffffffffffffffffffffff1602179055505050505050505050620003a2565b828054600181600116156101000203166002900490600052602060002090601f016020900481019282601f106200033657805160ff191683800117855562000367565b8280016001018555821562000367579182015b828111156200036657825182559160200191906001019062000349565b5b5090506200037691906200037a565b5090565b6200039f91905b808211156200039b57600081600090555060010162000381565b5090565b90565b61201980620003b26000396000f3fe608060405234801561001057600080fd5b50600436106101425760003560e01c806370a08231116100b8578063c3da42b81161007c578063c3da42b814610659578063d5abeb0114610677578063d73e8d4214610695578063d96a094a146106c1578063dd62ed3e146106ef578063e4849b321461076757610142565b806370a0823114610470578063768713f5146104c857806395d89b411461050a578063a457c2d71461058d578063a9059cbb146105f357610142565b806323b872dd1161010a57806323b872dd146102ae578063313ce56714610334578063395093511461035857806340fce0f9146103be578063495ebdc6146104085780634df7e3d01461045257610142565b806306fdde0314610147578063095ea7b3146101ca5780630ae66820146102305780630dbe671f1461027257806318160ddd14610290575b600080fd5b61014f610795565b6040518080602001828103825283818151815260200191508051906020019080838360005b8381101561018f578082015181840152602081019050610174565b50505050905090810190601f1680156101bc5780820380516001836020036101000a031916815260200191505b509250505060405180910390f35b610216600480360360408110156101e057600080fd5b81019080803573ffffffffffffffffffffffffffffffffffffffff16906020019092919080359060200190929190505050610837565b604051808215151515815260200191505060405180910390f35b61025c6004803603602081101561024657600080fd5b8101908080359060200190929190505050610855565b6040518082815260200191505060405180910390f35b61027a61090c565b6040518082815260200191505060405180910390f35b610298610912565b6040518082815260200191505060405180910390f35b61031a600480360360608110156102c457600080fd5b81019080803573ffffffffffffffffffffffffffffffffffffffff169060200190929190803573ffffffffffffffffffffffffffffffffffffffff1690602001909291908035906020019092919050505061091c565b604051808215151515815260200191505060405180910390f35b61033c6109f5565b604051808260ff1660ff16815260200191505060405180910390f35b6103a46004803603604081101561036e57600080fd5b81019080803573ffffffffffffffffffffffffffffffffffffffff16906020019092919080359060200190929190505050610a0c565b604051808215151515815260200191505060405180910390f35b6103c6610abf565b604051808273ffffffffffffffffffffffffffffffffffffffff1673ffffffffffffffffffffffffffffffffffffffff16815260200191505060405180910390f35b610410610ae5565b604051808273ffffffffffffffffffffffffffffffffffffffff1673ffffffffffffffffffffffffffffffffffffffff16815260200191505060405180910390f35b61045a610b0b565b6040518082815260200191505060405180910390f35b6104b26004803603602081101561048657600080fd5b81019080803573ffffffffffffffffffffffffffffffffffffffff169060200190929190505050610b11565b6040518082815260200191505060405180910390f35b6104f4600480360360208110156104de57600080fd5b8101908080359060200190929190505050610b59565b6040518082815260200191505060405180910390f35b610512610ca2565b6040518080602001828103825283818151815260200191508051906020019080838360005b83811015610552578082015181840152602081019050610537565b50505050905090810190601f16801561057f5780820380516001836020036101000a031916815260200191505b509250505060405180910390f35b6105d9600480360360408110156105a357600080fd5b81019080803573ffffffffffffffffffffffffffffffffffffffff16906020019092919080359060200190929190505050610d44565b604051808215151515815260200191505060405180910390f35b61063f6004803603604081101561060957600080fd5b81019080803573ffffffffffffffffffffffffffffffffffffffff16906020019092919080359060200190929190505050610e11565b604051808215151515815260200191505060405180910390f35b610661610e2f565b6040518082815260200191505060405180910390f35b61067f610e35565b6040518082815260200191505060405180910390f35b61069d610e3b565b60405180848152602001838152602001828152602001935050505060405180910390f35b6106ed600480360360208110156106d757600080fd5b8101908080359060200190929190505050610e54565b005b6107516004803603604081101561070557600080fd5b81019080803573ffffffffffffffffffffffffffffffffffffffff169060200190929190803573ffffffffffffffffffffffffffffffffffffffff16906020019092919050505061115f565b6040518082815260200191505060405180910390f35b6107936004803603602081101561077d57600080fd5b81019080803590602001909291905050506111e6565b005b606060038054600181600116156101000203166002900480601f01602080910402602001604051908101604052809291908181526020018280546001816001161561010002031660029004801561082d5780601f106108025761010080835404028352916020019161082d565b820191906000526020600020905b81548152906001019060200180831161081057829003601f168201915b5050505050905090565b600061084b610844611467565b848461146f565b6001905092915050565b6000600a60009054906101000a900473ffffffffffffffffffffffffffffffffffffffff1673ffffffffffffffffffffffffffffffffffffffff166308d4db14836040518263ffffffff1660e01b81526004018082815260200191505060206040518083038186803b1580156108ca57600080fd5b505afa1580156108de573d6000803e3d6000fd5b505050506040513d60208110156108f457600080fd5b81019080805190602001909291905050509050919050565b60075481565b6000600254905090565b6000610929848484611666565b6109ea84610935611467565b6109e585604051806060016040528060288152602001611f0b60289139600160008b73ffffffffffffffffffffffffffffffffffffffff1673ffffffffffffffffffffffffffffffffffffffff168152602001908152602001600020600061099b611467565b73ffffffffffffffffffffffffffffffffffffffff1673ffffffffffffffffffffffffffffffffffffffff168152602001908152602001600020546119279092919063ffffffff16565b61146f565b600190509392505050565b6000600560009054906101000a900460ff16905090565b6000610ab5610a19611467565b84610ab08560016000610a2a611467565b73ffffffffffffffffffffffffffffffffffffffff1673ffffffffffffffffffffffffffffffffffffffff16815260200190815260200160002060008973ffffffffffffffffffffffffffffffffffffffff1673ffffffffffffffffffffffffffffffffffffffff168152602001908152602001600020546119e790919063ffffffff16565b61146f565b6001905092915050565b600a60009054906101000a900473ffffffffffffffffffffffffffffffffffffffff1681565b600b60009054906101000a900473ffffffffffffffffffffffffffffffffffffffff1681565b60085481565b60008060008373ffffffffffffffffffffffffffffffffffffffff1673ffffffffffffffffffffffffffffffffffffffff168152602001908152602001600020549050919050565b6000803073ffffffffffffffffffffffffffffffffffffffff166318160ddd6040518163ffffffff1660e01b815260040160206040518083038186803b158015610ba257600080fd5b505afa158015610bb6573d6000803e3d6000fd5b505050506040513d6020811015610bcc57600080fd5b81019080805190602001909291905050501415610bec5760009050610c9d565b600a60009054906101000a900473ffffffffffffffffffffffffffffffffffffffff1673ffffffffffffffffffffffffffffffffffffffff1663768713f5836040518263ffffffff1660e01b81526004018082815260200191505060206040518083038186803b158015610c5f57600080fd5b505afa158015610c73573d6000803e3d6000fd5b505050506040513d6020811015610c8957600080fd5b810190808051906020019092919050505090505b919050565b606060048054600181600116156101000203166002900480601f016020809104026020016040519081016040528092919081815260200182805460018160011615610100020316600290048015610d3a5780601f10610d0f57610100808354040283529160200191610d3a565b820191906000526020600020905b815481529060010190602001808311610d1d57829003601f168201915b5050505050905090565b6000610e07610d51611467565b84610e0285604051806060016040528060258152602001611fbf6025913960016000610d7b611467565b73ffffffffffffffffffffffffffffffffffffffff1673ffffffffffffffffffffffffffffffffffffffff16815260200190815260200160002060008a73ffffffffffffffffffffffffffffffffffffffff1673ffffffffffffffffffffffffffffffffffffffff168152602001908152602001600020546119279092919063ffffffff16565b61146f565b6001905092915050565b6000610e25610e1e611467565b8484611666565b6001905092915050565b60095481565b60065481565b6000806000600754600854600954925092509250909192565b6000610e5f82610855565b905080600b60009054906101000a900473ffffffffffffffffffffffffffffffffffffffff1673ffffffffffffffffffffffffffffffffffffffff1663dd62ed3e33306040518363ffffffff1660e01b8152600401808373ffffffffffffffffffffffffffffffffffffffff1673ffffffffffffffffffffffffffffffffffffffff1681526020018273ffffffffffffffffffffffffffffffffffffffff1673ffffffffffffffffffffffffffffffffffffffff1681526020019250505060206040518083038186803b158015610f3557600080fd5b505afa158015610f49573d6000803e3d6000fd5b505050506040513d6020811015610f5f57600080fd5b81019080805190602001909291905050501015610fc7576040517f08c379a0000000000000000000000000000000000000000000000000000000008152600401808060200182810382526034815260200180611eb16034913960400191505060405180910390fd5b600b60009054906101000a900473ffffffffffffffffffffffffffffffffffffffff1673ffffffffffffffffffffffffffffffffffffffff166323b872dd3330846040518463ffffffff1660e01b8152600401808473ffffffffffffffffffffffffffffffffffffffff1673ffffffffffffffffffffffffffffffffffffffff1681526020018373ffffffffffffffffffffffffffffffffffffffff1673ffffffffffffffffffffffffffffffffffffffff1681526020018281526020019350505050602060405180830381600087803b1580156110a457600080fd5b505af11580156110b8573d6000803e3d6000fd5b505050506040513d60208110156110ce57600080fd5b8101908080519060200190929190505050611151576040517f08c379a00000000000000000000000000000000000000000000000000000000081526004018080602001828103825260208152602001807f5472616e73666572696e67206f6620636f6c6c61746572616c206661696c656481525060200191505060405180910390fd5b61115b3383611a6f565b5050565b6000600160008473ffffffffffffffffffffffffffffffffffffffff1673ffffffffffffffffffffffffffffffffffffffff16815260200190815260200160002060008373ffffffffffffffffffffffffffffffffffffffff1673ffffffffffffffffffffffffffffffffffffffff16815260200190815260200160002054905092915050565b60006111f182610b59565b9050813073ffffffffffffffffffffffffffffffffffffffff166370a08231336040518263ffffffff1660e01b8152600401808273ffffffffffffffffffffffffffffffffffffffff1673ffffffffffffffffffffffffffffffffffffffff16815260200191505060206040518083038186803b15801561127157600080fd5b505afa158015611285573d6000803e3d6000fd5b505050506040513d602081101561129b57600080fd5b81019080805190602001909291905050501015611303576040517f08c379a0000000000000000000000000000000000000000000000000000000008152600401808060200182810382526022815260200180611f9d6022913960400191505060405180910390fd5b600b60009054906101000a900473ffffffffffffffffffffffffffffffffffffffff1673ffffffffffffffffffffffffffffffffffffffff1663a9059cbb33836040518363ffffffff1660e01b8152600401808373ffffffffffffffffffffffffffffffffffffffff1673ffffffffffffffffffffffffffffffffffffffff16815260200182815260200192505050602060405180830381600087803b1580156113ac57600080fd5b505af11580156113c0573d6000803e3d6000fd5b505050506040513d60208110156113d657600080fd5b8101908080519060200190929190505050611459576040517f08c379a00000000000000000000000000000000000000000000000000000000081526004018080602001828103825260208152602001807f5472616e73666572696e67206f6620636f6c6c61746572616c206661696c656481525060200191505060405180910390fd5b6114633383611c36565b5050565b600033905090565b600073ffffffffffffffffffffffffffffffffffffffff168373ffffffffffffffffffffffffffffffffffffffff1614156114f5576040517f08c379a0000000000000000000000000000000000000000000000000000000008152600401808060200182810382526024815260200180611f796024913960400191505060405180910390fd5b600073ffffffffffffffffffffffffffffffffffffffff168273ffffffffffffffffffffffffffffffffffffffff16141561157b576040517f08c379a0000000000000000000000000000000000000000000000000000000008152600401808060200182810382526022815260200180611e8f6022913960400191505060405180910390fd5b80600160008573ffffffffffffffffffffffffffffffffffffffff1673ffffffffffffffffffffffffffffffffffffffff16815260200190815260200160002060008473ffffffffffffffffffffffffffffffffffffffff1673ffffffffffffffffffffffffffffffffffffffff168152602001908152602001600020819055508173ffffffffffffffffffffffffffffffffffffffff168373ffffffffffffffffffffffffffffffffffffffff167f8c5be1e5ebec7d5bd14f71427d1e84f3dd0314c0f7b2291e5b200ac8c7c3b925836040518082815260200191505060405180910390a3505050565b600073ffffffffffffffffffffffffffffffffffffffff168373ffffffffffffffffffffffffffffffffffffffff1614156116ec576040517f08c379a0000000000000000000000000000000000000000000000000000000008152600401808060200182810382526025815260200180611f546025913960400191505060405180910390fd5b600073ffffffffffffffffffffffffffffffffffffffff168273ffffffffffffffffffffffffffffffffffffffff161415611772576040517f08c379a0000000000000000000000000000000000000000000000000000000008152600401808060200182810382526023815260200180611e4a6023913960400191505060405180910390fd5b61177d838383611dfa565b6117e881604051806060016040528060268152602001611ee5602691396000808773ffffffffffffffffffffffffffffffffffffffff1673ffffffffffffffffffffffffffffffffffffffff168152602001908152602001600020546119279092919063ffffffff16565b6000808573ffffffffffffffffffffffffffffffffffffffff1673ffffffffffffffffffffffffffffffffffffffff1681526020019081526020016000208190555061187b816000808573ffffffffffffffffffffffffffffffffffffffff1673ffffffffffffffffffffffffffffffffffffffff168152602001908152602001600020546119e790919063ffffffff16565b6000808473ffffffffffffffffffffffffffffffffffffffff1673ffffffffffffffffffffffffffffffffffffffff168152602001908152602001600020819055508173ffffffffffffffffffffffffffffffffffffffff168373ffffffffffffffffffffffffffffffffffffffff167fddf252ad1be2c89b69c2b068fc378daa952ba7f163c4a11628f55a4df523b3ef836040518082815260200191505060405180910390a3505050565b60008383111582906119d4576040517f08c379a00000000000000000000000000000000000000000000000000000000081526004018080602001828103825283818151815260200191508051906020019080838360005b8381101561199957808201518184015260208101905061197e565b50505050905090810190601f1680156119c65780820380516001836020036101000a031916815260200191505b509250505060405180910390fd5b5060008385039050809150509392505050565b600080828401905083811015611a65576040517f08c379a000000000000000000000000000000000000000000000000000000000815260040180806020018281038252601b8152602001807f536166654d6174683a206164646974696f6e206f766572666c6f77000000000081525060200191505060405180910390fd5b8091505092915050565b600073ffffffffffffffffffffffffffffffffffffffff168273ffffffffffffffffffffffffffffffffffffffff161415611b12576040517f08c379a000000000000000000000000000000000000000000000000000000000815260040180806020018281038252601f8152602001807f45524332303a206d696e7420746f20746865207a65726f20616464726573730081525060200191505060405180910390fd5b611b1e60008383611dfa565b611b33816002546119e790919063ffffffff16565b600281905550611b8a816000808573ffffffffffffffffffffffffffffffffffffffff1673ffffffffffffffffffffffffffffffffffffffff168152602001908152602001600020546119e790919063ffffffff16565b6000808473ffffffffffffffffffffffffffffffffffffffff1673ffffffffffffffffffffffffffffffffffffffff168152602001908152602001600020819055508173ffffffffffffffffffffffffffffffffffffffff16600073ffffffffffffffffffffffffffffffffffffffff167fddf252ad1be2c89b69c2b068fc378daa952ba7f163c4a11628f55a4df523b3ef836040518082815260200191505060405180910390a35050565b600073ffffffffffffffffffffffffffffffffffffffff168273ffffffffffffffffffffffffffffffffffffffff161415611cbc576040517f08c379a0000000000000000000000000000000000000000000000000000000008152600401808060200182810382526021815260200180611f336021913960400191505060405180910390fd5b611cc882600083611dfa565b611d3381604051806060016040528060228152602001611e6d602291396000808673ffffffffffffffffffffffffffffffffffffffff1673ffffffffffffffffffffffffffffffffffffffff168152602001908152602001600020546119279092919063ffffffff16565b6000808473ffffffffffffffffffffffffffffffffffffffff1673ffffffffffffffffffffffffffffffffffffffff16815260200190815260200160002081905550611d8a81600254611dff90919063ffffffff16565b600281905550600073ffffffffffffffffffffffffffffffffffffffff168273ffffffffffffffffffffffffffffffffffffffff167fddf252ad1be2c89b69c2b068fc378daa952ba7f163c4a11628f55a4df523b3ef836040518082815260200191505060405180910390a35050565b505050565b6000611e4183836040518060400160405280601e81526020017f536166654d6174683a207375627472616374696f6e206f766572666c6f770000815250611927565b90509291505056fe45524332303a207472616e7366657220746f20746865207a65726f206164647265737345524332303a206275726e20616d6f756e7420657863656564732062616c616e636545524332303a20617070726f766520746f20746865207a65726f20616464726573735573657220686173206e6f7420617070726f76656420636f6e747261637420666f7220746f6b656e20636f737420616d6f756e7445524332303a207472616e7366657220616d6f756e7420657863656564732062616c616e636545524332303a207472616e7366657220616d6f756e74206578636565647320616c6c6f77616e636545524332303a206275726e2066726f6d20746865207a65726f206164647265737345524332303a207472616e736665722066726f6d20746865207a65726f206164647265737345524332303a20617070726f76652066726f6d20746865207a65726f206164647265737343616e6e6f742073656c6c206d6f726520746f6b656e73207468616e206f776e656445524332303a2064656372656173656420616c6c6f77616e63652062656c6f77207a65726fa26469706673582212205944edb6f98ec58d9ec725abd00a5204244e4e29f3f50756a7ac13385bcfae0864736f6c63430006060033",
  "source": "pragma solidity 0.6.6;\n\nimport \"./I_Token.sol\";\nimport \"./I_Curve.sol\";\nimport \"../node_modules/openzeppelin-solidity/contracts/token/ERC20/ERC20.sol\";\nimport \"../node_modules/openzeppelin-solidity/contracts/token/ERC20/IERC20.sol\";\n\ncontract Token is ERC20 {\n    uint256 public maxSupply;\n    uint256 public a;\n    uint256 public b;\n    uint256 public c;\n    I_Curve public curveInstance;\n    IERC20 public collateralInstance;\n\n    constructor(\n        address _curveInstance,\n        uint256 _maxSupply,\n        uint256 _a,\n        uint256 _b,\n        uint256 _c,\n        string memory _name,\n        string memory _sybol,\n        address _underlyingCollateral\n    )\n        ERC20(\n            _name,\n            _sybol\n        )\n        public \n    {\n        curveInstance = I_Curve(_curveInstance);\n        maxSupply = _maxSupply;\n        a = _a;\n        b = _b;\n        c = _c;\n        collateralInstance = IERC20(_underlyingCollateral);\n    }\n\n    function getBuyCost(uint256 _tokens) public view returns(uint256) {\n        return curveInstance.getBuyPrice(_tokens);\n    } \n\n    function getSellAmount(uint256 _tokens) public view returns(uint256) {\n        if(this.totalSupply() == 0) {\n            return 0;\n        } else {\n            return curveInstance.getSellAmount(_tokens);\n        }\n    } \n    \n    function getCurve() external view returns (\n        uint256,\n        uint256,\n        uint256\n    ) {\n        return (a, b, c);\n    }\n\n    function buy(uint256 _tokens) external {\n        uint256 cost = getBuyCost(_tokens);\n\n        require(\n            collateralInstance.allowance(msg.sender, address(this)) >= cost,\n            \"User has not approved contract for token cost amount\"\n        );\n\n        require(\n            collateralInstance.transferFrom(\n                msg.sender,\n                address(this),\n                cost\n            ),\n            \"Transfering of collateral failed\"\n        );\n\n        _mint(msg.sender, _tokens);\n    }\n\n    function sell(uint256 _tokens) external {\n        uint256 reward = getSellAmount(_tokens);\n\n        require(\n            this.balanceOf(msg.sender) >= _tokens,\n            \"Cannot sell more tokens than owned\"\n        );\n\n        require(\n            collateralInstance.transfer(\n                msg.sender,\n                reward\n            ),\n            \"Transfering of collateral failed\"\n        );\n\n        _burn(msg.sender, _tokens);\n    }\n}",
  "sourcePath": "/Users/veronicac/Desktop/projects/linumlabs/BondingCurveFactory/contracts/Token.sol",
  "compiler": {
    "name": "solc",
    "version": "0.6.6+commit.6c089d02.Emscripten.clang",
    "optimizer": false,
    "runs": 200
  },
  "schemaVersion": "2.3.3",
  "updatedAt": "2020-05-14T12:05:20.488Z"
}