{
  "contractName": "LinearCurve",
  "abi": [
    {
      "inputs": [
        {
          "internalType": "uint256",
          "name": "_tokens",
          "type": "uint256"
        }
      ],
      "name": "getBuyPrice",
      "outputs": [
        {
          "internalType": "uint256",
          "name": "",
          "type": "uint256"
        }
      ],
      "stateMutability": "view",
      "type": "function"
    },
    {
      "inputs": [
        {
          "internalType": "uint256",
          "name": "_price",
          "type": "uint256"
        }
      ],
      "name": "getTokensForPrice",
      "outputs": [
        {
          "internalType": "uint256",
          "name": "",
          "type": "uint256"
        }
      ],
      "stateMutability": "pure",
      "type": "function"
    }
  ],
  "bytecode": "0x608060405234801561001057600080fd5b50610272806100206000396000f3fe608060405234801561001057600080fd5b50600436106100365760003560e01c806308d4db141461003b57806350cb29ec1461007d575b600080fd5b6100676004803603602081101561005157600080fd5b81019080803590602001909291905050506100bf565b6040518082815260200191505060405180910390f35b6100a96004803603602081101561009357600080fd5b8101908080359060200190929190505050610235565b6040518082815260200191505060405180910390f35b6000803373ffffffffffffffffffffffffffffffffffffffff16636c9c2faf6040518163ffffffff1660e01b815260040160206040518083038186803b15801561010857600080fd5b505afa15801561011c573d6000803e3d6000fd5b505050506040513d602081101561013257600080fd5b810190808051906020019092919050505090506000838201905060008060003373ffffffffffffffffffffffffffffffffffffffff1663d73e8d426040518163ffffffff1660e01b815260040160606040518083038186803b15801561019757600080fd5b505afa1580156101ab573d6000803e3d6000fd5b505050506040513d60608110156101c157600080fd5b81019080805190602001909291908051906020019092919080519060200190929190505050809350819450829550505050600085850382026002870a6002870a036002858161020c57fe5b04026003880a6003880a036003878161022157fe5b040201019050809650505050505050919050565b600091905056fea2646970667358221220fb6df6c3c9116d0fbbab54bfa5248346d7b19366911a93819dbe79faef9c5ed264736f6c63430006060033",
  "immutableReferences": {},
  "source": "pragma solidity 0.6.6;\n\nimport \"./I_Token.sol\";\n\ncontract LinearCurve {\n    /**\n      * Linear curve: y = mx + c\n      * Linear curve: price = gradient*supply + startingPrice\n      */\n\n    function getBuyPrice(\n        uint256 _tokens\n    )\n        public\n        view\n        returns(uint256)\n    {\n        uint256 supply = I_Token(msg.sender).getSupply();\n        uint256 newSupply = supply + _tokens;\n\n        uint256 a;\n        uint256 b;\n        uint256 c;\n        (a, b, c) = I_Token(msg.sender).getCurve();\n        \n        uint256 price = (a/3)*(newSupply**3 - supply**3) + (b/2)*(newSupply**2 - supply**2) + c*(newSupply - supply);\n\n        return price;\n    }\n\n    function getTokensForPrice(\n        uint256 _price\n    )\n        public\n        pure\n        returns(uint256)\n    {\n\n    }\n}",
  "sourcePath": "/Users/veronicac/Desktop/projects/linumlabs/BondingCurveFactory/contracts/LinearCurve.sol",
  "compiler": {
    "name": "solc",
    "version": "0.6.6+commit.6c089d02.Emscripten.clang"
  },
  "schemaVersion": "3.1.0",
  "updatedAt": "2020-05-11T10:12:34.030Z",
  "devdoc": {
    "methods": {}
  },
  "userdoc": {
    "methods": {
      "getBuyPrice(uint256)": {
        "notice": "Linear curve: y = mx + c Linear curve: price = gradient*supply + startingPrice"
      }
    }
  }
}