{
  "contractName": "Token",
  "abi": [
    {
      "inputs": [
        {
          "internalType": "uint256",
          "name": "_totalSupply",
          "type": "uint256"
        }
      ],
      "stateMutability": "nonpayable",
      "type": "constructor"
    },
    {
      "inputs": [],
      "name": "getSupply",
      "outputs": [
        {
          "internalType": "uint256",
          "name": "",
          "type": "uint256"
        }
      ],
      "stateMutability": "view",
      "type": "function"
    },
    {
      "inputs": [],
      "name": "getCurve",
      "outputs": [
        {
          "internalType": "uint256",
          "name": "",
          "type": "uint256"
        },
        {
          "internalType": "uint256",
          "name": "",
          "type": "uint256"
        },
        {
          "internalType": "uint256",
          "name": "",
          "type": "uint256"
        }
      ],
      "stateMutability": "view",
      "type": "function"
    }
  ],
  "bytecode": "0x608060405234801561001057600080fd5b506040516101153803806101158339818101604052602081101561003357600080fd5b81019080805190602001909291905050505060c2806100536000396000f3fe6080604052348015600f57600080fd5b506004361060325760003560e01c80636c9c2faf146037578063d73e8d42146053575b600080fd5b603d607d565b6040518082815260200191505060405180910390f35b60596082565b60405180848152602001838152602001828152602001935050505060405180910390f35b600090565b600080600090919256fea26469706673582212206a729639c2481022a77ca56e219e256443f14abf9de4a32133079a24e73ddb0764736f6c63430006060033",
  "immutableReferences": {},
  "source": "pragma solidity 0.6.6;\n\nimport \"./I_Token.sol\";\n\ncontract Token is I_Token {\n\n    constructor(uint256 _totalSupply) public {\n\n    }\n\n    function getSupply() override(I_Token) external view returns(uint256) {\n\n    }\n    \n    function getCurve() override(I_Token) external view returns (\n        uint256,\n        uint256,\n        uint256\n    ) {\n        \n    }\n}",
  "sourcePath": "/Users/veronicac/Desktop/projects/linumlabs/BondingCurveFactory/contracts/Token.sol",
  "compiler": {
    "name": "solc",
    "version": "0.6.6+commit.6c089d02.Emscripten.clang"
  },
  "schemaVersion": "3.1.0",
  "updatedAt": "2020-05-11T12:37:58.386Z",
  "devdoc": {
    "methods": {}
  },
  "userdoc": {
    "methods": {}
  }
}